{
	"data": {
		"bytecode": {
			"linkReferences": {},
			"object": "608060405260405180602001604052806000815250600990805190602001906200002b92919062000391565b506040518060400160405280600581526020017f2e6a736f6e000000000000000000000000000000000000000000000000000000815250600a90805190602001906200007992919062000391565b506112c0600c55610bb8600d5566038d7ea4c68000600e556002600f5560646010556000601360006101000a81548160ff0219169083151502179055506000601360016101000a81548160ff021916908315150217905550348015620000de57600080fd5b506040518060400160405280600981526020017f4c756e61205065706500000000000000000000000000000000000000000000008152506040518060400160405280600281526020017f4c5000000000000000000000000000000000000000000000000000000000000081525081600090805190602001906200016392919062000391565b5080600190805190602001906200017c92919062000391565b5050506200019f62000193620001ee60201b60201c565b620001f660201b60201c565b6001600781905550620001d1604051806080016040528060418152602001620057a760419139620002bc60201b60201c565b62093a8042620001e291906200049b565b601181905550620005bf565b600033905090565b6000600660009054906101000a900473ffffffffffffffffffffffffffffffffffffffff16905081600660006101000a81548173ffffffffffffffffffffffffffffffffffffffff021916908373ffffffffffffffffffffffffffffffffffffffff1602179055508173ffffffffffffffffffffffffffffffffffffffff168173ffffffffffffffffffffffffffffffffffffffff167f8be0079c531659141344cd1fd0a4f28419497f9722a3daafe3b4186f6b6457e060405160405180910390a35050565b620002cc620001ee60201b60201c565b73ffffffffffffffffffffffffffffffffffffffff16620002f26200036760201b60201c565b73ffffffffffffffffffffffffffffffffffffffff16146200034b576040517f08c379a0000000000000000000000000000000000000000000000000000000008152600401620003429062000468565b60405180910390fd5b80600b90805190602001906200036392919062000391565b5050565b6000600660009054906101000a900473ffffffffffffffffffffffffffffffffffffffff16905090565b8280546200039f9062000502565b90600052602060002090601f016020900481019282620003c357600085556200040f565b82601f10620003de57805160ff19168380011785556200040f565b828001600101855582156200040f579182015b828111156200040e578251825591602001919060010190620003f1565b5b5090506200041e919062000422565b5090565b5b808211156200043d57600081600090555060010162000423565b5090565b6000620004506020836200048a565b91506200045d8262000596565b602082019050919050565b60006020820190508181036000830152620004838162000441565b9050919050565b600082825260208201905092915050565b6000620004a882620004f8565b9150620004b583620004f8565b9250827fffffffffffffffffffffffffffffffffffffffffffffffffffffffffffffffff03821115620004ed57620004ec62000538565b5b828201905092915050565b6000819050919050565b600060028204905060018216806200051b57607f821691505b6020821081141562000532576200053162000567565b5b50919050565b7f4e487b7100000000000000000000000000000000000000000000000000000000600052601160045260246000fd5b7f4e487b7100000000000000000000000000000000000000000000000000000000600052602260045260246000fd5b7f4f776e61626c653a2063616c6c6572206973206e6f7420746865206f776e6572600082015250565b6151d880620005cf6000396000f3fe60806040526004361061027d5760003560e01c80637ec4a6591161014f578063c08d1fe5116100c1578063e0a808531161007a578063e0a8085314610967578063e985e9c514610990578063efbd73f4146109cd578063f057e6ba146109f6578063f2fde38b14610a00578063f75669e614610a295761027d565b8063c08d1fe514610855578063c55d0f5614610880578063c5c5fe76146108bd578063c87b56dd146108d4578063d5abeb0114610911578063daef84191461093c5761027d565b806395d89b411161011357806395d89b4114610768578063a22cb46514610793578063a45ba8e7146107bc578063b011561d146107e7578063b071401b14610803578063b88d4fde1461082c5761027d565b80637ec4a659146106955780638da5cb5b146106be5780638e7ea5b2146106e9578063934527c41461071457806394354fd01461073d5761027d565b80633ccfd60b116101f35780635503a0e8116101ac5780635503a0e8146105835780635c975abb146105ae57806362b99ad4146105d95780636352211e1461060457806370a0823114610641578063715018a61461067e5761027d565b80633ccfd60b1461048957806342842e0e146104a0578063438b6300146104c957806344a0d68a146105065780634fdd43cb1461052f57806351830227146105585761027d565b806313faede61161024557806313faede61461037b57806316ba10e0146103a657806316c38b3c146103cf57806318160ddd146103f857806318cae2691461042357806323b872dd146104605761027d565b806301ffc9a71461028257806306fdde03146102bf578063081812fc146102ea578063095ea7b314610327578063104aeef814610350575b600080fd5b34801561028e57600080fd5b506102a960048036038101906102a491906138ac565b610a52565b6040516102b69190614033565b60405180910390f35b3480156102cb57600080fd5b506102d4610b34565b6040516102e1919061404e565b60405180910390f35b3480156102f657600080fd5b50610311600480360381019061030c919061394f565b610bc6565b60405161031e9190613faa565b60405180910390f35b34801561033357600080fd5b5061034e6004803603810190610349919061383f565b610c4b565b005b34801561035c57600080fd5b50610365610d63565b60405161037291906143d0565b60405180910390f35b34801561038757600080fd5b50610390610d69565b60405161039d91906143d0565b60405180910390f35b3480156103b257600080fd5b506103cd60048036038101906103c89190613906565b610d6f565b005b3480156103db57600080fd5b506103f660048036038101906103f1919061387f565b610e05565b005b34801561040457600080fd5b5061040d610e9e565b60405161041a91906143d0565b60405180910390f35b34801561042f57600080fd5b5061044a600480360381019061044591906136bc565b610eaf565b60405161045791906143d0565b60405180910390f35b34801561046c57600080fd5b5061048760048036038101906104829190613729565b610ec7565b005b34801561049557600080fd5b5061049e610f27565b005b3480156104ac57600080fd5b506104c760048036038101906104c29190613729565b611247565b005b3480156104d557600080fd5b506104f060048036038101906104eb91906136bc565b611267565b6040516104fd9190614011565b60405180910390f35b34801561051257600080fd5b5061052d6004803603810190610528919061394f565b611388565b005b34801561053b57600080fd5b5061055660048036038101906105519190613906565b61140e565b005b34801561056457600080fd5b5061056d6114a4565b60405161057a9190614033565b60405180910390f35b34801561058f57600080fd5b506105986114b7565b6040516105a5919061404e565b60405180910390f35b3480156105ba57600080fd5b506105c3611545565b6040516105d09190614033565b60405180910390f35b3480156105e557600080fd5b506105ee611558565b6040516105fb919061404e565b60405180910390f35b34801561061057600080fd5b5061062b6004803603810190610626919061394f565b6115e6565b6040516106389190613faa565b60405180910390f35b34801561064d57600080fd5b50610668600480360381019061066391906136bc565b611698565b60405161067591906143d0565b60405180910390f35b34801561068a57600080fd5b50610693611750565b005b3480156106a157600080fd5b506106bc60048036038101906106b79190613906565b6117d8565b005b3480156106ca57600080fd5b506106d361186e565b6040516106e09190613faa565b60405180910390f35b3480156106f557600080fd5b506106fe611898565b60405161070b9190613faa565b60405180910390f35b34801561072057600080fd5b5061073b6004803603810190610736919061394f565b6118c8565b005b34801561074957600080fd5b5061075261194e565b60405161075f91906143d0565b60405180910390f35b34801561077457600080fd5b5061077d611954565b60405161078a919061404e565b60405180910390f35b34801561079f57600080fd5b506107ba60048036038101906107b591906137ff565b6119e6565b005b3480156107c857600080fd5b506107d16119fc565b6040516107de919061404e565b60405180910390f35b61080160048036038101906107fc919061394f565b611a8a565b005b34801561080f57600080fd5b5061082a6004803603810190610825919061394f565b611d08565b005b34801561083857600080fd5b50610853600480360381019061084e919061377c565b611d8e565b005b34801561086157600080fd5b5061086a611df0565b60405161087791906143d0565b60405180910390f35b34801561088c57600080fd5b506108a760048036038101906108a2919061394f565b611df6565b6040516108b491906143d0565b60405180910390f35b3480156108c957600080fd5b506108d2611e80565b005b3480156108e057600080fd5b506108fb60048036038101906108f6919061394f565b611f53565b604051610908919061404e565b60405180910390f35b34801561091d57600080fd5b506109266120ac565b60405161093391906143d0565b60405180910390f35b34801561094857600080fd5b506109516120b2565b60405161095e91906143d0565b60405180910390f35b34801561097357600080fd5b5061098e6004803603810190610989919061387f565b6120b8565b005b34801561099c57600080fd5b506109b760048036038101906109b291906136e9565b612151565b6040516109c49190614033565b60405180910390f35b3480156109d957600080fd5b506109f460048036038101906109ef919061397c565b6121e5565b005b6109fe61226f565b005b348015610a0c57600080fd5b50610a276004803603810190610a2291906136bc565b61241c565b005b348015610a3557600080fd5b50610a506004803603810190610a4b919061394f565b612514565b005b60007f80ac58cd000000000000000000000000000000000000000000000000000000007bffffffffffffffffffffffffffffffffffffffffffffffffffffffff1916827bffffffffffffffffffffffffffffffffffffffffffffffffffffffff19161480610b1d57507f5b5e139f000000000000000000000000000000000000000000000000000000007bffffffffffffffffffffffffffffffffffffffffffffffffffffffff1916827bffffffffffffffffffffffffffffffffffffffffffffffffffffffff1916145b80610b2d5750610b2c82612570565b5b9050919050565b606060008054610b439061484a565b80601f0160208091040260200160405190810160405280929190818152602001828054610b6f9061484a565b8015610bbc5780601f10610b9157610100808354040283529160200191610bbc565b820191906000526020600020905b815481529060010190602001808311610b9f57829003601f168201915b5050505050905090565b6000610bd1826125da565b610c10576040517f08c379a0000000000000000000000000000000000000000000000000000000008152600401610c07906142b0565b60405180910390fd5b6004600083815260200190815260200160002060009054906101000a900473ffffffffffffffffffffffffffffffffffffffff169050919050565b6000610c56826115e6565b90508073ffffffffffffffffffffffffffffffffffffffff168373ffffffffffffffffffffffffffffffffffffffff161415610cc7576040517f08c379a0000000000000000000000000000000000000000000000000000000008152600401610cbe90614330565b60405180910390fd5b8073ffffffffffffffffffffffffffffffffffffffff16610ce6612646565b73ffffffffffffffffffffffffffffffffffffffff161480610d155750610d1481610d0f612646565b612151565b5b610d54576040517f08c379a0000000000000000000000000000000000000000000000000000000008152600401610d4b90614210565b60405180910390fd5b610d5e838361264e565b505050565b600d5481565b600e5481565b610d77612646565b73ffffffffffffffffffffffffffffffffffffffff16610d9561186e565b73ffffffffffffffffffffffffffffffffffffffff1614610deb576040517f08c379a0000000000000000000000000000000000000000000000000000000008152600401610de2906142d0565b60405180910390fd5b80600a9080519060200190610e019291906134d0565b5050565b610e0d612646565b73ffffffffffffffffffffffffffffffffffffffff16610e2b61186e565b73ffffffffffffffffffffffffffffffffffffffff1614610e81576040517f08c379a0000000000000000000000000000000000000000000000000000000008152600401610e78906142d0565b60405180910390fd5b80601360006101000a81548160ff02191690831515021790555050565b6000610eaa6008612707565b905090565b60126020528060005260406000206000915090505481565b610ed8610ed2612646565b82612715565b610f17576040517f08c379a0000000000000000000000000000000000000000000000000000000008152600401610f0e90614350565b60405180910390fd5b610f228383836127f3565b505050565b610f2f612646565b73ffffffffffffffffffffffffffffffffffffffff16610f4d61186e565b73ffffffffffffffffffffffffffffffffffffffff1614610fa3576040517f08c379a0000000000000000000000000000000000000000000000000000000008152600401610f9a906142d0565b60405180910390fd5b601154421015610fe8576040517f08c379a0000000000000000000000000000000000000000000000000000000008152600401610fdf90614070565b60405180910390fd5b60004790506000610ff7611898565b73ffffffffffffffffffffffffffffffffffffffff16606460378461101c9190614706565b6110269190614564565b60405161103290613f95565b60006040518083038185875af1925050503d806000811461106f576040519150601f19603f3d011682016040523d82523d6000602084013e611074565b606091505b505090508061108257600080fd5b60006110966110916008612707565b6115e6565b73ffffffffffffffffffffffffffffffffffffffff1660646005856110bb9190614706565b6110c59190614564565b6040516110d190613f95565b60006040518083038185875af1925050503d806000811461110e576040519150601f19603f3d011682016040523d82523d6000602084013e611113565b606091505b505090508061112157600080fd5b600073c7bae424c11e1ef9a005aee8185e973116fc5a9e73ffffffffffffffffffffffffffffffffffffffff166064600a8661115d9190614706565b6111679190614564565b60405161117390613f95565b60006040518083038185875af1925050503d80600081146111b0576040519150601f19603f3d011682016040523d82523d6000602084013e6111b5565b606091505b50509050806111c357600080fd5b60006111cd61186e565b73ffffffffffffffffffffffffffffffffffffffff16476040516111f090613f95565b60006040518083038185875af1925050503d806000811461122d576040519150601f19603f3d011682016040523d82523d6000602084013e611232565b606091505b505090508061124057600080fd5b5050505050565b61126283838360405180602001604052806000815250611d8e565b505050565b6060600061127483611698565b905060008167ffffffffffffffff811115611292576112916149e3565b5b6040519080825280602002602001820160405280156112c05781602001602082028036833780820191505090505b50905060006001905060005b83811080156112e457506112e06008612707565b8211155b1561137c576112f2826125da565b15611369576000611302836115e6565b90508673ffffffffffffffffffffffffffffffffffffffff168173ffffffffffffffffffffffffffffffffffffffff161415611367578284838151811061134c5761134b6149b4565b5b6020026020010181815250508180611363906148ad565b9250505b505b8180611374906148ad565b9250506112cc565b82945050505050919050565b611390612646565b73ffffffffffffffffffffffffffffffffffffffff166113ae61186e565b73ffffffffffffffffffffffffffffffffffffffff1614611404576040517f08c379a00000000000000000000000000000000000000000000000000000000081526004016113fb906142d0565b60405180910390fd5b80600e8190555050565b611416612646565b73ffffffffffffffffffffffffffffffffffffffff1661143461186e565b73ffffffffffffffffffffffffffffffffffffffff161461148a576040517f08c379a0000000000000000000000000000000000000000000000000000000008152600401611481906142d0565b60405180910390fd5b80600b90805190602001906114a09291906134d0565b5050565b601360019054906101000a900460ff1681565b600a80546114c49061484a565b80601f01602080910402602001604051908101604052809291908181526020018280546114f09061484a565b801561153d5780601f106115125761010080835404028352916020019161153d565b820191906000526020600020905b81548152906001019060200180831161152057829003601f168201915b505050505081565b601360009054906101000a900460ff1681565b600980546115659061484a565b80601f01602080910402602001604051908101604052809291908181526020018280546115919061484a565b80156115de5780601f106115b3576101008083540402835291602001916115de565b820191906000526020600020905b8154815290600101906020018083116115c157829003601f168201915b505050505081565b6000806002600084815260200190815260200160002060009054906101000a900473ffffffffffffffffffffffffffffffffffffffff169050600073ffffffffffffffffffffffffffffffffffffffff168173ffffffffffffffffffffffffffffffffffffffff16141561168f576040517f08c379a000000000000000000000000000000000000000000000000000000000815260040161168690614250565b60405180910390fd5b80915050919050565b60008073ffffffffffffffffffffffffffffffffffffffff168273ffffffffffffffffffffffffffffffffffffffff161415611709576040517f08c379a000000000000000000000000000000000000000000000000000000000815260040161170090614230565b60405180910390fd5b600360008373ffffffffffffffffffffffffffffffffffffffff1673ffffffffffffffffffffffffffffffffffffffff168152602001908152602001600020549050919050565b611758612646565b73ffffffffffffffffffffffffffffffffffffffff1661177661186e565b73ffffffffffffffffffffffffffffffffffffffff16146117cc576040517f08c379a00000000000000000000000000000000000000000000000000000000081526004016117c3906142d0565b60405180910390fd5b6117d66000612a5a565b565b6117e0612646565b73ffffffffffffffffffffffffffffffffffffffff166117fe61186e565b73ffffffffffffffffffffffffffffffffffffffff1614611854576040517f08c379a000000000000000000000000000000000000000000000000000000000815260040161184b906142d0565b60405180910390fd5b806009908051906020019061186a9291906134d0565b5050565b6000600660009054906101000a900473ffffffffffffffffffffffffffffffffffffffff16905090565b60008060016118a76008612707565b6118b19190614760565b905060006118be826115e6565b9050809250505090565b6118d0612646565b73ffffffffffffffffffffffffffffffffffffffff166118ee61186e565b73ffffffffffffffffffffffffffffffffffffffff1614611944576040517f08c379a000000000000000000000000000000000000000000000000000000000815260040161193b906142d0565b60405180910390fd5b8060108190555050565b600f5481565b6060600180546119639061484a565b80601f016020809104026020016040519081016040528092919081815260200182805461198f9061484a565b80156119dc5780601f106119b1576101008083540402835291602001916119dc565b820191906000526020600020905b8154815290600101906020018083116119bf57829003601f168201915b5050505050905090565b6119f86119f1612646565b8383612b20565b5050565b600b8054611a099061484a565b80601f0160208091040260200160405190810160405280929190818152602001828054611a359061484a565b8015611a825780601f10611a5757610100808354040283529160200191611a82565b820191906000526020600020905b815481529060010190602001808311611a6557829003601f168201915b505050505081565b60026007541415611ad0576040517f08c379a0000000000000000000000000000000000000000000000000000000008152600401611ac790614370565b60405180910390fd5b600260078190555080600081118015611aeb5750600f548111155b611b2a576040517f08c379a0000000000000000000000000000000000000000000000000000000008152600401611b2190614130565b60405180910390fd5b601054601260003373ffffffffffffffffffffffffffffffffffffffff1673ffffffffffffffffffffffffffffffffffffffff1681526020019081526020016000205482611b78919061450e565b1115611bb9576040517f08c379a0000000000000000000000000000000000000000000000000000000008152600401611bb090614150565b60405180910390fd5b601360009054906101000a900460ff1615611c09576040517f08c379a0000000000000000000000000000000000000000000000000000000008152600401611c00906142f0565b60405180910390fd5b601154421115611c4e576040517f08c379a0000000000000000000000000000000000000000000000000000000008152600401611c45906141b0565b60405180910390fd5b600d5482611c5c6008612707565b611c66919061450e565b1115611ca7576040517f08c379a0000000000000000000000000000000000000000000000000000000008152600401611c9e906140f0565b60405180910390fd5b611cb082611df6565b341015611cf2576040517f08c379a0000000000000000000000000000000000000000000000000000000008152600401611ce9906143b0565b60405180910390fd5b611cfc3383612c8d565b50600160078190555050565b611d10612646565b73ffffffffffffffffffffffffffffffffffffffff16611d2e61186e565b73ffffffffffffffffffffffffffffffffffffffff1614611d84576040517f08c379a0000000000000000000000000000000000000000000000000000000008152600401611d7b906142d0565b60405180910390fd5b80600f8190555050565b611d9f611d99612646565b83612715565b611dde576040517f08c379a0000000000000000000000000000000000000000000000000000000008152600401611dd590614350565b60405180910390fd5b611dea84848484612d37565b50505050565b60115481565b600080600590506000611e096008612707565b9050600080600090505b85811015611e745760008484611e299190614564565b6002611e3591906145e8565b600e54611e429190614706565b90508380611e4f906148ad565b9450508083611e5e919061450e565b9250508080611e6c906148ad565b915050611e13565b50809350505050919050565b611e88612646565b73ffffffffffffffffffffffffffffffffffffffff16611ea661186e565b73ffffffffffffffffffffffffffffffffffffffff1614611efc576040517f08c379a0000000000000000000000000000000000000000000000000000000008152600401611ef3906142d0565b60405180910390fd5b601154421015611f41576040517f08c379a0000000000000000000000000000000000000000000000000000000008152600401611f3890614070565b60405180910390fd5b611f4b6008612707565b600c81905550565b6060611f5e826125da565b611f9d576040517f08c379a0000000000000000000000000000000000000000000000000000000008152600401611f9490614310565b60405180910390fd5b60001515601360019054906101000a900460ff161515141561204b57600b8054611fc69061484a565b80601f0160208091040260200160405190810160405280929190818152602001828054611ff29061484a565b801561203f5780601f106120145761010080835404028352916020019161203f565b820191906000526020600020905b81548152906001019060200180831161202257829003601f168201915b505050505090506120a7565b6000612055612d93565b9050600081511161207557604051806020016040528060008152506120a3565b8061207f84612e25565b600a60405160200161209393929190613f64565b6040516020818303038152906040525b9150505b919050565b600c5481565b60105481565b6120c0612646565b73ffffffffffffffffffffffffffffffffffffffff166120de61186e565b73ffffffffffffffffffffffffffffffffffffffff1614612134576040517f08c379a000000000000000000000000000000000000000000000000000000000815260040161212b906142d0565b60405180910390fd5b80601360016101000a81548160ff02191690831515021790555050565b6000600560008473ffffffffffffffffffffffffffffffffffffffff1673ffffffffffffffffffffffffffffffffffffffff16815260200190815260200160002060008373ffffffffffffffffffffffffffffffffffffffff1673ffffffffffffffffffffffffffffffffffffffff16815260200190815260200160002060009054906101000a900460ff16905092915050565b6121ed612646565b73ffffffffffffffffffffffffffffffffffffffff1661220b61186e565b73ffffffffffffffffffffffffffffffffffffffff1614612261576040517f08c379a0000000000000000000000000000000000000000000000000000000008152600401612258906142d0565b60405180910390fd5b61226b8183612c8d565b5050565b600260075414156122b5576040517f08c379a00000000000000000000000000000000000000000000000000000000081526004016122ac90614370565b60405180910390fd5b6002600781905550601360009054906101000a900460ff161561230d576040517f08c379a0000000000000000000000000000000000000000000000000000000008152600401612304906142f0565b60405180910390fd5b600c54600a600d5461231f919061450e565b1115612360576040517f08c379a0000000000000000000000000000000000000000000000000000000008152600401612357906141f0565b60405180910390fd5b600261236c6001611df6565b6123769190614564565b3410156123b8576040517f08c379a00000000000000000000000000000000000000000000000000000000081526004016123af90614270565b60405180910390fd5b6011544211156123fd576040517f08c379a00000000000000000000000000000000000000000000000000000000081526004016123f4906141b0565b60405180910390fd5b600a600d5461240c919061450e565b600d819055506001600781905550565b612424612646565b73ffffffffffffffffffffffffffffffffffffffff1661244261186e565b73ffffffffffffffffffffffffffffffffffffffff1614612498576040517f08c379a000000000000000000000000000000000000000000000000000000000815260040161248f906142d0565b60405180910390fd5b600073ffffffffffffffffffffffffffffffffffffffff168173ffffffffffffffffffffffffffffffffffffffff161415612508576040517f08c379a00000000000000000000000000000000000000000000000000000000081526004016124ff906140b0565b60405180910390fd5b61251181612a5a565b50565b61252561251f612646565b82612715565b612564576040517f08c379a000000000000000000000000000000000000000000000000000000000815260040161255b90614390565b60405180910390fd5b61256d81612f86565b50565b60007f01ffc9a7000000000000000000000000000000000000000000000000000000007bffffffffffffffffffffffffffffffffffffffffffffffffffffffff1916827bffffffffffffffffffffffffffffffffffffffffffffffffffffffff1916149050919050565b60008073ffffffffffffffffffffffffffffffffffffffff166002600084815260200190815260200160002060009054906101000a900473ffffffffffffffffffffffffffffffffffffffff1673ffffffffffffffffffffffffffffffffffffffff1614159050919050565b600033905090565b816004600083815260200190815260200160002060006101000a81548173ffffffffffffffffffffffffffffffffffffffff021916908373ffffffffffffffffffffffffffffffffffffffff160217905550808273ffffffffffffffffffffffffffffffffffffffff166126c1836115e6565b73ffffffffffffffffffffffffffffffffffffffff167f8c5be1e5ebec7d5bd14f71427d1e84f3dd0314c0f7b2291e5b200ac8c7c3b92560405160405180910390a45050565b600081600001549050919050565b6000612720826125da565b61275f576040517f08c379a0000000000000000000000000000000000000000000000000000000008152600401612756906141d0565b60405180910390fd5b600061276a836115e6565b90508073ffffffffffffffffffffffffffffffffffffffff168473ffffffffffffffffffffffffffffffffffffffff1614806127d957508373ffffffffffffffffffffffffffffffffffffffff166127c184610bc6565b73ffffffffffffffffffffffffffffffffffffffff16145b806127ea57506127e98185612151565b5b91505092915050565b8273ffffffffffffffffffffffffffffffffffffffff16612813826115e6565b73ffffffffffffffffffffffffffffffffffffffff1614612869576040517f08c379a0000000000000000000000000000000000000000000000000000000008152600401612860906140d0565b60405180910390fd5b600073ffffffffffffffffffffffffffffffffffffffff168273ffffffffffffffffffffffffffffffffffffffff1614156128d9576040517f08c379a00000000000000000000000000000000000000000000000000000000081526004016128d090614170565b60405180910390fd5b6128e48383836130a3565b6128ef60008261264e565b6001600360008573ffffffffffffffffffffffffffffffffffffffff1673ffffffffffffffffffffffffffffffffffffffff168152602001908152602001600020600082825461293f9190614760565b925050819055506001600360008473ffffffffffffffffffffffffffffffffffffffff1673ffffffffffffffffffffffffffffffffffffffff1681526020019081526020016000206000828254612996919061450e565b92505081905550816002600083815260200190815260200160002060006101000a81548173ffffffffffffffffffffffffffffffffffffffff021916908373ffffffffffffffffffffffffffffffffffffffff160217905550808273ffffffffffffffffffffffffffffffffffffffff168473ffffffffffffffffffffffffffffffffffffffff167fddf252ad1be2c89b69c2b068fc378daa952ba7f163c4a11628f55a4df523b3ef60405160405180910390a4612a558383836130a8565b505050565b6000600660009054906101000a900473ffffffffffffffffffffffffffffffffffffffff16905081600660006101000a81548173ffffffffffffffffffffffffffffffffffffffff021916908373ffffffffffffffffffffffffffffffffffffffff1602179055508173ffffffffffffffffffffffffffffffffffffffff168173ffffffffffffffffffffffffffffffffffffffff167f8be0079c531659141344cd1fd0a4f28419497f9722a3daafe3b4186f6b6457e060405160405180910390a35050565b8173ffffffffffffffffffffffffffffffffffffffff168373ffffffffffffffffffffffffffffffffffffffff161415612b8f576040517f08c379a0000000000000000000000000000000000000000000000000000000008152600401612b8690614190565b60405180910390fd5b80600560008573ffffffffffffffffffffffffffffffffffffffff1673ffffffffffffffffffffffffffffffffffffffff16815260200190815260200160002060008473ffffffffffffffffffffffffffffffffffffffff1673ffffffffffffffffffffffffffffffffffffffff16815260200190815260200160002060006101000a81548160ff0219169083151502179055508173ffffffffffffffffffffffffffffffffffffffff168373ffffffffffffffffffffffffffffffffffffffff167f17307eab39ab6107e8899845ad3d59bd9653f200f220920489ca2b5937696c3183604051612c809190614033565b60405180910390a3505050565b60005b81811015612d3257612ca260086130ad565b601260008473ffffffffffffffffffffffffffffffffffffffff1673ffffffffffffffffffffffffffffffffffffffff1681526020019081526020016000206000815480929190612cf2906148ad565b91905055506201518042612d06919061450e565b601181905550612d1f83612d1a6008612707565b6130c3565b8080612d2a906148ad565b915050612c90565b505050565b612d428484846127f3565b612d4e848484846130e1565b612d8d576040517f08c379a0000000000000000000000000000000000000000000000000000000008152600401612d8490614090565b60405180910390fd5b50505050565b606060098054612da29061484a565b80601f0160208091040260200160405190810160405280929190818152602001828054612dce9061484a565b8015612e1b5780601f10612df057610100808354040283529160200191612e1b565b820191906000526020600020905b815481529060010190602001808311612dfe57829003601f168201915b5050505050905090565b60606000821415612e6d576040518060400160405280600181526020017f30000000000000000000000000000000000000000000000000000000000000008152509050612f81565b600082905060005b60008214612e9f578080612e88906148ad565b915050600a82612e989190614564565b9150612e75565b60008167ffffffffffffffff811115612ebb57612eba6149e3565b5b6040519080825280601f01601f191660200182016040528015612eed5781602001600182028036833780820191505090505b5090505b60008514612f7a57600182612f069190614760565b9150600a85612f1591906148f6565b6030612f21919061450e565b60f81b818381518110612f3757612f366149b4565b5b60200101907effffffffffffffffffffffffffffffffffffffffffffffffffffffffffffff1916908160001a905350600a85612f739190614564565b9450612ef1565b8093505050505b919050565b6000612f91826115e6565b9050612f9f816000846130a3565b612faa60008361264e565b6001600360008373ffffffffffffffffffffffffffffffffffffffff1673ffffffffffffffffffffffffffffffffffffffff1681526020019081526020016000206000828254612ffa9190614760565b925050819055506002600083815260200190815260200160002060006101000a81549073ffffffffffffffffffffffffffffffffffffffff021916905581600073ffffffffffffffffffffffffffffffffffffffff168273ffffffffffffffffffffffffffffffffffffffff167fddf252ad1be2c89b69c2b068fc378daa952ba7f163c4a11628f55a4df523b3ef60405160405180910390a461309f816000846130a8565b5050565b505050565b505050565b6001816000016000828254019250508190555050565b6130dd828260405180602001604052806000815250613278565b5050565b60006131028473ffffffffffffffffffffffffffffffffffffffff166132d3565b1561326b578373ffffffffffffffffffffffffffffffffffffffff1663150b7a0261312b612646565b8786866040518563ffffffff1660e01b815260040161314d9493929190613fc5565b602060405180830381600087803b15801561316757600080fd5b505af192505050801561319857506040513d601f19601f8201168201806040525081019061319591906138d9565b60015b61321b573d80600081146131c8576040519150601f19603f3d011682016040523d82523d6000602084013e6131cd565b606091505b50600081511415613213576040517f08c379a000000000000000000000000000000000000000000000000000000000815260040161320a90614090565b60405180910390fd5b805181602001fd5b63150b7a0260e01b7bffffffffffffffffffffffffffffffffffffffffffffffffffffffff1916817bffffffffffffffffffffffffffffffffffffffffffffffffffffffff191614915050613270565b600190505b949350505050565b61328283836132f6565b61328f60008484846130e1565b6132ce576040517f08c379a00000000000000000000000000000000000000000000000000000000081526004016132c590614090565b60405180910390fd5b505050565b6000808273ffffffffffffffffffffffffffffffffffffffff163b119050919050565b600073ffffffffffffffffffffffffffffffffffffffff168273ffffffffffffffffffffffffffffffffffffffff161415613366576040517f08c379a000000000000000000000000000000000000000000000000000000000815260040161335d90614290565b60405180910390fd5b61336f816125da565b156133af576040517f08c379a00000000000000000000000000000000000000000000000000000000081526004016133a690614110565b60405180910390fd5b6133bb600083836130a3565b6001600360008473ffffffffffffffffffffffffffffffffffffffff1673ffffffffffffffffffffffffffffffffffffffff168152602001908152602001600020600082825461340b919061450e565b92505081905550816002600083815260200190815260200160002060006101000a81548173ffffffffffffffffffffffffffffffffffffffff021916908373ffffffffffffffffffffffffffffffffffffffff160217905550808273ffffffffffffffffffffffffffffffffffffffff16600073ffffffffffffffffffffffffffffffffffffffff167fddf252ad1be2c89b69c2b068fc378daa952ba7f163c4a11628f55a4df523b3ef60405160405180910390a46134cc600083836130a8565b5050565b8280546134dc9061484a565b90600052602060002090601f0160209004810192826134fe5760008555613545565b82601f1061351757805160ff1916838001178555613545565b82800160010185558215613545579182015b82811115613544578251825591602001919060010190613529565b5b5090506135529190613556565b5090565b5b8082111561356f576000816000905550600101613557565b5090565b600061358661358184614410565b6143eb565b9050828152602081018484840111156135a2576135a1614a17565b5b6135ad848285614808565b509392505050565b60006135c86135c384614441565b6143eb565b9050828152602081018484840111156135e4576135e3614a17565b5b6135ef848285614808565b509392505050565b60008135905061360681615146565b92915050565b60008135905061361b8161515d565b92915050565b60008135905061363081615174565b92915050565b60008151905061364581615174565b92915050565b600082601f8301126136605761365f614a12565b5b8135613670848260208601613573565b91505092915050565b600082601f83011261368e5761368d614a12565b5b813561369e8482602086016135b5565b91505092915050565b6000813590506136b68161518b565b92915050565b6000602082840312156136d2576136d1614a21565b5b60006136e0848285016135f7565b91505092915050565b60008060408385031215613700576136ff614a21565b5b600061370e858286016135f7565b925050602061371f858286016135f7565b9150509250929050565b60008060006060848603121561374257613741614a21565b5b6000613750868287016135f7565b9350506020613761868287016135f7565b9250506040613772868287016136a7565b9150509250925092565b6000806000806080858703121561379657613795614a21565b5b60006137a4878288016135f7565b94505060206137b5878288016135f7565b93505060406137c6878288016136a7565b925050606085013567ffffffffffffffff8111156137e7576137e6614a1c565b5b6137f38782880161364b565b91505092959194509250565b6000806040838503121561381657613815614a21565b5b6000613824858286016135f7565b92505060206138358582860161360c565b9150509250929050565b6000806040838503121561385657613855614a21565b5b6000613864858286016135f7565b9250506020613875858286016136a7565b9150509250929050565b60006020828403121561389557613894614a21565b5b60006138a38482850161360c565b91505092915050565b6000602082840312156138c2576138c1614a21565b5b60006138d084828501613621565b91505092915050565b6000602082840312156138ef576138ee614a21565b5b60006138fd84828501613636565b91505092915050565b60006020828403121561391c5761391b614a21565b5b600082013567ffffffffffffffff81111561393a57613939614a1c565b5b61394684828501613679565b91505092915050565b60006020828403121561396557613964614a21565b5b6000613973848285016136a7565b91505092915050565b6000806040838503121561399357613992614a21565b5b60006139a1858286016136a7565b92505060206139b2858286016135f7565b9150509250929050565b60006139c88383613f46565b60208301905092915050565b6139dd81614794565b82525050565b60006139ee82614497565b6139f881856144c5565b9350613a0383614472565b8060005b83811015613a34578151613a1b88826139bc565b9750613a26836144b8565b925050600181019050613a07565b5085935050505092915050565b613a4a816147a6565b82525050565b6000613a5b826144a2565b613a6581856144d6565b9350613a75818560208601614817565b613a7e81614a26565b840191505092915050565b6000613a94826144ad565b613a9e81856144f2565b9350613aae818560208601614817565b613ab781614a26565b840191505092915050565b6000613acd826144ad565b613ad78185614503565b9350613ae7818560208601614817565b80840191505092915050565b60008154613b008161484a565b613b0a8186614503565b94506001821660008114613b255760018114613b3657613b69565b60ff19831686528186019350613b69565b613b3f85614482565b60005b83811015613b6157815481890152600182019150602081019050613b42565b838801955050505b50505092915050565b6000613b7f6035836144f2565b9150613b8a82614a44565b604082019050919050565b6000613ba26032836144f2565b9150613bad82614a93565b604082019050919050565b6000613bc56026836144f2565b9150613bd082614ae2565b604082019050919050565b6000613be86025836144f2565b9150613bf382614b31565b604082019050919050565b6000613c0b6018836144f2565b9150613c1682614b80565b602082019050919050565b6000613c2e601c836144f2565b9150613c3982614ba9565b602082019050919050565b6000613c516014836144f2565b9150613c5c82614bd2565b602082019050919050565b6000613c746023836144f2565b9150613c7f82614bfb565b604082019050919050565b6000613c976024836144f2565b9150613ca282614c4a565b604082019050919050565b6000613cba6019836144f2565b9150613cc582614c99565b602082019050919050565b6000613cdd602e836144f2565b9150613ce882614cc2565b604082019050919050565b6000613d00602c836144f2565b9150613d0b82614d11565b604082019050919050565b6000613d236022836144f2565b9150613d2e82614d60565b604082019050919050565b6000613d466038836144f2565b9150613d5182614daf565b604082019050919050565b6000613d69602a836144f2565b9150613d7482614dfe565b604082019050919050565b6000613d8c6029836144f2565b9150613d9782614e4d565b604082019050919050565b6000613daf6025836144f2565b9150613dba82614e9c565b604082019050919050565b6000613dd26020836144f2565b9150613ddd82614eeb565b602082019050919050565b6000613df5602c836144f2565b9150613e0082614f14565b604082019050919050565b6000613e186020836144f2565b9150613e2382614f63565b602082019050919050565b6000613e3b6017836144f2565b9150613e4682614f8c565b602082019050919050565b6000613e5e602f836144f2565b9150613e6982614fb5565b604082019050919050565b6000613e816021836144f2565b9150613e8c82615004565b604082019050919050565b6000613ea46000836144e7565b9150613eaf82615053565b600082019050919050565b6000613ec76031836144f2565b9150613ed282615056565b604082019050919050565b6000613eea601f836144f2565b9150613ef5826150a5565b602082019050919050565b6000613f0d6030836144f2565b9150613f18826150ce565b604082019050919050565b6000613f30601f836144f2565b9150613f3b8261511d565b602082019050919050565b613f4f816147fe565b82525050565b613f5e816147fe565b82525050565b6000613f708286613ac2565b9150613f7c8285613ac2565b9150613f888284613af3565b9150819050949350505050565b6000613fa082613e97565b9150819050919050565b6000602082019050613fbf60008301846139d4565b92915050565b6000608082019050613fda60008301876139d4565b613fe760208301866139d4565b613ff46040830185613f55565b81810360608301526140068184613a50565b905095945050505050565b6000602082019050818103600083015261402b81846139e3565b905092915050565b60006020820190506140486000830184613a41565b92915050565b600060208201905081810360008301526140688184613a89565b905092915050565b6000602082019050818103600083015261408981613b72565b9050919050565b600060208201905081810360008301526140a981613b95565b9050919050565b600060208201905081810360008301526140c981613bb8565b9050919050565b600060208201905081810360008301526140e981613bdb565b9050919050565b6000602082019050818103600083015261410981613bfe565b9050919050565b6000602082019050818103600083015261412981613c21565b9050919050565b6000602082019050818103600083015261414981613c44565b9050919050565b6000602082019050818103600083015261416981613c67565b9050919050565b6000602082019050818103600083015261418981613c8a565b9050919050565b600060208201905081810360008301526141a981613cad565b9050919050565b600060208201905081810360008301526141c981613cd0565b9050919050565b600060208201905081810360008301526141e981613cf3565b9050919050565b6000602082019050818103600083015261420981613d16565b9050919050565b6000602082019050818103600083015261422981613d39565b9050919050565b6000602082019050818103600083015261424981613d5c565b9050919050565b6000602082019050818103600083015261426981613d7f565b9050919050565b6000602082019050818103600083015261428981613da2565b9050919050565b600060208201905081810360008301526142a981613dc5565b9050919050565b600060208201905081810360008301526142c981613de8565b9050919050565b600060208201905081810360008301526142e981613e0b565b9050919050565b6000602082019050818103600083015261430981613e2e565b9050919050565b6000602082019050818103600083015261432981613e51565b9050919050565b6000602082019050818103600083015261434981613e74565b9050919050565b6000602082019050818103600083015261436981613eba565b9050919050565b6000602082019050818103600083015261438981613edd565b9050919050565b600060208201905081810360008301526143a981613f00565b9050919050565b600060208201905081810360008301526143c981613f23565b9050919050565b60006020820190506143e56000830184613f55565b92915050565b60006143f5614406565b9050614401828261487c565b919050565b6000604051905090565b600067ffffffffffffffff82111561442b5761442a6149e3565b5b61443482614a26565b9050602081019050919050565b600067ffffffffffffffff82111561445c5761445b6149e3565b5b61446582614a26565b9050602081019050919050565b6000819050602082019050919050565b60008190508160005260206000209050919050565b600081519050919050565b600081519050919050565b600081519050919050565b6000602082019050919050565b600082825260208201905092915050565b600082825260208201905092915050565b600081905092915050565b600082825260208201905092915050565b600081905092915050565b6000614519826147fe565b9150614524836147fe565b9250827fffffffffffffffffffffffffffffffffffffffffffffffffffffffffffffffff0382111561455957614558614927565b5b828201905092915050565b600061456f826147fe565b915061457a836147fe565b92508261458a57614589614956565b5b828204905092915050565b6000808291508390505b60018511156145df578086048111156145bb576145ba614927565b5b60018516156145ca5780820291505b80810290506145d885614a37565b945061459f565b94509492505050565b60006145f3826147fe565b91506145fe836147fe565b925061462b7fffffffffffffffffffffffffffffffffffffffffffffffffffffffffffffffff8484614633565b905092915050565b60008261464357600190506146ff565b8161465157600090506146ff565b81600181146146675760028114614671576146a0565b60019150506146ff565b60ff84111561468357614682614927565b5b8360020a91508482111561469a57614699614927565b5b506146ff565b5060208310610133831016604e8410600b84101617156146d55782820a9050838111156146d0576146cf614927565b5b6146ff565b6146e28484846001614595565b925090508184048111156146f9576146f8614927565b5b81810290505b9392505050565b6000614711826147fe565b915061471c836147fe565b9250817fffffffffffffffffffffffffffffffffffffffffffffffffffffffffffffffff048311821515161561475557614754614927565b5b828202905092915050565b600061476b826147fe565b9150614776836147fe565b92508282101561478957614788614927565b5b828203905092915050565b600061479f826147de565b9050919050565b60008115159050919050565b60007fffffffff0000000000000000000000000000000000000000000000000000000082169050919050565b600073ffffffffffffffffffffffffffffffffffffffff82169050919050565b6000819050919050565b82818337600083830152505050565b60005b8381101561483557808201518184015260208101905061481a565b83811115614844576000848401525b50505050565b6000600282049050600182168061486257607f821691505b6020821081141561487657614875614985565b5b50919050565b61488582614a26565b810181811067ffffffffffffffff821117156148a4576148a36149e3565b5b80604052505050565b60006148b8826147fe565b91507fffffffffffffffffffffffffffffffffffffffffffffffffffffffffffffffff8214156148eb576148ea614927565b5b600182019050919050565b6000614901826147fe565b915061490c836147fe565b92508261491c5761491b614956565b5b828206905092915050565b7f4e487b7100000000000000000000000000000000000000000000000000000000600052601160045260246000fd5b7f4e487b7100000000000000000000000000000000000000000000000000000000600052601260045260246000fd5b7f4e487b7100000000000000000000000000000000000000000000000000000000600052602260045260246000fd5b7f4e487b7100000000000000000000000000000000000000000000000000000000600052603260045260246000fd5b7f4e487b7100000000000000000000000000000000000000000000000000000000600052604160045260246000fd5b600080fd5b600080fd5b600080fd5b600080fd5b6000601f19601f8301169050919050565b60008160011c9050919050565b7f5468652067616d65206973206f6e676f696e672c20776520686176652074686560008201527f207761697420666f72207468652077696e6e6572210000000000000000000000602082015250565b7f4552433732313a207472616e7366657220746f206e6f6e20455243373231526560008201527f63656976657220696d706c656d656e7465720000000000000000000000000000602082015250565b7f4f776e61626c653a206e6577206f776e657220697320746865207a65726f206160008201527f6464726573730000000000000000000000000000000000000000000000000000602082015250565b7f4552433732313a207472616e736665722066726f6d20696e636f72726563742060008201527f6f776e6572000000000000000000000000000000000000000000000000000000602082015250565b7f6d61782050657065206c696d69742065786365656465642e0000000000000000600082015250565b7f4552433732313a20746f6b656e20616c7265616479206d696e74656400000000600082015250565b7f496e76616c6964206d696e7420616d6f756e7421000000000000000000000000600082015250565b7f596f75207265616368206d6178696d756d20506570652070657220616464726560008201527f7373210000000000000000000000000000000000000000000000000000000000602082015250565b7f4552433732313a207472616e7366657220746f20746865207a65726f2061646460008201527f7265737300000000000000000000000000000000000000000000000000000000602082015250565b7f4552433732313a20617070726f766520746f2063616c6c657200000000000000600082015250565b7f5468652067616d6520697320656e6465642c20776520616c726561647920686160008201527f7665207468652077696e6e657221000000000000000000000000000000000000602082015250565b7f4552433732313a206f70657261746f7220717565727920666f72206e6f6e657860008201527f697374656e7420746f6b656e0000000000000000000000000000000000000000602082015250565b7f596f7520726561636820746865206c696d6974206f66206d617820737570706c60008201527f792e000000000000000000000000000000000000000000000000000000000000602082015250565b7f4552433732313a20617070726f76652063616c6c6572206973206e6f74206f7760008201527f6e6572206e6f7220617070726f76656420666f7220616c6c0000000000000000602082015250565b7f4552433732313a2062616c616e636520717565727920666f7220746865207a6560008201527f726f206164647265737300000000000000000000000000000000000000000000602082015250565b7f4552433732313a206f776e657220717565727920666f72206e6f6e657869737460008201527f656e7420746f6b656e0000000000000000000000000000000000000000000000602082015250565b7f50756d70206d617820737570706c79203a20696e73756666696369656e74206660008201527f756e64732e000000000000000000000000000000000000000000000000000000602082015250565b7f4552433732313a206d696e7420746f20746865207a65726f2061646472657373600082015250565b7f4552433732313a20617070726f76656420717565727920666f72206e6f6e657860008201527f697374656e7420746f6b656e0000000000000000000000000000000000000000602082015250565b7f4f776e61626c653a2063616c6c6572206973206e6f7420746865206f776e6572600082015250565b7f54686520636f6e74726163742069732070617573656421000000000000000000600082015250565b7f4552433732314d657461646174613a2055524920717565727920666f72206e6f60008201527f6e6578697374656e7420746f6b656e0000000000000000000000000000000000602082015250565b7f4552433732313a20617070726f76616c20746f2063757272656e74206f776e6560008201527f7200000000000000000000000000000000000000000000000000000000000000602082015250565b50565b7f4552433732313a207472616e736665722063616c6c6572206973206e6f74206f60008201527f776e6572206e6f7220617070726f766564000000000000000000000000000000602082015250565b7f5265656e7472616e637947756172643a207265656e7472616e742063616c6c00600082015250565b7f4552433732314275726e61626c653a2063616c6c6572206973206e6f74206f7760008201527f6e6572206e6f7220617070726f76656400000000000000000000000000000000602082015250565b7f4d696e742050657065203a20696e73756666696369656e742066756e64732e00600082015250565b61514f81614794565b811461515a57600080fd5b50565b615166816147a6565b811461517157600080fd5b50565b61517d816147b2565b811461518857600080fd5b50565b615194816147fe565b811461519f57600080fd5b5056fea2646970667358221220f642f290f4c21ccefdaec2a9b1950e3366155cd81e924884bef993b8ffa8580a64736f6c63430008070033697066733a2f2f516d53554137326d47627a33634b5a7943315835647632415339776a57474464623431483851795077655873724e2f68696464656e2e6a736f6e",
			"opcodes": "PUSH1 0x80 PUSH1 0x40 MSTORE PUSH1 0x40 MLOAD DUP1 PUSH1 0x20 ADD PUSH1 0x40 MSTORE DUP1 PUSH1 0x0 DUP2 MSTORE POP PUSH1 0x9 SWAP1 DUP1 MLOAD SWAP1 PUSH1 0x20 ADD SWAP1 PUSH3 0x2B SWAP3 SWAP2 SWAP1 PUSH3 0x391 JUMP JUMPDEST POP PUSH1 0x40 MLOAD DUP1 PUSH1 0x40 ADD PUSH1 0x40 MSTORE DUP1 PUSH1 0x5 DUP2 MSTORE PUSH1 0x20 ADD PUSH32 0x2E6A736F6E000000000000000000000000000000000000000000000000000000 DUP2 MSTORE POP PUSH1 0xA SWAP1 DUP1 MLOAD SWAP1 PUSH1 0x20 ADD SWAP1 PUSH3 0x79 SWAP3 SWAP2 SWAP1 PUSH3 0x391 JUMP JUMPDEST POP PUSH2 0x12C0 PUSH1 0xC SSTORE PUSH2 0xBB8 PUSH1 0xD SSTORE PUSH7 0x38D7EA4C68000 PUSH1 0xE SSTORE PUSH1 0x2 PUSH1 0xF SSTORE PUSH1 0x64 PUSH1 0x10 SSTORE PUSH1 0x0 PUSH1 0x13 PUSH1 0x0 PUSH2 0x100 EXP DUP2 SLOAD DUP2 PUSH1 0xFF MUL NOT AND SWAP1 DUP4 ISZERO ISZERO MUL OR SWAP1 SSTORE POP PUSH1 0x0 PUSH1 0x13 PUSH1 0x1 PUSH2 0x100 EXP DUP2 SLOAD DUP2 PUSH1 0xFF MUL NOT AND SWAP1 DUP4 ISZERO ISZERO MUL OR SWAP1 SSTORE POP CALLVALUE DUP1 ISZERO PUSH3 0xDE JUMPI PUSH1 0x0 DUP1 REVERT JUMPDEST POP PUSH1 0x40 MLOAD DUP1 PUSH1 0x40 ADD PUSH1 0x40 MSTORE DUP1 PUSH1 0x9 DUP2 MSTORE PUSH1 0x20 ADD PUSH32 0x4C756E6120506570650000000000000000000000000000000000000000000000 DUP2 MSTORE POP PUSH1 0x40 MLOAD DUP1 PUSH1 0x40 ADD PUSH1 0x40 MSTORE DUP1 PUSH1 0x2 DUP2 MSTORE PUSH1 0x20 ADD PUSH32 0x4C50000000000000000000000000000000000000000000000000000000000000 DUP2 MSTORE POP DUP2 PUSH1 0x0 SWAP1 DUP1 MLOAD SWAP1 PUSH1 0x20 ADD SWAP1 PUSH3 0x163 SWAP3 SWAP2 SWAP1 PUSH3 0x391 JUMP JUMPDEST POP DUP1 PUSH1 0x1 SWAP1 DUP1 MLOAD SWAP1 PUSH1 0x20 ADD SWAP1 PUSH3 0x17C SWAP3 SWAP2 SWAP1 PUSH3 0x391 JUMP JUMPDEST POP POP POP PUSH3 0x19F PUSH3 0x193 PUSH3 0x1EE PUSH1 0x20 SHL PUSH1 0x20 SHR JUMP JUMPDEST PUSH3 0x1F6 PUSH1 0x20 SHL PUSH1 0x20 SHR JUMP JUMPDEST PUSH1 0x1 PUSH1 0x7 DUP2 SWAP1 SSTORE POP PUSH3 0x1D1 PUSH1 0x40 MLOAD DUP1 PUSH1 0x80 ADD PUSH1 0x40 MSTORE DUP1 PUSH1 0x41 DUP2 MSTORE PUSH1 0x20 ADD PUSH3 0x57A7 PUSH1 0x41 SWAP2 CODECOPY PUSH3 0x2BC PUSH1 0x20 SHL PUSH1 0x20 SHR JUMP JUMPDEST PUSH3 0x93A80 TIMESTAMP PUSH3 0x1E2 SWAP2 SWAP1 PUSH3 0x49B JUMP JUMPDEST PUSH1 0x11 DUP2 SWAP1 SSTORE POP PUSH3 0x5BF JUMP JUMPDEST PUSH1 0x0 CALLER SWAP1 POP SWAP1 JUMP JUMPDEST PUSH1 0x0 PUSH1 0x6 PUSH1 0x0 SWAP1 SLOAD SWAP1 PUSH2 0x100 EXP SWAP1 DIV PUSH20 0xFFFFFFFFFFFFFFFFFFFFFFFFFFFFFFFFFFFFFFFF AND SWAP1 POP DUP2 PUSH1 0x6 PUSH1 0x0 PUSH2 0x100 EXP DUP2 SLOAD DUP2 PUSH20 0xFFFFFFFFFFFFFFFFFFFFFFFFFFFFFFFFFFFFFFFF MUL NOT AND SWAP1 DUP4 PUSH20 0xFFFFFFFFFFFFFFFFFFFFFFFFFFFFFFFFFFFFFFFF AND MUL OR SWAP1 SSTORE POP DUP2 PUSH20 0xFFFFFFFFFFFFFFFFFFFFFFFFFFFFFFFFFFFFFFFF AND DUP2 PUSH20 0xFFFFFFFFFFFFFFFFFFFFFFFFFFFFFFFFFFFFFFFF AND PUSH32 0x8BE0079C531659141344CD1FD0A4F28419497F9722A3DAAFE3B4186F6B6457E0 PUSH1 0x40 MLOAD PUSH1 0x40 MLOAD DUP1 SWAP2 SUB SWAP1 LOG3 POP POP JUMP JUMPDEST PUSH3 0x2CC PUSH3 0x1EE PUSH1 0x20 SHL PUSH1 0x20 SHR JUMP JUMPDEST PUSH20 0xFFFFFFFFFFFFFFFFFFFFFFFFFFFFFFFFFFFFFFFF AND PUSH3 0x2F2 PUSH3 0x367 PUSH1 0x20 SHL PUSH1 0x20 SHR JUMP JUMPDEST PUSH20 0xFFFFFFFFFFFFFFFFFFFFFFFFFFFFFFFFFFFFFFFF AND EQ PUSH3 0x34B JUMPI PUSH1 0x40 MLOAD PUSH32 0x8C379A000000000000000000000000000000000000000000000000000000000 DUP2 MSTORE PUSH1 0x4 ADD PUSH3 0x342 SWAP1 PUSH3 0x468 JUMP JUMPDEST PUSH1 0x40 MLOAD DUP1 SWAP2 SUB SWAP1 REVERT JUMPDEST DUP1 PUSH1 0xB SWAP1 DUP1 MLOAD SWAP1 PUSH1 0x20 ADD SWAP1 PUSH3 0x363 SWAP3 SWAP2 SWAP1 PUSH3 0x391 JUMP JUMPDEST POP POP JUMP JUMPDEST PUSH1 0x0 PUSH1 0x6 PUSH1 0x0 SWAP1 SLOAD SWAP1 PUSH2 0x100 EXP SWAP1 DIV PUSH20 0xFFFFFFFFFFFFFFFFFFFFFFFFFFFFFFFFFFFFFFFF AND SWAP1 POP SWAP1 JUMP JUMPDEST DUP3 DUP1 SLOAD PUSH3 0x39F SWAP1 PUSH3 0x502 JUMP JUMPDEST SWAP1 PUSH1 0x0 MSTORE PUSH1 0x20 PUSH1 0x0 KECCAK256 SWAP1 PUSH1 0x1F ADD PUSH1 0x20 SWAP1 DIV DUP2 ADD SWAP3 DUP3 PUSH3 0x3C3 JUMPI PUSH1 0x0 DUP6 SSTORE PUSH3 0x40F JUMP JUMPDEST DUP3 PUSH1 0x1F LT PUSH3 0x3DE JUMPI DUP1 MLOAD PUSH1 0xFF NOT AND DUP4 DUP1 ADD OR DUP6 SSTORE PUSH3 0x40F JUMP JUMPDEST DUP3 DUP1 ADD PUSH1 0x1 ADD DUP6 SSTORE DUP3 ISZERO PUSH3 0x40F JUMPI SWAP2 DUP3 ADD JUMPDEST DUP3 DUP2 GT ISZERO PUSH3 0x40E JUMPI DUP3 MLOAD DUP3 SSTORE SWAP2 PUSH1 0x20 ADD SWAP2 SWAP1 PUSH1 0x1 ADD SWAP1 PUSH3 0x3F1 JUMP JUMPDEST JUMPDEST POP SWAP1 POP PUSH3 0x41E SWAP2 SWAP1 PUSH3 0x422 JUMP JUMPDEST POP SWAP1 JUMP JUMPDEST JUMPDEST DUP1 DUP3 GT ISZERO PUSH3 0x43D JUMPI PUSH1 0x0 DUP2 PUSH1 0x0 SWAP1 SSTORE POP PUSH1 0x1 ADD PUSH3 0x423 JUMP JUMPDEST POP SWAP1 JUMP JUMPDEST PUSH1 0x0 PUSH3 0x450 PUSH1 0x20 DUP4 PUSH3 0x48A JUMP JUMPDEST SWAP2 POP PUSH3 0x45D DUP3 PUSH3 0x596 JUMP JUMPDEST PUSH1 0x20 DUP3 ADD SWAP1 POP SWAP2 SWAP1 POP JUMP JUMPDEST PUSH1 0x0 PUSH1 0x20 DUP3 ADD SWAP1 POP DUP2 DUP2 SUB PUSH1 0x0 DUP4 ADD MSTORE PUSH3 0x483 DUP2 PUSH3 0x441 JUMP JUMPDEST SWAP1 POP SWAP2 SWAP1 POP JUMP JUMPDEST PUSH1 0x0 DUP3 DUP3 MSTORE PUSH1 0x20 DUP3 ADD SWAP1 POP SWAP3 SWAP2 POP POP JUMP JUMPDEST PUSH1 0x0 PUSH3 0x4A8 DUP3 PUSH3 0x4F8 JUMP JUMPDEST SWAP2 POP PUSH3 0x4B5 DUP4 PUSH3 0x4F8 JUMP JUMPDEST SWAP3 POP DUP3 PUSH32 0xFFFFFFFFFFFFFFFFFFFFFFFFFFFFFFFFFFFFFFFFFFFFFFFFFFFFFFFFFFFFFFFF SUB DUP3 GT ISZERO PUSH3 0x4ED JUMPI PUSH3 0x4EC PUSH3 0x538 JUMP JUMPDEST JUMPDEST DUP3 DUP3 ADD SWAP1 POP SWAP3 SWAP2 POP POP JUMP JUMPDEST PUSH1 0x0 DUP2 SWAP1 POP SWAP2 SWAP1 POP JUMP JUMPDEST PUSH1 0x0 PUSH1 0x2 DUP3 DIV SWAP1 POP PUSH1 0x1 DUP3 AND DUP1 PUSH3 0x51B JUMPI PUSH1 0x7F DUP3 AND SWAP2 POP JUMPDEST PUSH1 0x20 DUP3 LT DUP2 EQ ISZERO PUSH3 0x532 JUMPI PUSH3 0x531 PUSH3 0x567 JUMP JUMPDEST JUMPDEST POP SWAP2 SWAP1 POP JUMP JUMPDEST PUSH32 0x4E487B7100000000000000000000000000000000000000000000000000000000 PUSH1 0x0 MSTORE PUSH1 0x11 PUSH1 0x4 MSTORE PUSH1 0x24 PUSH1 0x0 REVERT JUMPDEST PUSH32 0x4E487B7100000000000000000000000000000000000000000000000000000000 PUSH1 0x0 MSTORE PUSH1 0x22 PUSH1 0x4 MSTORE PUSH1 0x24 PUSH1 0x0 REVERT JUMPDEST PUSH32 0x4F776E61626C653A2063616C6C6572206973206E6F7420746865206F776E6572 PUSH1 0x0 DUP3 ADD MSTORE POP JUMP JUMPDEST PUSH2 0x51D8 DUP1 PUSH3 0x5CF PUSH1 0x0 CODECOPY PUSH1 0x0 RETURN INVALID PUSH1 0x80 PUSH1 0x40 MSTORE PUSH1 0x4 CALLDATASIZE LT PUSH2 0x27D JUMPI PUSH1 0x0 CALLDATALOAD PUSH1 0xE0 SHR DUP1 PUSH4 0x7EC4A659 GT PUSH2 0x14F JUMPI DUP1 PUSH4 0xC08D1FE5 GT PUSH2 0xC1 JUMPI DUP1 PUSH4 0xE0A80853 GT PUSH2 0x7A JUMPI DUP1 PUSH4 0xE0A80853 EQ PUSH2 0x967 JUMPI DUP1 PUSH4 0xE985E9C5 EQ PUSH2 0x990 JUMPI DUP1 PUSH4 0xEFBD73F4 EQ PUSH2 0x9CD JUMPI DUP1 PUSH4 0xF057E6BA EQ PUSH2 0x9F6 JUMPI DUP1 PUSH4 0xF2FDE38B EQ PUSH2 0xA00 JUMPI DUP1 PUSH4 0xF75669E6 EQ PUSH2 0xA29 JUMPI PUSH2 0x27D JUMP JUMPDEST DUP1 PUSH4 0xC08D1FE5 EQ PUSH2 0x855 JUMPI DUP1 PUSH4 0xC55D0F56 EQ PUSH2 0x880 JUMPI DUP1 PUSH4 0xC5C5FE76 EQ PUSH2 0x8BD JUMPI DUP1 PUSH4 0xC87B56DD EQ PUSH2 0x8D4 JUMPI DUP1 PUSH4 0xD5ABEB01 EQ PUSH2 0x911 JUMPI DUP1 PUSH4 0xDAEF8419 EQ PUSH2 0x93C JUMPI PUSH2 0x27D JUMP JUMPDEST DUP1 PUSH4 0x95D89B41 GT PUSH2 0x113 JUMPI DUP1 PUSH4 0x95D89B41 EQ PUSH2 0x768 JUMPI DUP1 PUSH4 0xA22CB465 EQ PUSH2 0x793 JUMPI DUP1 PUSH4 0xA45BA8E7 EQ PUSH2 0x7BC JUMPI DUP1 PUSH4 0xB011561D EQ PUSH2 0x7E7 JUMPI DUP1 PUSH4 0xB071401B EQ PUSH2 0x803 JUMPI DUP1 PUSH4 0xB88D4FDE EQ PUSH2 0x82C JUMPI PUSH2 0x27D JUMP JUMPDEST DUP1 PUSH4 0x7EC4A659 EQ PUSH2 0x695 JUMPI DUP1 PUSH4 0x8DA5CB5B EQ PUSH2 0x6BE JUMPI DUP1 PUSH4 0x8E7EA5B2 EQ PUSH2 0x6E9 JUMPI DUP1 PUSH4 0x934527C4 EQ PUSH2 0x714 JUMPI DUP1 PUSH4 0x94354FD0 EQ PUSH2 0x73D JUMPI PUSH2 0x27D JUMP JUMPDEST DUP1 PUSH4 0x3CCFD60B GT PUSH2 0x1F3 JUMPI DUP1 PUSH4 0x5503A0E8 GT PUSH2 0x1AC JUMPI DUP1 PUSH4 0x5503A0E8 EQ PUSH2 0x583 JUMPI DUP1 PUSH4 0x5C975ABB EQ PUSH2 0x5AE JUMPI DUP1 PUSH4 0x62B99AD4 EQ PUSH2 0x5D9 JUMPI DUP1 PUSH4 0x6352211E EQ PUSH2 0x604 JUMPI DUP1 PUSH4 0x70A08231 EQ PUSH2 0x641 JUMPI DUP1 PUSH4 0x715018A6 EQ PUSH2 0x67E JUMPI PUSH2 0x27D JUMP JUMPDEST DUP1 PUSH4 0x3CCFD60B EQ PUSH2 0x489 JUMPI DUP1 PUSH4 0x42842E0E EQ PUSH2 0x4A0 JUMPI DUP1 PUSH4 0x438B6300 EQ PUSH2 0x4C9 JUMPI DUP1 PUSH4 0x44A0D68A EQ PUSH2 0x506 JUMPI DUP1 PUSH4 0x4FDD43CB EQ PUSH2 0x52F JUMPI DUP1 PUSH4 0x51830227 EQ PUSH2 0x558 JUMPI PUSH2 0x27D JUMP JUMPDEST DUP1 PUSH4 0x13FAEDE6 GT PUSH2 0x245 JUMPI DUP1 PUSH4 0x13FAEDE6 EQ PUSH2 0x37B JUMPI DUP1 PUSH4 0x16BA10E0 EQ PUSH2 0x3A6 JUMPI DUP1 PUSH4 0x16C38B3C EQ PUSH2 0x3CF JUMPI DUP1 PUSH4 0x18160DDD EQ PUSH2 0x3F8 JUMPI DUP1 PUSH4 0x18CAE269 EQ PUSH2 0x423 JUMPI DUP1 PUSH4 0x23B872DD EQ PUSH2 0x460 JUMPI PUSH2 0x27D JUMP JUMPDEST DUP1 PUSH4 0x1FFC9A7 EQ PUSH2 0x282 JUMPI DUP1 PUSH4 0x6FDDE03 EQ PUSH2 0x2BF JUMPI DUP1 PUSH4 0x81812FC EQ PUSH2 0x2EA JUMPI DUP1 PUSH4 0x95EA7B3 EQ PUSH2 0x327 JUMPI DUP1 PUSH4 0x104AEEF8 EQ PUSH2 0x350 JUMPI JUMPDEST PUSH1 0x0 DUP1 REVERT JUMPDEST CALLVALUE DUP1 ISZERO PUSH2 0x28E JUMPI PUSH1 0x0 DUP1 REVERT JUMPDEST POP PUSH2 0x2A9 PUSH1 0x4 DUP1 CALLDATASIZE SUB DUP2 ADD SWAP1 PUSH2 0x2A4 SWAP2 SWAP1 PUSH2 0x38AC JUMP JUMPDEST PUSH2 0xA52 JUMP JUMPDEST PUSH1 0x40 MLOAD PUSH2 0x2B6 SWAP2 SWAP1 PUSH2 0x4033 JUMP JUMPDEST PUSH1 0x40 MLOAD DUP1 SWAP2 SUB SWAP1 RETURN JUMPDEST CALLVALUE DUP1 ISZERO PUSH2 0x2CB JUMPI PUSH1 0x0 DUP1 REVERT JUMPDEST POP PUSH2 0x2D4 PUSH2 0xB34 JUMP JUMPDEST PUSH1 0x40 MLOAD PUSH2 0x2E1 SWAP2 SWAP1 PUSH2 0x404E JUMP JUMPDEST PUSH1 0x40 MLOAD DUP1 SWAP2 SUB SWAP1 RETURN JUMPDEST CALLVALUE DUP1 ISZERO PUSH2 0x2F6 JUMPI PUSH1 0x0 DUP1 REVERT JUMPDEST POP PUSH2 0x311 PUSH1 0x4 DUP1 CALLDATASIZE SUB DUP2 ADD SWAP1 PUSH2 0x30C SWAP2 SWAP1 PUSH2 0x394F JUMP JUMPDEST PUSH2 0xBC6 JUMP JUMPDEST PUSH1 0x40 MLOAD PUSH2 0x31E SWAP2 SWAP1 PUSH2 0x3FAA JUMP JUMPDEST PUSH1 0x40 MLOAD DUP1 SWAP2 SUB SWAP1 RETURN JUMPDEST CALLVALUE DUP1 ISZERO PUSH2 0x333 JUMPI PUSH1 0x0 DUP1 REVERT JUMPDEST POP PUSH2 0x34E PUSH1 0x4 DUP1 CALLDATASIZE SUB DUP2 ADD SWAP1 PUSH2 0x349 SWAP2 SWAP1 PUSH2 0x383F JUMP JUMPDEST PUSH2 0xC4B JUMP JUMPDEST STOP JUMPDEST CALLVALUE DUP1 ISZERO PUSH2 0x35C JUMPI PUSH1 0x0 DUP1 REVERT JUMPDEST POP PUSH2 0x365 PUSH2 0xD63 JUMP JUMPDEST PUSH1 0x40 MLOAD PUSH2 0x372 SWAP2 SWAP1 PUSH2 0x43D0 JUMP JUMPDEST PUSH1 0x40 MLOAD DUP1 SWAP2 SUB SWAP1 RETURN JUMPDEST CALLVALUE DUP1 ISZERO PUSH2 0x387 JUMPI PUSH1 0x0 DUP1 REVERT JUMPDEST POP PUSH2 0x390 PUSH2 0xD69 JUMP JUMPDEST PUSH1 0x40 MLOAD PUSH2 0x39D SWAP2 SWAP1 PUSH2 0x43D0 JUMP JUMPDEST PUSH1 0x40 MLOAD DUP1 SWAP2 SUB SWAP1 RETURN JUMPDEST CALLVALUE DUP1 ISZERO PUSH2 0x3B2 JUMPI PUSH1 0x0 DUP1 REVERT JUMPDEST POP PUSH2 0x3CD PUSH1 0x4 DUP1 CALLDATASIZE SUB DUP2 ADD SWAP1 PUSH2 0x3C8 SWAP2 SWAP1 PUSH2 0x3906 JUMP JUMPDEST PUSH2 0xD6F JUMP JUMPDEST STOP JUMPDEST CALLVALUE DUP1 ISZERO PUSH2 0x3DB JUMPI PUSH1 0x0 DUP1 REVERT JUMPDEST POP PUSH2 0x3F6 PUSH1 0x4 DUP1 CALLDATASIZE SUB DUP2 ADD SWAP1 PUSH2 0x3F1 SWAP2 SWAP1 PUSH2 0x387F JUMP JUMPDEST PUSH2 0xE05 JUMP JUMPDEST STOP JUMPDEST CALLVALUE DUP1 ISZERO PUSH2 0x404 JUMPI PUSH1 0x0 DUP1 REVERT JUMPDEST POP PUSH2 0x40D PUSH2 0xE9E JUMP JUMPDEST PUSH1 0x40 MLOAD PUSH2 0x41A SWAP2 SWAP1 PUSH2 0x43D0 JUMP JUMPDEST PUSH1 0x40 MLOAD DUP1 SWAP2 SUB SWAP1 RETURN JUMPDEST CALLVALUE DUP1 ISZERO PUSH2 0x42F JUMPI PUSH1 0x0 DUP1 REVERT JUMPDEST POP PUSH2 0x44A PUSH1 0x4 DUP1 CALLDATASIZE SUB DUP2 ADD SWAP1 PUSH2 0x445 SWAP2 SWAP1 PUSH2 0x36BC JUMP JUMPDEST PUSH2 0xEAF JUMP JUMPDEST PUSH1 0x40 MLOAD PUSH2 0x457 SWAP2 SWAP1 PUSH2 0x43D0 JUMP JUMPDEST PUSH1 0x40 MLOAD DUP1 SWAP2 SUB SWAP1 RETURN JUMPDEST CALLVALUE DUP1 ISZERO PUSH2 0x46C JUMPI PUSH1 0x0 DUP1 REVERT JUMPDEST POP PUSH2 0x487 PUSH1 0x4 DUP1 CALLDATASIZE SUB DUP2 ADD SWAP1 PUSH2 0x482 SWAP2 SWAP1 PUSH2 0x3729 JUMP JUMPDEST PUSH2 0xEC7 JUMP JUMPDEST STOP JUMPDEST CALLVALUE DUP1 ISZERO PUSH2 0x495 JUMPI PUSH1 0x0 DUP1 REVERT JUMPDEST POP PUSH2 0x49E PUSH2 0xF27 JUMP JUMPDEST STOP JUMPDEST CALLVALUE DUP1 ISZERO PUSH2 0x4AC JUMPI PUSH1 0x0 DUP1 REVERT JUMPDEST POP PUSH2 0x4C7 PUSH1 0x4 DUP1 CALLDATASIZE SUB DUP2 ADD SWAP1 PUSH2 0x4C2 SWAP2 SWAP1 PUSH2 0x3729 JUMP JUMPDEST PUSH2 0x1247 JUMP JUMPDEST STOP JUMPDEST CALLVALUE DUP1 ISZERO PUSH2 0x4D5 JUMPI PUSH1 0x0 DUP1 REVERT JUMPDEST POP PUSH2 0x4F0 PUSH1 0x4 DUP1 CALLDATASIZE SUB DUP2 ADD SWAP1 PUSH2 0x4EB SWAP2 SWAP1 PUSH2 0x36BC JUMP JUMPDEST PUSH2 0x1267 JUMP JUMPDEST PUSH1 0x40 MLOAD PUSH2 0x4FD SWAP2 SWAP1 PUSH2 0x4011 JUMP JUMPDEST PUSH1 0x40 MLOAD DUP1 SWAP2 SUB SWAP1 RETURN JUMPDEST CALLVALUE DUP1 ISZERO PUSH2 0x512 JUMPI PUSH1 0x0 DUP1 REVERT JUMPDEST POP PUSH2 0x52D PUSH1 0x4 DUP1 CALLDATASIZE SUB DUP2 ADD SWAP1 PUSH2 0x528 SWAP2 SWAP1 PUSH2 0x394F JUMP JUMPDEST PUSH2 0x1388 JUMP JUMPDEST STOP JUMPDEST CALLVALUE DUP1 ISZERO PUSH2 0x53B JUMPI PUSH1 0x0 DUP1 REVERT JUMPDEST POP PUSH2 0x556 PUSH1 0x4 DUP1 CALLDATASIZE SUB DUP2 ADD SWAP1 PUSH2 0x551 SWAP2 SWAP1 PUSH2 0x3906 JUMP JUMPDEST PUSH2 0x140E JUMP JUMPDEST STOP JUMPDEST CALLVALUE DUP1 ISZERO PUSH2 0x564 JUMPI PUSH1 0x0 DUP1 REVERT JUMPDEST POP PUSH2 0x56D PUSH2 0x14A4 JUMP JUMPDEST PUSH1 0x40 MLOAD PUSH2 0x57A SWAP2 SWAP1 PUSH2 0x4033 JUMP JUMPDEST PUSH1 0x40 MLOAD DUP1 SWAP2 SUB SWAP1 RETURN JUMPDEST CALLVALUE DUP1 ISZERO PUSH2 0x58F JUMPI PUSH1 0x0 DUP1 REVERT JUMPDEST POP PUSH2 0x598 PUSH2 0x14B7 JUMP JUMPDEST PUSH1 0x40 MLOAD PUSH2 0x5A5 SWAP2 SWAP1 PUSH2 0x404E JUMP JUMPDEST PUSH1 0x40 MLOAD DUP1 SWAP2 SUB SWAP1 RETURN JUMPDEST CALLVALUE DUP1 ISZERO PUSH2 0x5BA JUMPI PUSH1 0x0 DUP1 REVERT JUMPDEST POP PUSH2 0x5C3 PUSH2 0x1545 JUMP JUMPDEST PUSH1 0x40 MLOAD PUSH2 0x5D0 SWAP2 SWAP1 PUSH2 0x4033 JUMP JUMPDEST PUSH1 0x40 MLOAD DUP1 SWAP2 SUB SWAP1 RETURN JUMPDEST CALLVALUE DUP1 ISZERO PUSH2 0x5E5 JUMPI PUSH1 0x0 DUP1 REVERT JUMPDEST POP PUSH2 0x5EE PUSH2 0x1558 JUMP JUMPDEST PUSH1 0x40 MLOAD PUSH2 0x5FB SWAP2 SWAP1 PUSH2 0x404E JUMP JUMPDEST PUSH1 0x40 MLOAD DUP1 SWAP2 SUB SWAP1 RETURN JUMPDEST CALLVALUE DUP1 ISZERO PUSH2 0x610 JUMPI PUSH1 0x0 DUP1 REVERT JUMPDEST POP PUSH2 0x62B PUSH1 0x4 DUP1 CALLDATASIZE SUB DUP2 ADD SWAP1 PUSH2 0x626 SWAP2 SWAP1 PUSH2 0x394F JUMP JUMPDEST PUSH2 0x15E6 JUMP JUMPDEST PUSH1 0x40 MLOAD PUSH2 0x638 SWAP2 SWAP1 PUSH2 0x3FAA JUMP JUMPDEST PUSH1 0x40 MLOAD DUP1 SWAP2 SUB SWAP1 RETURN JUMPDEST CALLVALUE DUP1 ISZERO PUSH2 0x64D JUMPI PUSH1 0x0 DUP1 REVERT JUMPDEST POP PUSH2 0x668 PUSH1 0x4 DUP1 CALLDATASIZE SUB DUP2 ADD SWAP1 PUSH2 0x663 SWAP2 SWAP1 PUSH2 0x36BC JUMP JUMPDEST PUSH2 0x1698 JUMP JUMPDEST PUSH1 0x40 MLOAD PUSH2 0x675 SWAP2 SWAP1 PUSH2 0x43D0 JUMP JUMPDEST PUSH1 0x40 MLOAD DUP1 SWAP2 SUB SWAP1 RETURN JUMPDEST CALLVALUE DUP1 ISZERO PUSH2 0x68A JUMPI PUSH1 0x0 DUP1 REVERT JUMPDEST POP PUSH2 0x693 PUSH2 0x1750 JUMP JUMPDEST STOP JUMPDEST CALLVALUE DUP1 ISZERO PUSH2 0x6A1 JUMPI PUSH1 0x0 DUP1 REVERT JUMPDEST POP PUSH2 0x6BC PUSH1 0x4 DUP1 CALLDATASIZE SUB DUP2 ADD SWAP1 PUSH2 0x6B7 SWAP2 SWAP1 PUSH2 0x3906 JUMP JUMPDEST PUSH2 0x17D8 JUMP JUMPDEST STOP JUMPDEST CALLVALUE DUP1 ISZERO PUSH2 0x6CA JUMPI PUSH1 0x0 DUP1 REVERT JUMPDEST POP PUSH2 0x6D3 PUSH2 0x186E JUMP JUMPDEST PUSH1 0x40 MLOAD PUSH2 0x6E0 SWAP2 SWAP1 PUSH2 0x3FAA JUMP JUMPDEST PUSH1 0x40 MLOAD DUP1 SWAP2 SUB SWAP1 RETURN JUMPDEST CALLVALUE DUP1 ISZERO PUSH2 0x6F5 JUMPI PUSH1 0x0 DUP1 REVERT JUMPDEST POP PUSH2 0x6FE PUSH2 0x1898 JUMP JUMPDEST PUSH1 0x40 MLOAD PUSH2 0x70B SWAP2 SWAP1 PUSH2 0x3FAA JUMP JUMPDEST PUSH1 0x40 MLOAD DUP1 SWAP2 SUB SWAP1 RETURN JUMPDEST CALLVALUE DUP1 ISZERO PUSH2 0x720 JUMPI PUSH1 0x0 DUP1 REVERT JUMPDEST POP PUSH2 0x73B PUSH1 0x4 DUP1 CALLDATASIZE SUB DUP2 ADD SWAP1 PUSH2 0x736 SWAP2 SWAP1 PUSH2 0x394F JUMP JUMPDEST PUSH2 0x18C8 JUMP JUMPDEST STOP JUMPDEST CALLVALUE DUP1 ISZERO PUSH2 0x749 JUMPI PUSH1 0x0 DUP1 REVERT JUMPDEST POP PUSH2 0x752 PUSH2 0x194E JUMP JUMPDEST PUSH1 0x40 MLOAD PUSH2 0x75F SWAP2 SWAP1 PUSH2 0x43D0 JUMP JUMPDEST PUSH1 0x40 MLOAD DUP1 SWAP2 SUB SWAP1 RETURN JUMPDEST CALLVALUE DUP1 ISZERO PUSH2 0x774 JUMPI PUSH1 0x0 DUP1 REVERT JUMPDEST POP PUSH2 0x77D PUSH2 0x1954 JUMP JUMPDEST PUSH1 0x40 MLOAD PUSH2 0x78A SWAP2 SWAP1 PUSH2 0x404E JUMP JUMPDEST PUSH1 0x40 MLOAD DUP1 SWAP2 SUB SWAP1 RETURN JUMPDEST CALLVALUE DUP1 ISZERO PUSH2 0x79F JUMPI PUSH1 0x0 DUP1 REVERT JUMPDEST POP PUSH2 0x7BA PUSH1 0x4 DUP1 CALLDATASIZE SUB DUP2 ADD SWAP1 PUSH2 0x7B5 SWAP2 SWAP1 PUSH2 0x37FF JUMP JUMPDEST PUSH2 0x19E6 JUMP JUMPDEST STOP JUMPDEST CALLVALUE DUP1 ISZERO PUSH2 0x7C8 JUMPI PUSH1 0x0 DUP1 REVERT JUMPDEST POP PUSH2 0x7D1 PUSH2 0x19FC JUMP JUMPDEST PUSH1 0x40 MLOAD PUSH2 0x7DE SWAP2 SWAP1 PUSH2 0x404E JUMP JUMPDEST PUSH1 0x40 MLOAD DUP1 SWAP2 SUB SWAP1 RETURN JUMPDEST PUSH2 0x801 PUSH1 0x4 DUP1 CALLDATASIZE SUB DUP2 ADD SWAP1 PUSH2 0x7FC SWAP2 SWAP1 PUSH2 0x394F JUMP JUMPDEST PUSH2 0x1A8A JUMP JUMPDEST STOP JUMPDEST CALLVALUE DUP1 ISZERO PUSH2 0x80F JUMPI PUSH1 0x0 DUP1 REVERT JUMPDEST POP PUSH2 0x82A PUSH1 0x4 DUP1 CALLDATASIZE SUB DUP2 ADD SWAP1 PUSH2 0x825 SWAP2 SWAP1 PUSH2 0x394F JUMP JUMPDEST PUSH2 0x1D08 JUMP JUMPDEST STOP JUMPDEST CALLVALUE DUP1 ISZERO PUSH2 0x838 JUMPI PUSH1 0x0 DUP1 REVERT JUMPDEST POP PUSH2 0x853 PUSH1 0x4 DUP1 CALLDATASIZE SUB DUP2 ADD SWAP1 PUSH2 0x84E SWAP2 SWAP1 PUSH2 0x377C JUMP JUMPDEST PUSH2 0x1D8E JUMP JUMPDEST STOP JUMPDEST CALLVALUE DUP1 ISZERO PUSH2 0x861 JUMPI PUSH1 0x0 DUP1 REVERT JUMPDEST POP PUSH2 0x86A PUSH2 0x1DF0 JUMP JUMPDEST PUSH1 0x40 MLOAD PUSH2 0x877 SWAP2 SWAP1 PUSH2 0x43D0 JUMP JUMPDEST PUSH1 0x40 MLOAD DUP1 SWAP2 SUB SWAP1 RETURN JUMPDEST CALLVALUE DUP1 ISZERO PUSH2 0x88C JUMPI PUSH1 0x0 DUP1 REVERT JUMPDEST POP PUSH2 0x8A7 PUSH1 0x4 DUP1 CALLDATASIZE SUB DUP2 ADD SWAP1 PUSH2 0x8A2 SWAP2 SWAP1 PUSH2 0x394F JUMP JUMPDEST PUSH2 0x1DF6 JUMP JUMPDEST PUSH1 0x40 MLOAD PUSH2 0x8B4 SWAP2 SWAP1 PUSH2 0x43D0 JUMP JUMPDEST PUSH1 0x40 MLOAD DUP1 SWAP2 SUB SWAP1 RETURN JUMPDEST CALLVALUE DUP1 ISZERO PUSH2 0x8C9 JUMPI PUSH1 0x0 DUP1 REVERT JUMPDEST POP PUSH2 0x8D2 PUSH2 0x1E80 JUMP JUMPDEST STOP JUMPDEST CALLVALUE DUP1 ISZERO PUSH2 0x8E0 JUMPI PUSH1 0x0 DUP1 REVERT JUMPDEST POP PUSH2 0x8FB PUSH1 0x4 DUP1 CALLDATASIZE SUB DUP2 ADD SWAP1 PUSH2 0x8F6 SWAP2 SWAP1 PUSH2 0x394F JUMP JUMPDEST PUSH2 0x1F53 JUMP JUMPDEST PUSH1 0x40 MLOAD PUSH2 0x908 SWAP2 SWAP1 PUSH2 0x404E JUMP JUMPDEST PUSH1 0x40 MLOAD DUP1 SWAP2 SUB SWAP1 RETURN JUMPDEST CALLVALUE DUP1 ISZERO PUSH2 0x91D JUMPI PUSH1 0x0 DUP1 REVERT JUMPDEST POP PUSH2 0x926 PUSH2 0x20AC JUMP JUMPDEST PUSH1 0x40 MLOAD PUSH2 0x933 SWAP2 SWAP1 PUSH2 0x43D0 JUMP JUMPDEST PUSH1 0x40 MLOAD DUP1 SWAP2 SUB SWAP1 RETURN JUMPDEST CALLVALUE DUP1 ISZERO PUSH2 0x948 JUMPI PUSH1 0x0 DUP1 REVERT JUMPDEST POP PUSH2 0x951 PUSH2 0x20B2 JUMP JUMPDEST PUSH1 0x40 MLOAD PUSH2 0x95E SWAP2 SWAP1 PUSH2 0x43D0 JUMP JUMPDEST PUSH1 0x40 MLOAD DUP1 SWAP2 SUB SWAP1 RETURN JUMPDEST CALLVALUE DUP1 ISZERO PUSH2 0x973 JUMPI PUSH1 0x0 DUP1 REVERT JUMPDEST POP PUSH2 0x98E PUSH1 0x4 DUP1 CALLDATASIZE SUB DUP2 ADD SWAP1 PUSH2 0x989 SWAP2 SWAP1 PUSH2 0x387F JUMP JUMPDEST PUSH2 0x20B8 JUMP JUMPDEST STOP JUMPDEST CALLVALUE DUP1 ISZERO PUSH2 0x99C JUMPI PUSH1 0x0 DUP1 REVERT JUMPDEST POP PUSH2 0x9B7 PUSH1 0x4 DUP1 CALLDATASIZE SUB DUP2 ADD SWAP1 PUSH2 0x9B2 SWAP2 SWAP1 PUSH2 0x36E9 JUMP JUMPDEST PUSH2 0x2151 JUMP JUMPDEST PUSH1 0x40 MLOAD PUSH2 0x9C4 SWAP2 SWAP1 PUSH2 0x4033 JUMP JUMPDEST PUSH1 0x40 MLOAD DUP1 SWAP2 SUB SWAP1 RETURN JUMPDEST CALLVALUE DUP1 ISZERO PUSH2 0x9D9 JUMPI PUSH1 0x0 DUP1 REVERT JUMPDEST POP PUSH2 0x9F4 PUSH1 0x4 DUP1 CALLDATASIZE SUB DUP2 ADD SWAP1 PUSH2 0x9EF SWAP2 SWAP1 PUSH2 0x397C JUMP JUMPDEST PUSH2 0x21E5 JUMP JUMPDEST STOP JUMPDEST PUSH2 0x9FE PUSH2 0x226F JUMP JUMPDEST STOP JUMPDEST CALLVALUE DUP1 ISZERO PUSH2 0xA0C JUMPI PUSH1 0x0 DUP1 REVERT JUMPDEST POP PUSH2 0xA27 PUSH1 0x4 DUP1 CALLDATASIZE SUB DUP2 ADD SWAP1 PUSH2 0xA22 SWAP2 SWAP1 PUSH2 0x36BC JUMP JUMPDEST PUSH2 0x241C JUMP JUMPDEST STOP JUMPDEST CALLVALUE DUP1 ISZERO PUSH2 0xA35 JUMPI PUSH1 0x0 DUP1 REVERT JUMPDEST POP PUSH2 0xA50 PUSH1 0x4 DUP1 CALLDATASIZE SUB DUP2 ADD SWAP1 PUSH2 0xA4B SWAP2 SWAP1 PUSH2 0x394F JUMP JUMPDEST PUSH2 0x2514 JUMP JUMPDEST STOP JUMPDEST PUSH1 0x0 PUSH32 0x80AC58CD00000000000000000000000000000000000000000000000000000000 PUSH28 0xFFFFFFFFFFFFFFFFFFFFFFFFFFFFFFFFFFFFFFFFFFFFFFFFFFFFFFFF NOT AND DUP3 PUSH28 0xFFFFFFFFFFFFFFFFFFFFFFFFFFFFFFFFFFFFFFFFFFFFFFFFFFFFFFFF NOT AND EQ DUP1 PUSH2 0xB1D JUMPI POP PUSH32 0x5B5E139F00000000000000000000000000000000000000000000000000000000 PUSH28 0xFFFFFFFFFFFFFFFFFFFFFFFFFFFFFFFFFFFFFFFFFFFFFFFFFFFFFFFF NOT AND DUP3 PUSH28 0xFFFFFFFFFFFFFFFFFFFFFFFFFFFFFFFFFFFFFFFFFFFFFFFFFFFFFFFF NOT AND EQ JUMPDEST DUP1 PUSH2 0xB2D JUMPI POP PUSH2 0xB2C DUP3 PUSH2 0x2570 JUMP JUMPDEST JUMPDEST SWAP1 POP SWAP2 SWAP1 POP JUMP JUMPDEST PUSH1 0x60 PUSH1 0x0 DUP1 SLOAD PUSH2 0xB43 SWAP1 PUSH2 0x484A JUMP JUMPDEST DUP1 PUSH1 0x1F ADD PUSH1 0x20 DUP1 SWAP2 DIV MUL PUSH1 0x20 ADD PUSH1 0x40 MLOAD SWAP1 DUP2 ADD PUSH1 0x40 MSTORE DUP1 SWAP3 SWAP2 SWAP1 DUP2 DUP2 MSTORE PUSH1 0x20 ADD DUP3 DUP1 SLOAD PUSH2 0xB6F SWAP1 PUSH2 0x484A JUMP JUMPDEST DUP1 ISZERO PUSH2 0xBBC JUMPI DUP1 PUSH1 0x1F LT PUSH2 0xB91 JUMPI PUSH2 0x100 DUP1 DUP4 SLOAD DIV MUL DUP4 MSTORE SWAP2 PUSH1 0x20 ADD SWAP2 PUSH2 0xBBC JUMP JUMPDEST DUP3 ADD SWAP2 SWAP1 PUSH1 0x0 MSTORE PUSH1 0x20 PUSH1 0x0 KECCAK256 SWAP1 JUMPDEST DUP2 SLOAD DUP2 MSTORE SWAP1 PUSH1 0x1 ADD SWAP1 PUSH1 0x20 ADD DUP1 DUP4 GT PUSH2 0xB9F JUMPI DUP3 SWAP1 SUB PUSH1 0x1F AND DUP3 ADD SWAP2 JUMPDEST POP POP POP POP POP SWAP1 POP SWAP1 JUMP JUMPDEST PUSH1 0x0 PUSH2 0xBD1 DUP3 PUSH2 0x25DA JUMP JUMPDEST PUSH2 0xC10 JUMPI PUSH1 0x40 MLOAD PUSH32 0x8C379A000000000000000000000000000000000000000000000000000000000 DUP2 MSTORE PUSH1 0x4 ADD PUSH2 0xC07 SWAP1 PUSH2 0x42B0 JUMP JUMPDEST PUSH1 0x40 MLOAD DUP1 SWAP2 SUB SWAP1 REVERT JUMPDEST PUSH1 0x4 PUSH1 0x0 DUP4 DUP2 MSTORE PUSH1 0x20 ADD SWAP1 DUP2 MSTORE PUSH1 0x20 ADD PUSH1 0x0 KECCAK256 PUSH1 0x0 SWAP1 SLOAD SWAP1 PUSH2 0x100 EXP SWAP1 DIV PUSH20 0xFFFFFFFFFFFFFFFFFFFFFFFFFFFFFFFFFFFFFFFF AND SWAP1 POP SWAP2 SWAP1 POP JUMP JUMPDEST PUSH1 0x0 PUSH2 0xC56 DUP3 PUSH2 0x15E6 JUMP JUMPDEST SWAP1 POP DUP1 PUSH20 0xFFFFFFFFFFFFFFFFFFFFFFFFFFFFFFFFFFFFFFFF AND DUP4 PUSH20 0xFFFFFFFFFFFFFFFFFFFFFFFFFFFFFFFFFFFFFFFF AND EQ ISZERO PUSH2 0xCC7 JUMPI PUSH1 0x40 MLOAD PUSH32 0x8C379A000000000000000000000000000000000000000000000000000000000 DUP2 MSTORE PUSH1 0x4 ADD PUSH2 0xCBE SWAP1 PUSH2 0x4330 JUMP JUMPDEST PUSH1 0x40 MLOAD DUP1 SWAP2 SUB SWAP1 REVERT JUMPDEST DUP1 PUSH20 0xFFFFFFFFFFFFFFFFFFFFFFFFFFFFFFFFFFFFFFFF AND PUSH2 0xCE6 PUSH2 0x2646 JUMP JUMPDEST PUSH20 0xFFFFFFFFFFFFFFFFFFFFFFFFFFFFFFFFFFFFFFFF AND EQ DUP1 PUSH2 0xD15 JUMPI POP PUSH2 0xD14 DUP2 PUSH2 0xD0F PUSH2 0x2646 JUMP JUMPDEST PUSH2 0x2151 JUMP JUMPDEST JUMPDEST PUSH2 0xD54 JUMPI PUSH1 0x40 MLOAD PUSH32 0x8C379A000000000000000000000000000000000000000000000000000000000 DUP2 MSTORE PUSH1 0x4 ADD PUSH2 0xD4B SWAP1 PUSH2 0x4210 JUMP JUMPDEST PUSH1 0x40 MLOAD DUP1 SWAP2 SUB SWAP1 REVERT JUMPDEST PUSH2 0xD5E DUP4 DUP4 PUSH2 0x264E JUMP JUMPDEST POP POP POP JUMP JUMPDEST PUSH1 0xD SLOAD DUP2 JUMP JUMPDEST PUSH1 0xE SLOAD DUP2 JUMP JUMPDEST PUSH2 0xD77 PUSH2 0x2646 JUMP JUMPDEST PUSH20 0xFFFFFFFFFFFFFFFFFFFFFFFFFFFFFFFFFFFFFFFF AND PUSH2 0xD95 PUSH2 0x186E JUMP JUMPDEST PUSH20 0xFFFFFFFFFFFFFFFFFFFFFFFFFFFFFFFFFFFFFFFF AND EQ PUSH2 0xDEB JUMPI PUSH1 0x40 MLOAD PUSH32 0x8C379A000000000000000000000000000000000000000000000000000000000 DUP2 MSTORE PUSH1 0x4 ADD PUSH2 0xDE2 SWAP1 PUSH2 0x42D0 JUMP JUMPDEST PUSH1 0x40 MLOAD DUP1 SWAP2 SUB SWAP1 REVERT JUMPDEST DUP1 PUSH1 0xA SWAP1 DUP1 MLOAD SWAP1 PUSH1 0x20 ADD SWAP1 PUSH2 0xE01 SWAP3 SWAP2 SWAP1 PUSH2 0x34D0 JUMP JUMPDEST POP POP JUMP JUMPDEST PUSH2 0xE0D PUSH2 0x2646 JUMP JUMPDEST PUSH20 0xFFFFFFFFFFFFFFFFFFFFFFFFFFFFFFFFFFFFFFFF AND PUSH2 0xE2B PUSH2 0x186E JUMP JUMPDEST PUSH20 0xFFFFFFFFFFFFFFFFFFFFFFFFFFFFFFFFFFFFFFFF AND EQ PUSH2 0xE81 JUMPI PUSH1 0x40 MLOAD PUSH32 0x8C379A000000000000000000000000000000000000000000000000000000000 DUP2 MSTORE PUSH1 0x4 ADD PUSH2 0xE78 SWAP1 PUSH2 0x42D0 JUMP JUMPDEST PUSH1 0x40 MLOAD DUP1 SWAP2 SUB SWAP1 REVERT JUMPDEST DUP1 PUSH1 0x13 PUSH1 0x0 PUSH2 0x100 EXP DUP2 SLOAD DUP2 PUSH1 0xFF MUL NOT AND SWAP1 DUP4 ISZERO ISZERO MUL OR SWAP1 SSTORE POP POP JUMP JUMPDEST PUSH1 0x0 PUSH2 0xEAA PUSH1 0x8 PUSH2 0x2707 JUMP JUMPDEST SWAP1 POP SWAP1 JUMP JUMPDEST PUSH1 0x12 PUSH1 0x20 MSTORE DUP1 PUSH1 0x0 MSTORE PUSH1 0x40 PUSH1 0x0 KECCAK256 PUSH1 0x0 SWAP2 POP SWAP1 POP SLOAD DUP2 JUMP JUMPDEST PUSH2 0xED8 PUSH2 0xED2 PUSH2 0x2646 JUMP JUMPDEST DUP3 PUSH2 0x2715 JUMP JUMPDEST PUSH2 0xF17 JUMPI PUSH1 0x40 MLOAD PUSH32 0x8C379A000000000000000000000000000000000000000000000000000000000 DUP2 MSTORE PUSH1 0x4 ADD PUSH2 0xF0E SWAP1 PUSH2 0x4350 JUMP JUMPDEST PUSH1 0x40 MLOAD DUP1 SWAP2 SUB SWAP1 REVERT JUMPDEST PUSH2 0xF22 DUP4 DUP4 DUP4 PUSH2 0x27F3 JUMP JUMPDEST POP POP POP JUMP JUMPDEST PUSH2 0xF2F PUSH2 0x2646 JUMP JUMPDEST PUSH20 0xFFFFFFFFFFFFFFFFFFFFFFFFFFFFFFFFFFFFFFFF AND PUSH2 0xF4D PUSH2 0x186E JUMP JUMPDEST PUSH20 0xFFFFFFFFFFFFFFFFFFFFFFFFFFFFFFFFFFFFFFFF AND EQ PUSH2 0xFA3 JUMPI PUSH1 0x40 MLOAD PUSH32 0x8C379A000000000000000000000000000000000000000000000000000000000 DUP2 MSTORE PUSH1 0x4 ADD PUSH2 0xF9A SWAP1 PUSH2 0x42D0 JUMP JUMPDEST PUSH1 0x40 MLOAD DUP1 SWAP2 SUB SWAP1 REVERT JUMPDEST PUSH1 0x11 SLOAD TIMESTAMP LT ISZERO PUSH2 0xFE8 JUMPI PUSH1 0x40 MLOAD PUSH32 0x8C379A000000000000000000000000000000000000000000000000000000000 DUP2 MSTORE PUSH1 0x4 ADD PUSH2 0xFDF SWAP1 PUSH2 0x4070 JUMP JUMPDEST PUSH1 0x40 MLOAD DUP1 SWAP2 SUB SWAP1 REVERT JUMPDEST PUSH1 0x0 SELFBALANCE SWAP1 POP PUSH1 0x0 PUSH2 0xFF7 PUSH2 0x1898 JUMP JUMPDEST PUSH20 0xFFFFFFFFFFFFFFFFFFFFFFFFFFFFFFFFFFFFFFFF AND PUSH1 0x64 PUSH1 0x37 DUP5 PUSH2 0x101C SWAP2 SWAP1 PUSH2 0x4706 JUMP JUMPDEST PUSH2 0x1026 SWAP2 SWAP1 PUSH2 0x4564 JUMP JUMPDEST PUSH1 0x40 MLOAD PUSH2 0x1032 SWAP1 PUSH2 0x3F95 JUMP JUMPDEST PUSH1 0x0 PUSH1 0x40 MLOAD DUP1 DUP4 SUB DUP2 DUP6 DUP8 GAS CALL SWAP3 POP POP POP RETURNDATASIZE DUP1 PUSH1 0x0 DUP2 EQ PUSH2 0x106F JUMPI PUSH1 0x40 MLOAD SWAP2 POP PUSH1 0x1F NOT PUSH1 0x3F RETURNDATASIZE ADD AND DUP3 ADD PUSH1 0x40 MSTORE RETURNDATASIZE DUP3 MSTORE RETURNDATASIZE PUSH1 0x0 PUSH1 0x20 DUP5 ADD RETURNDATACOPY PUSH2 0x1074 JUMP JUMPDEST PUSH1 0x60 SWAP2 POP JUMPDEST POP POP SWAP1 POP DUP1 PUSH2 0x1082 JUMPI PUSH1 0x0 DUP1 REVERT JUMPDEST PUSH1 0x0 PUSH2 0x1096 PUSH2 0x1091 PUSH1 0x8 PUSH2 0x2707 JUMP JUMPDEST PUSH2 0x15E6 JUMP JUMPDEST PUSH20 0xFFFFFFFFFFFFFFFFFFFFFFFFFFFFFFFFFFFFFFFF AND PUSH1 0x64 PUSH1 0x5 DUP6 PUSH2 0x10BB SWAP2 SWAP1 PUSH2 0x4706 JUMP JUMPDEST PUSH2 0x10C5 SWAP2 SWAP1 PUSH2 0x4564 JUMP JUMPDEST PUSH1 0x40 MLOAD PUSH2 0x10D1 SWAP1 PUSH2 0x3F95 JUMP JUMPDEST PUSH1 0x0 PUSH1 0x40 MLOAD DUP1 DUP4 SUB DUP2 DUP6 DUP8 GAS CALL SWAP3 POP POP POP RETURNDATASIZE DUP1 PUSH1 0x0 DUP2 EQ PUSH2 0x110E JUMPI PUSH1 0x40 MLOAD SWAP2 POP PUSH1 0x1F NOT PUSH1 0x3F RETURNDATASIZE ADD AND DUP3 ADD PUSH1 0x40 MSTORE RETURNDATASIZE DUP3 MSTORE RETURNDATASIZE PUSH1 0x0 PUSH1 0x20 DUP5 ADD RETURNDATACOPY PUSH2 0x1113 JUMP JUMPDEST PUSH1 0x60 SWAP2 POP JUMPDEST POP POP SWAP1 POP DUP1 PUSH2 0x1121 JUMPI PUSH1 0x0 DUP1 REVERT JUMPDEST PUSH1 0x0 PUSH20 0xC7BAE424C11E1EF9A005AEE8185E973116FC5A9E PUSH20 0xFFFFFFFFFFFFFFFFFFFFFFFFFFFFFFFFFFFFFFFF AND PUSH1 0x64 PUSH1 0xA DUP7 PUSH2 0x115D SWAP2 SWAP1 PUSH2 0x4706 JUMP JUMPDEST PUSH2 0x1167 SWAP2 SWAP1 PUSH2 0x4564 JUMP JUMPDEST PUSH1 0x40 MLOAD PUSH2 0x1173 SWAP1 PUSH2 0x3F95 JUMP JUMPDEST PUSH1 0x0 PUSH1 0x40 MLOAD DUP1 DUP4 SUB DUP2 DUP6 DUP8 GAS CALL SWAP3 POP POP POP RETURNDATASIZE DUP1 PUSH1 0x0 DUP2 EQ PUSH2 0x11B0 JUMPI PUSH1 0x40 MLOAD SWAP2 POP PUSH1 0x1F NOT PUSH1 0x3F RETURNDATASIZE ADD AND DUP3 ADD PUSH1 0x40 MSTORE RETURNDATASIZE DUP3 MSTORE RETURNDATASIZE PUSH1 0x0 PUSH1 0x20 DUP5 ADD RETURNDATACOPY PUSH2 0x11B5 JUMP JUMPDEST PUSH1 0x60 SWAP2 POP JUMPDEST POP POP SWAP1 POP DUP1 PUSH2 0x11C3 JUMPI PUSH1 0x0 DUP1 REVERT JUMPDEST PUSH1 0x0 PUSH2 0x11CD PUSH2 0x186E JUMP JUMPDEST PUSH20 0xFFFFFFFFFFFFFFFFFFFFFFFFFFFFFFFFFFFFFFFF AND SELFBALANCE PUSH1 0x40 MLOAD PUSH2 0x11F0 SWAP1 PUSH2 0x3F95 JUMP JUMPDEST PUSH1 0x0 PUSH1 0x40 MLOAD DUP1 DUP4 SUB DUP2 DUP6 DUP8 GAS CALL SWAP3 POP POP POP RETURNDATASIZE DUP1 PUSH1 0x0 DUP2 EQ PUSH2 0x122D JUMPI PUSH1 0x40 MLOAD SWAP2 POP PUSH1 0x1F NOT PUSH1 0x3F RETURNDATASIZE ADD AND DUP3 ADD PUSH1 0x40 MSTORE RETURNDATASIZE DUP3 MSTORE RETURNDATASIZE PUSH1 0x0 PUSH1 0x20 DUP5 ADD RETURNDATACOPY PUSH2 0x1232 JUMP JUMPDEST PUSH1 0x60 SWAP2 POP JUMPDEST POP POP SWAP1 POP DUP1 PUSH2 0x1240 JUMPI PUSH1 0x0 DUP1 REVERT JUMPDEST POP POP POP POP POP JUMP JUMPDEST PUSH2 0x1262 DUP4 DUP4 DUP4 PUSH1 0x40 MLOAD DUP1 PUSH1 0x20 ADD PUSH1 0x40 MSTORE DUP1 PUSH1 0x0 DUP2 MSTORE POP PUSH2 0x1D8E JUMP JUMPDEST POP POP POP JUMP JUMPDEST PUSH1 0x60 PUSH1 0x0 PUSH2 0x1274 DUP4 PUSH2 0x1698 JUMP JUMPDEST SWAP1 POP PUSH1 0x0 DUP2 PUSH8 0xFFFFFFFFFFFFFFFF DUP2 GT ISZERO PUSH2 0x1292 JUMPI PUSH2 0x1291 PUSH2 0x49E3 JUMP JUMPDEST JUMPDEST PUSH1 0x40 MLOAD SWAP1 DUP1 DUP3 MSTORE DUP1 PUSH1 0x20 MUL PUSH1 0x20 ADD DUP3 ADD PUSH1 0x40 MSTORE DUP1 ISZERO PUSH2 0x12C0 JUMPI DUP2 PUSH1 0x20 ADD PUSH1 0x20 DUP3 MUL DUP1 CALLDATASIZE DUP4 CALLDATACOPY DUP1 DUP3 ADD SWAP2 POP POP SWAP1 POP JUMPDEST POP SWAP1 POP PUSH1 0x0 PUSH1 0x1 SWAP1 POP PUSH1 0x0 JUMPDEST DUP4 DUP2 LT DUP1 ISZERO PUSH2 0x12E4 JUMPI POP PUSH2 0x12E0 PUSH1 0x8 PUSH2 0x2707 JUMP JUMPDEST DUP3 GT ISZERO JUMPDEST ISZERO PUSH2 0x137C JUMPI PUSH2 0x12F2 DUP3 PUSH2 0x25DA JUMP JUMPDEST ISZERO PUSH2 0x1369 JUMPI PUSH1 0x0 PUSH2 0x1302 DUP4 PUSH2 0x15E6 JUMP JUMPDEST SWAP1 POP DUP7 PUSH20 0xFFFFFFFFFFFFFFFFFFFFFFFFFFFFFFFFFFFFFFFF AND DUP2 PUSH20 0xFFFFFFFFFFFFFFFFFFFFFFFFFFFFFFFFFFFFFFFF AND EQ ISZERO PUSH2 0x1367 JUMPI DUP3 DUP5 DUP4 DUP2 MLOAD DUP2 LT PUSH2 0x134C JUMPI PUSH2 0x134B PUSH2 0x49B4 JUMP JUMPDEST JUMPDEST PUSH1 0x20 MUL PUSH1 0x20 ADD ADD DUP2 DUP2 MSTORE POP POP DUP2 DUP1 PUSH2 0x1363 SWAP1 PUSH2 0x48AD JUMP JUMPDEST SWAP3 POP POP JUMPDEST POP JUMPDEST DUP2 DUP1 PUSH2 0x1374 SWAP1 PUSH2 0x48AD JUMP JUMPDEST SWAP3 POP POP PUSH2 0x12CC JUMP JUMPDEST DUP3 SWAP5 POP POP POP POP POP SWAP2 SWAP1 POP JUMP JUMPDEST PUSH2 0x1390 PUSH2 0x2646 JUMP JUMPDEST PUSH20 0xFFFFFFFFFFFFFFFFFFFFFFFFFFFFFFFFFFFFFFFF AND PUSH2 0x13AE PUSH2 0x186E JUMP JUMPDEST PUSH20 0xFFFFFFFFFFFFFFFFFFFFFFFFFFFFFFFFFFFFFFFF AND EQ PUSH2 0x1404 JUMPI PUSH1 0x40 MLOAD PUSH32 0x8C379A000000000000000000000000000000000000000000000000000000000 DUP2 MSTORE PUSH1 0x4 ADD PUSH2 0x13FB SWAP1 PUSH2 0x42D0 JUMP JUMPDEST PUSH1 0x40 MLOAD DUP1 SWAP2 SUB SWAP1 REVERT JUMPDEST DUP1 PUSH1 0xE DUP2 SWAP1 SSTORE POP POP JUMP JUMPDEST PUSH2 0x1416 PUSH2 0x2646 JUMP JUMPDEST PUSH20 0xFFFFFFFFFFFFFFFFFFFFFFFFFFFFFFFFFFFFFFFF AND PUSH2 0x1434 PUSH2 0x186E JUMP JUMPDEST PUSH20 0xFFFFFFFFFFFFFFFFFFFFFFFFFFFFFFFFFFFFFFFF AND EQ PUSH2 0x148A JUMPI PUSH1 0x40 MLOAD PUSH32 0x8C379A000000000000000000000000000000000000000000000000000000000 DUP2 MSTORE PUSH1 0x4 ADD PUSH2 0x1481 SWAP1 PUSH2 0x42D0 JUMP JUMPDEST PUSH1 0x40 MLOAD DUP1 SWAP2 SUB SWAP1 REVERT JUMPDEST DUP1 PUSH1 0xB SWAP1 DUP1 MLOAD SWAP1 PUSH1 0x20 ADD SWAP1 PUSH2 0x14A0 SWAP3 SWAP2 SWAP1 PUSH2 0x34D0 JUMP JUMPDEST POP POP JUMP JUMPDEST PUSH1 0x13 PUSH1 0x1 SWAP1 SLOAD SWAP1 PUSH2 0x100 EXP SWAP1 DIV PUSH1 0xFF AND DUP2 JUMP JUMPDEST PUSH1 0xA DUP1 SLOAD PUSH2 0x14C4 SWAP1 PUSH2 0x484A JUMP JUMPDEST DUP1 PUSH1 0x1F ADD PUSH1 0x20 DUP1 SWAP2 DIV MUL PUSH1 0x20 ADD PUSH1 0x40 MLOAD SWAP1 DUP2 ADD PUSH1 0x40 MSTORE DUP1 SWAP3 SWAP2 SWAP1 DUP2 DUP2 MSTORE PUSH1 0x20 ADD DUP3 DUP1 SLOAD PUSH2 0x14F0 SWAP1 PUSH2 0x484A JUMP JUMPDEST DUP1 ISZERO PUSH2 0x153D JUMPI DUP1 PUSH1 0x1F LT PUSH2 0x1512 JUMPI PUSH2 0x100 DUP1 DUP4 SLOAD DIV MUL DUP4 MSTORE SWAP2 PUSH1 0x20 ADD SWAP2 PUSH2 0x153D JUMP JUMPDEST DUP3 ADD SWAP2 SWAP1 PUSH1 0x0 MSTORE PUSH1 0x20 PUSH1 0x0 KECCAK256 SWAP1 JUMPDEST DUP2 SLOAD DUP2 MSTORE SWAP1 PUSH1 0x1 ADD SWAP1 PUSH1 0x20 ADD DUP1 DUP4 GT PUSH2 0x1520 JUMPI DUP3 SWAP1 SUB PUSH1 0x1F AND DUP3 ADD SWAP2 JUMPDEST POP POP POP POP POP DUP2 JUMP JUMPDEST PUSH1 0x13 PUSH1 0x0 SWAP1 SLOAD SWAP1 PUSH2 0x100 EXP SWAP1 DIV PUSH1 0xFF AND DUP2 JUMP JUMPDEST PUSH1 0x9 DUP1 SLOAD PUSH2 0x1565 SWAP1 PUSH2 0x484A JUMP JUMPDEST DUP1 PUSH1 0x1F ADD PUSH1 0x20 DUP1 SWAP2 DIV MUL PUSH1 0x20 ADD PUSH1 0x40 MLOAD SWAP1 DUP2 ADD PUSH1 0x40 MSTORE DUP1 SWAP3 SWAP2 SWAP1 DUP2 DUP2 MSTORE PUSH1 0x20 ADD DUP3 DUP1 SLOAD PUSH2 0x1591 SWAP1 PUSH2 0x484A JUMP JUMPDEST DUP1 ISZERO PUSH2 0x15DE JUMPI DUP1 PUSH1 0x1F LT PUSH2 0x15B3 JUMPI PUSH2 0x100 DUP1 DUP4 SLOAD DIV MUL DUP4 MSTORE SWAP2 PUSH1 0x20 ADD SWAP2 PUSH2 0x15DE JUMP JUMPDEST DUP3 ADD SWAP2 SWAP1 PUSH1 0x0 MSTORE PUSH1 0x20 PUSH1 0x0 KECCAK256 SWAP1 JUMPDEST DUP2 SLOAD DUP2 MSTORE SWAP1 PUSH1 0x1 ADD SWAP1 PUSH1 0x20 ADD DUP1 DUP4 GT PUSH2 0x15C1 JUMPI DUP3 SWAP1 SUB PUSH1 0x1F AND DUP3 ADD SWAP2 JUMPDEST POP POP POP POP POP DUP2 JUMP JUMPDEST PUSH1 0x0 DUP1 PUSH1 0x2 PUSH1 0x0 DUP5 DUP2 MSTORE PUSH1 0x20 ADD SWAP1 DUP2 MSTORE PUSH1 0x20 ADD PUSH1 0x0 KECCAK256 PUSH1 0x0 SWAP1 SLOAD SWAP1 PUSH2 0x100 EXP SWAP1 DIV PUSH20 0xFFFFFFFFFFFFFFFFFFFFFFFFFFFFFFFFFFFFFFFF AND SWAP1 POP PUSH1 0x0 PUSH20 0xFFFFFFFFFFFFFFFFFFFFFFFFFFFFFFFFFFFFFFFF AND DUP2 PUSH20 0xFFFFFFFFFFFFFFFFFFFFFFFFFFFFFFFFFFFFFFFF AND EQ ISZERO PUSH2 0x168F JUMPI PUSH1 0x40 MLOAD PUSH32 0x8C379A000000000000000000000000000000000000000000000000000000000 DUP2 MSTORE PUSH1 0x4 ADD PUSH2 0x1686 SWAP1 PUSH2 0x4250 JUMP JUMPDEST PUSH1 0x40 MLOAD DUP1 SWAP2 SUB SWAP1 REVERT JUMPDEST DUP1 SWAP2 POP POP SWAP2 SWAP1 POP JUMP JUMPDEST PUSH1 0x0 DUP1 PUSH20 0xFFFFFFFFFFFFFFFFFFFFFFFFFFFFFFFFFFFFFFFF AND DUP3 PUSH20 0xFFFFFFFFFFFFFFFFFFFFFFFFFFFFFFFFFFFFFFFF AND EQ ISZERO PUSH2 0x1709 JUMPI PUSH1 0x40 MLOAD PUSH32 0x8C379A000000000000000000000000000000000000000000000000000000000 DUP2 MSTORE PUSH1 0x4 ADD PUSH2 0x1700 SWAP1 PUSH2 0x4230 JUMP JUMPDEST PUSH1 0x40 MLOAD DUP1 SWAP2 SUB SWAP1 REVERT JUMPDEST PUSH1 0x3 PUSH1 0x0 DUP4 PUSH20 0xFFFFFFFFFFFFFFFFFFFFFFFFFFFFFFFFFFFFFFFF AND PUSH20 0xFFFFFFFFFFFFFFFFFFFFFFFFFFFFFFFFFFFFFFFF AND DUP2 MSTORE PUSH1 0x20 ADD SWAP1 DUP2 MSTORE PUSH1 0x20 ADD PUSH1 0x0 KECCAK256 SLOAD SWAP1 POP SWAP2 SWAP1 POP JUMP JUMPDEST PUSH2 0x1758 PUSH2 0x2646 JUMP JUMPDEST PUSH20 0xFFFFFFFFFFFFFFFFFFFFFFFFFFFFFFFFFFFFFFFF AND PUSH2 0x1776 PUSH2 0x186E JUMP JUMPDEST PUSH20 0xFFFFFFFFFFFFFFFFFFFFFFFFFFFFFFFFFFFFFFFF AND EQ PUSH2 0x17CC JUMPI PUSH1 0x40 MLOAD PUSH32 0x8C379A000000000000000000000000000000000000000000000000000000000 DUP2 MSTORE PUSH1 0x4 ADD PUSH2 0x17C3 SWAP1 PUSH2 0x42D0 JUMP JUMPDEST PUSH1 0x40 MLOAD DUP1 SWAP2 SUB SWAP1 REVERT JUMPDEST PUSH2 0x17D6 PUSH1 0x0 PUSH2 0x2A5A JUMP JUMPDEST JUMP JUMPDEST PUSH2 0x17E0 PUSH2 0x2646 JUMP JUMPDEST PUSH20 0xFFFFFFFFFFFFFFFFFFFFFFFFFFFFFFFFFFFFFFFF AND PUSH2 0x17FE PUSH2 0x186E JUMP JUMPDEST PUSH20 0xFFFFFFFFFFFFFFFFFFFFFFFFFFFFFFFFFFFFFFFF AND EQ PUSH2 0x1854 JUMPI PUSH1 0x40 MLOAD PUSH32 0x8C379A000000000000000000000000000000000000000000000000000000000 DUP2 MSTORE PUSH1 0x4 ADD PUSH2 0x184B SWAP1 PUSH2 0x42D0 JUMP JUMPDEST PUSH1 0x40 MLOAD DUP1 SWAP2 SUB SWAP1 REVERT JUMPDEST DUP1 PUSH1 0x9 SWAP1 DUP1 MLOAD SWAP1 PUSH1 0x20 ADD SWAP1 PUSH2 0x186A SWAP3 SWAP2 SWAP1 PUSH2 0x34D0 JUMP JUMPDEST POP POP JUMP JUMPDEST PUSH1 0x0 PUSH1 0x6 PUSH1 0x0 SWAP1 SLOAD SWAP1 PUSH2 0x100 EXP SWAP1 DIV PUSH20 0xFFFFFFFFFFFFFFFFFFFFFFFFFFFFFFFFFFFFFFFF AND SWAP1 POP SWAP1 JUMP JUMPDEST PUSH1 0x0 DUP1 PUSH1 0x1 PUSH2 0x18A7 PUSH1 0x8 PUSH2 0x2707 JUMP JUMPDEST PUSH2 0x18B1 SWAP2 SWAP1 PUSH2 0x4760 JUMP JUMPDEST SWAP1 POP PUSH1 0x0 PUSH2 0x18BE DUP3 PUSH2 0x15E6 JUMP JUMPDEST SWAP1 POP DUP1 SWAP3 POP POP POP SWAP1 JUMP JUMPDEST PUSH2 0x18D0 PUSH2 0x2646 JUMP JUMPDEST PUSH20 0xFFFFFFFFFFFFFFFFFFFFFFFFFFFFFFFFFFFFFFFF AND PUSH2 0x18EE PUSH2 0x186E JUMP JUMPDEST PUSH20 0xFFFFFFFFFFFFFFFFFFFFFFFFFFFFFFFFFFFFFFFF AND EQ PUSH2 0x1944 JUMPI PUSH1 0x40 MLOAD PUSH32 0x8C379A000000000000000000000000000000000000000000000000000000000 DUP2 MSTORE PUSH1 0x4 ADD PUSH2 0x193B SWAP1 PUSH2 0x42D0 JUMP JUMPDEST PUSH1 0x40 MLOAD DUP1 SWAP2 SUB SWAP1 REVERT JUMPDEST DUP1 PUSH1 0x10 DUP2 SWAP1 SSTORE POP POP JUMP JUMPDEST PUSH1 0xF SLOAD DUP2 JUMP JUMPDEST PUSH1 0x60 PUSH1 0x1 DUP1 SLOAD PUSH2 0x1963 SWAP1 PUSH2 0x484A JUMP JUMPDEST DUP1 PUSH1 0x1F ADD PUSH1 0x20 DUP1 SWAP2 DIV MUL PUSH1 0x20 ADD PUSH1 0x40 MLOAD SWAP1 DUP2 ADD PUSH1 0x40 MSTORE DUP1 SWAP3 SWAP2 SWAP1 DUP2 DUP2 MSTORE PUSH1 0x20 ADD DUP3 DUP1 SLOAD PUSH2 0x198F SWAP1 PUSH2 0x484A JUMP JUMPDEST DUP1 ISZERO PUSH2 0x19DC JUMPI DUP1 PUSH1 0x1F LT PUSH2 0x19B1 JUMPI PUSH2 0x100 DUP1 DUP4 SLOAD DIV MUL DUP4 MSTORE SWAP2 PUSH1 0x20 ADD SWAP2 PUSH2 0x19DC JUMP JUMPDEST DUP3 ADD SWAP2 SWAP1 PUSH1 0x0 MSTORE PUSH1 0x20 PUSH1 0x0 KECCAK256 SWAP1 JUMPDEST DUP2 SLOAD DUP2 MSTORE SWAP1 PUSH1 0x1 ADD SWAP1 PUSH1 0x20 ADD DUP1 DUP4 GT PUSH2 0x19BF JUMPI DUP3 SWAP1 SUB PUSH1 0x1F AND DUP3 ADD SWAP2 JUMPDEST POP POP POP POP POP SWAP1 POP SWAP1 JUMP JUMPDEST PUSH2 0x19F8 PUSH2 0x19F1 PUSH2 0x2646 JUMP JUMPDEST DUP4 DUP4 PUSH2 0x2B20 JUMP JUMPDEST POP POP JUMP JUMPDEST PUSH1 0xB DUP1 SLOAD PUSH2 0x1A09 SWAP1 PUSH2 0x484A JUMP JUMPDEST DUP1 PUSH1 0x1F ADD PUSH1 0x20 DUP1 SWAP2 DIV MUL PUSH1 0x20 ADD PUSH1 0x40 MLOAD SWAP1 DUP2 ADD PUSH1 0x40 MSTORE DUP1 SWAP3 SWAP2 SWAP1 DUP2 DUP2 MSTORE PUSH1 0x20 ADD DUP3 DUP1 SLOAD PUSH2 0x1A35 SWAP1 PUSH2 0x484A JUMP JUMPDEST DUP1 ISZERO PUSH2 0x1A82 JUMPI DUP1 PUSH1 0x1F LT PUSH2 0x1A57 JUMPI PUSH2 0x100 DUP1 DUP4 SLOAD DIV MUL DUP4 MSTORE SWAP2 PUSH1 0x20 ADD SWAP2 PUSH2 0x1A82 JUMP JUMPDEST DUP3 ADD SWAP2 SWAP1 PUSH1 0x0 MSTORE PUSH1 0x20 PUSH1 0x0 KECCAK256 SWAP1 JUMPDEST DUP2 SLOAD DUP2 MSTORE SWAP1 PUSH1 0x1 ADD SWAP1 PUSH1 0x20 ADD DUP1 DUP4 GT PUSH2 0x1A65 JUMPI DUP3 SWAP1 SUB PUSH1 0x1F AND DUP3 ADD SWAP2 JUMPDEST POP POP POP POP POP DUP2 JUMP JUMPDEST PUSH1 0x2 PUSH1 0x7 SLOAD EQ ISZERO PUSH2 0x1AD0 JUMPI PUSH1 0x40 MLOAD PUSH32 0x8C379A000000000000000000000000000000000000000000000000000000000 DUP2 MSTORE PUSH1 0x4 ADD PUSH2 0x1AC7 SWAP1 PUSH2 0x4370 JUMP JUMPDEST PUSH1 0x40 MLOAD DUP1 SWAP2 SUB SWAP1 REVERT JUMPDEST PUSH1 0x2 PUSH1 0x7 DUP2 SWAP1 SSTORE POP DUP1 PUSH1 0x0 DUP2 GT DUP1 ISZERO PUSH2 0x1AEB JUMPI POP PUSH1 0xF SLOAD DUP2 GT ISZERO JUMPDEST PUSH2 0x1B2A JUMPI PUSH1 0x40 MLOAD PUSH32 0x8C379A000000000000000000000000000000000000000000000000000000000 DUP2 MSTORE PUSH1 0x4 ADD PUSH2 0x1B21 SWAP1 PUSH2 0x4130 JUMP JUMPDEST PUSH1 0x40 MLOAD DUP1 SWAP2 SUB SWAP1 REVERT JUMPDEST PUSH1 0x10 SLOAD PUSH1 0x12 PUSH1 0x0 CALLER PUSH20 0xFFFFFFFFFFFFFFFFFFFFFFFFFFFFFFFFFFFFFFFF AND PUSH20 0xFFFFFFFFFFFFFFFFFFFFFFFFFFFFFFFFFFFFFFFF AND DUP2 MSTORE PUSH1 0x20 ADD SWAP1 DUP2 MSTORE PUSH1 0x20 ADD PUSH1 0x0 KECCAK256 SLOAD DUP3 PUSH2 0x1B78 SWAP2 SWAP1 PUSH2 0x450E JUMP JUMPDEST GT ISZERO PUSH2 0x1BB9 JUMPI PUSH1 0x40 MLOAD PUSH32 0x8C379A000000000000000000000000000000000000000000000000000000000 DUP2 MSTORE PUSH1 0x4 ADD PUSH2 0x1BB0 SWAP1 PUSH2 0x4150 JUMP JUMPDEST PUSH1 0x40 MLOAD DUP1 SWAP2 SUB SWAP1 REVERT JUMPDEST PUSH1 0x13 PUSH1 0x0 SWAP1 SLOAD SWAP1 PUSH2 0x100 EXP SWAP1 DIV PUSH1 0xFF AND ISZERO PUSH2 0x1C09 JUMPI PUSH1 0x40 MLOAD PUSH32 0x8C379A000000000000000000000000000000000000000000000000000000000 DUP2 MSTORE PUSH1 0x4 ADD PUSH2 0x1C00 SWAP1 PUSH2 0x42F0 JUMP JUMPDEST PUSH1 0x40 MLOAD DUP1 SWAP2 SUB SWAP1 REVERT JUMPDEST PUSH1 0x11 SLOAD TIMESTAMP GT ISZERO PUSH2 0x1C4E JUMPI PUSH1 0x40 MLOAD PUSH32 0x8C379A000000000000000000000000000000000000000000000000000000000 DUP2 MSTORE PUSH1 0x4 ADD PUSH2 0x1C45 SWAP1 PUSH2 0x41B0 JUMP JUMPDEST PUSH1 0x40 MLOAD DUP1 SWAP2 SUB SWAP1 REVERT JUMPDEST PUSH1 0xD SLOAD DUP3 PUSH2 0x1C5C PUSH1 0x8 PUSH2 0x2707 JUMP JUMPDEST PUSH2 0x1C66 SWAP2 SWAP1 PUSH2 0x450E JUMP JUMPDEST GT ISZERO PUSH2 0x1CA7 JUMPI PUSH1 0x40 MLOAD PUSH32 0x8C379A000000000000000000000000000000000000000000000000000000000 DUP2 MSTORE PUSH1 0x4 ADD PUSH2 0x1C9E SWAP1 PUSH2 0x40F0 JUMP JUMPDEST PUSH1 0x40 MLOAD DUP1 SWAP2 SUB SWAP1 REVERT JUMPDEST PUSH2 0x1CB0 DUP3 PUSH2 0x1DF6 JUMP JUMPDEST CALLVALUE LT ISZERO PUSH2 0x1CF2 JUMPI PUSH1 0x40 MLOAD PUSH32 0x8C379A000000000000000000000000000000000000000000000000000000000 DUP2 MSTORE PUSH1 0x4 ADD PUSH2 0x1CE9 SWAP1 PUSH2 0x43B0 JUMP JUMPDEST PUSH1 0x40 MLOAD DUP1 SWAP2 SUB SWAP1 REVERT JUMPDEST PUSH2 0x1CFC CALLER DUP4 PUSH2 0x2C8D JUMP JUMPDEST POP PUSH1 0x1 PUSH1 0x7 DUP2 SWAP1 SSTORE POP POP JUMP JUMPDEST PUSH2 0x1D10 PUSH2 0x2646 JUMP JUMPDEST PUSH20 0xFFFFFFFFFFFFFFFFFFFFFFFFFFFFFFFFFFFFFFFF AND PUSH2 0x1D2E PUSH2 0x186E JUMP JUMPDEST PUSH20 0xFFFFFFFFFFFFFFFFFFFFFFFFFFFFFFFFFFFFFFFF AND EQ PUSH2 0x1D84 JUMPI PUSH1 0x40 MLOAD PUSH32 0x8C379A000000000000000000000000000000000000000000000000000000000 DUP2 MSTORE PUSH1 0x4 ADD PUSH2 0x1D7B SWAP1 PUSH2 0x42D0 JUMP JUMPDEST PUSH1 0x40 MLOAD DUP1 SWAP2 SUB SWAP1 REVERT JUMPDEST DUP1 PUSH1 0xF DUP2 SWAP1 SSTORE POP POP JUMP JUMPDEST PUSH2 0x1D9F PUSH2 0x1D99 PUSH2 0x2646 JUMP JUMPDEST DUP4 PUSH2 0x2715 JUMP JUMPDEST PUSH2 0x1DDE JUMPI PUSH1 0x40 MLOAD PUSH32 0x8C379A000000000000000000000000000000000000000000000000000000000 DUP2 MSTORE PUSH1 0x4 ADD PUSH2 0x1DD5 SWAP1 PUSH2 0x4350 JUMP JUMPDEST PUSH1 0x40 MLOAD DUP1 SWAP2 SUB SWAP1 REVERT JUMPDEST PUSH2 0x1DEA DUP5 DUP5 DUP5 DUP5 PUSH2 0x2D37 JUMP JUMPDEST POP POP POP POP JUMP JUMPDEST PUSH1 0x11 SLOAD DUP2 JUMP JUMPDEST PUSH1 0x0 DUP1 PUSH1 0x5 SWAP1 POP PUSH1 0x0 PUSH2 0x1E09 PUSH1 0x8 PUSH2 0x2707 JUMP JUMPDEST SWAP1 POP PUSH1 0x0 DUP1 PUSH1 0x0 SWAP1 POP JUMPDEST DUP6 DUP2 LT ISZERO PUSH2 0x1E74 JUMPI PUSH1 0x0 DUP5 DUP5 PUSH2 0x1E29 SWAP2 SWAP1 PUSH2 0x4564 JUMP JUMPDEST PUSH1 0x2 PUSH2 0x1E35 SWAP2 SWAP1 PUSH2 0x45E8 JUMP JUMPDEST PUSH1 0xE SLOAD PUSH2 0x1E42 SWAP2 SWAP1 PUSH2 0x4706 JUMP JUMPDEST SWAP1 POP DUP4 DUP1 PUSH2 0x1E4F SWAP1 PUSH2 0x48AD JUMP JUMPDEST SWAP5 POP POP DUP1 DUP4 PUSH2 0x1E5E SWAP2 SWAP1 PUSH2 0x450E JUMP JUMPDEST SWAP3 POP POP DUP1 DUP1 PUSH2 0x1E6C SWAP1 PUSH2 0x48AD JUMP JUMPDEST SWAP2 POP POP PUSH2 0x1E13 JUMP JUMPDEST POP DUP1 SWAP4 POP POP POP POP SWAP2 SWAP1 POP JUMP JUMPDEST PUSH2 0x1E88 PUSH2 0x2646 JUMP JUMPDEST PUSH20 0xFFFFFFFFFFFFFFFFFFFFFFFFFFFFFFFFFFFFFFFF AND PUSH2 0x1EA6 PUSH2 0x186E JUMP JUMPDEST PUSH20 0xFFFFFFFFFFFFFFFFFFFFFFFFFFFFFFFFFFFFFFFF AND EQ PUSH2 0x1EFC JUMPI PUSH1 0x40 MLOAD PUSH32 0x8C379A000000000000000000000000000000000000000000000000000000000 DUP2 MSTORE PUSH1 0x4 ADD PUSH2 0x1EF3 SWAP1 PUSH2 0x42D0 JUMP JUMPDEST PUSH1 0x40 MLOAD DUP1 SWAP2 SUB SWAP1 REVERT JUMPDEST PUSH1 0x11 SLOAD TIMESTAMP LT ISZERO PUSH2 0x1F41 JUMPI PUSH1 0x40 MLOAD PUSH32 0x8C379A000000000000000000000000000000000000000000000000000000000 DUP2 MSTORE PUSH1 0x4 ADD PUSH2 0x1F38 SWAP1 PUSH2 0x4070 JUMP JUMPDEST PUSH1 0x40 MLOAD DUP1 SWAP2 SUB SWAP1 REVERT JUMPDEST PUSH2 0x1F4B PUSH1 0x8 PUSH2 0x2707 JUMP JUMPDEST PUSH1 0xC DUP2 SWAP1 SSTORE POP JUMP JUMPDEST PUSH1 0x60 PUSH2 0x1F5E DUP3 PUSH2 0x25DA JUMP JUMPDEST PUSH2 0x1F9D JUMPI PUSH1 0x40 MLOAD PUSH32 0x8C379A000000000000000000000000000000000000000000000000000000000 DUP2 MSTORE PUSH1 0x4 ADD PUSH2 0x1F94 SWAP1 PUSH2 0x4310 JUMP JUMPDEST PUSH1 0x40 MLOAD DUP1 SWAP2 SUB SWAP1 REVERT JUMPDEST PUSH1 0x0 ISZERO ISZERO PUSH1 0x13 PUSH1 0x1 SWAP1 SLOAD SWAP1 PUSH2 0x100 EXP SWAP1 DIV PUSH1 0xFF AND ISZERO ISZERO EQ ISZERO PUSH2 0x204B JUMPI PUSH1 0xB DUP1 SLOAD PUSH2 0x1FC6 SWAP1 PUSH2 0x484A JUMP JUMPDEST DUP1 PUSH1 0x1F ADD PUSH1 0x20 DUP1 SWAP2 DIV MUL PUSH1 0x20 ADD PUSH1 0x40 MLOAD SWAP1 DUP2 ADD PUSH1 0x40 MSTORE DUP1 SWAP3 SWAP2 SWAP1 DUP2 DUP2 MSTORE PUSH1 0x20 ADD DUP3 DUP1 SLOAD PUSH2 0x1FF2 SWAP1 PUSH2 0x484A JUMP JUMPDEST DUP1 ISZERO PUSH2 0x203F JUMPI DUP1 PUSH1 0x1F LT PUSH2 0x2014 JUMPI PUSH2 0x100 DUP1 DUP4 SLOAD DIV MUL DUP4 MSTORE SWAP2 PUSH1 0x20 ADD SWAP2 PUSH2 0x203F JUMP JUMPDEST DUP3 ADD SWAP2 SWAP1 PUSH1 0x0 MSTORE PUSH1 0x20 PUSH1 0x0 KECCAK256 SWAP1 JUMPDEST DUP2 SLOAD DUP2 MSTORE SWAP1 PUSH1 0x1 ADD SWAP1 PUSH1 0x20 ADD DUP1 DUP4 GT PUSH2 0x2022 JUMPI DUP3 SWAP1 SUB PUSH1 0x1F AND DUP3 ADD SWAP2 JUMPDEST POP POP POP POP POP SWAP1 POP PUSH2 0x20A7 JUMP JUMPDEST PUSH1 0x0 PUSH2 0x2055 PUSH2 0x2D93 JUMP JUMPDEST SWAP1 POP PUSH1 0x0 DUP2 MLOAD GT PUSH2 0x2075 JUMPI PUSH1 0x40 MLOAD DUP1 PUSH1 0x20 ADD PUSH1 0x40 MSTORE DUP1 PUSH1 0x0 DUP2 MSTORE POP PUSH2 0x20A3 JUMP JUMPDEST DUP1 PUSH2 0x207F DUP5 PUSH2 0x2E25 JUMP JUMPDEST PUSH1 0xA PUSH1 0x40 MLOAD PUSH1 0x20 ADD PUSH2 0x2093 SWAP4 SWAP3 SWAP2 SWAP1 PUSH2 0x3F64 JUMP JUMPDEST PUSH1 0x40 MLOAD PUSH1 0x20 DUP2 DUP4 SUB SUB DUP2 MSTORE SWAP1 PUSH1 0x40 MSTORE JUMPDEST SWAP2 POP POP JUMPDEST SWAP2 SWAP1 POP JUMP JUMPDEST PUSH1 0xC SLOAD DUP2 JUMP JUMPDEST PUSH1 0x10 SLOAD DUP2 JUMP JUMPDEST PUSH2 0x20C0 PUSH2 0x2646 JUMP JUMPDEST PUSH20 0xFFFFFFFFFFFFFFFFFFFFFFFFFFFFFFFFFFFFFFFF AND PUSH2 0x20DE PUSH2 0x186E JUMP JUMPDEST PUSH20 0xFFFFFFFFFFFFFFFFFFFFFFFFFFFFFFFFFFFFFFFF AND EQ PUSH2 0x2134 JUMPI PUSH1 0x40 MLOAD PUSH32 0x8C379A000000000000000000000000000000000000000000000000000000000 DUP2 MSTORE PUSH1 0x4 ADD PUSH2 0x212B SWAP1 PUSH2 0x42D0 JUMP JUMPDEST PUSH1 0x40 MLOAD DUP1 SWAP2 SUB SWAP1 REVERT JUMPDEST DUP1 PUSH1 0x13 PUSH1 0x1 PUSH2 0x100 EXP DUP2 SLOAD DUP2 PUSH1 0xFF MUL NOT AND SWAP1 DUP4 ISZERO ISZERO MUL OR SWAP1 SSTORE POP POP JUMP JUMPDEST PUSH1 0x0 PUSH1 0x5 PUSH1 0x0 DUP5 PUSH20 0xFFFFFFFFFFFFFFFFFFFFFFFFFFFFFFFFFFFFFFFF AND PUSH20 0xFFFFFFFFFFFFFFFFFFFFFFFFFFFFFFFFFFFFFFFF AND DUP2 MSTORE PUSH1 0x20 ADD SWAP1 DUP2 MSTORE PUSH1 0x20 ADD PUSH1 0x0 KECCAK256 PUSH1 0x0 DUP4 PUSH20 0xFFFFFFFFFFFFFFFFFFFFFFFFFFFFFFFFFFFFFFFF AND PUSH20 0xFFFFFFFFFFFFFFFFFFFFFFFFFFFFFFFFFFFFFFFF AND DUP2 MSTORE PUSH1 0x20 ADD SWAP1 DUP2 MSTORE PUSH1 0x20 ADD PUSH1 0x0 KECCAK256 PUSH1 0x0 SWAP1 SLOAD SWAP1 PUSH2 0x100 EXP SWAP1 DIV PUSH1 0xFF AND SWAP1 POP SWAP3 SWAP2 POP POP JUMP JUMPDEST PUSH2 0x21ED PUSH2 0x2646 JUMP JUMPDEST PUSH20 0xFFFFFFFFFFFFFFFFFFFFFFFFFFFFFFFFFFFFFFFF AND PUSH2 0x220B PUSH2 0x186E JUMP JUMPDEST PUSH20 0xFFFFFFFFFFFFFFFFFFFFFFFFFFFFFFFFFFFFFFFF AND EQ PUSH2 0x2261 JUMPI PUSH1 0x40 MLOAD PUSH32 0x8C379A000000000000000000000000000000000000000000000000000000000 DUP2 MSTORE PUSH1 0x4 ADD PUSH2 0x2258 SWAP1 PUSH2 0x42D0 JUMP JUMPDEST PUSH1 0x40 MLOAD DUP1 SWAP2 SUB SWAP1 REVERT JUMPDEST PUSH2 0x226B DUP2 DUP4 PUSH2 0x2C8D JUMP JUMPDEST POP POP JUMP JUMPDEST PUSH1 0x2 PUSH1 0x7 SLOAD EQ ISZERO PUSH2 0x22B5 JUMPI PUSH1 0x40 MLOAD PUSH32 0x8C379A000000000000000000000000000000000000000000000000000000000 DUP2 MSTORE PUSH1 0x4 ADD PUSH2 0x22AC SWAP1 PUSH2 0x4370 JUMP JUMPDEST PUSH1 0x40 MLOAD DUP1 SWAP2 SUB SWAP1 REVERT JUMPDEST PUSH1 0x2 PUSH1 0x7 DUP2 SWAP1 SSTORE POP PUSH1 0x13 PUSH1 0x0 SWAP1 SLOAD SWAP1 PUSH2 0x100 EXP SWAP1 DIV PUSH1 0xFF AND ISZERO PUSH2 0x230D JUMPI PUSH1 0x40 MLOAD PUSH32 0x8C379A000000000000000000000000000000000000000000000000000000000 DUP2 MSTORE PUSH1 0x4 ADD PUSH2 0x2304 SWAP1 PUSH2 0x42F0 JUMP JUMPDEST PUSH1 0x40 MLOAD DUP1 SWAP2 SUB SWAP1 REVERT JUMPDEST PUSH1 0xC SLOAD PUSH1 0xA PUSH1 0xD SLOAD PUSH2 0x231F SWAP2 SWAP1 PUSH2 0x450E JUMP JUMPDEST GT ISZERO PUSH2 0x2360 JUMPI PUSH1 0x40 MLOAD PUSH32 0x8C379A000000000000000000000000000000000000000000000000000000000 DUP2 MSTORE PUSH1 0x4 ADD PUSH2 0x2357 SWAP1 PUSH2 0x41F0 JUMP JUMPDEST PUSH1 0x40 MLOAD DUP1 SWAP2 SUB SWAP1 REVERT JUMPDEST PUSH1 0x2 PUSH2 0x236C PUSH1 0x1 PUSH2 0x1DF6 JUMP JUMPDEST PUSH2 0x2376 SWAP2 SWAP1 PUSH2 0x4564 JUMP JUMPDEST CALLVALUE LT ISZERO PUSH2 0x23B8 JUMPI PUSH1 0x40 MLOAD PUSH32 0x8C379A000000000000000000000000000000000000000000000000000000000 DUP2 MSTORE PUSH1 0x4 ADD PUSH2 0x23AF SWAP1 PUSH2 0x4270 JUMP JUMPDEST PUSH1 0x40 MLOAD DUP1 SWAP2 SUB SWAP1 REVERT JUMPDEST PUSH1 0x11 SLOAD TIMESTAMP GT ISZERO PUSH2 0x23FD JUMPI PUSH1 0x40 MLOAD PUSH32 0x8C379A000000000000000000000000000000000000000000000000000000000 DUP2 MSTORE PUSH1 0x4 ADD PUSH2 0x23F4 SWAP1 PUSH2 0x41B0 JUMP JUMPDEST PUSH1 0x40 MLOAD DUP1 SWAP2 SUB SWAP1 REVERT JUMPDEST PUSH1 0xA PUSH1 0xD SLOAD PUSH2 0x240C SWAP2 SWAP1 PUSH2 0x450E JUMP JUMPDEST PUSH1 0xD DUP2 SWAP1 SSTORE POP PUSH1 0x1 PUSH1 0x7 DUP2 SWAP1 SSTORE POP JUMP JUMPDEST PUSH2 0x2424 PUSH2 0x2646 JUMP JUMPDEST PUSH20 0xFFFFFFFFFFFFFFFFFFFFFFFFFFFFFFFFFFFFFFFF AND PUSH2 0x2442 PUSH2 0x186E JUMP JUMPDEST PUSH20 0xFFFFFFFFFFFFFFFFFFFFFFFFFFFFFFFFFFFFFFFF AND EQ PUSH2 0x2498 JUMPI PUSH1 0x40 MLOAD PUSH32 0x8C379A000000000000000000000000000000000000000000000000000000000 DUP2 MSTORE PUSH1 0x4 ADD PUSH2 0x248F SWAP1 PUSH2 0x42D0 JUMP JUMPDEST PUSH1 0x40 MLOAD DUP1 SWAP2 SUB SWAP1 REVERT JUMPDEST PUSH1 0x0 PUSH20 0xFFFFFFFFFFFFFFFFFFFFFFFFFFFFFFFFFFFFFFFF AND DUP2 PUSH20 0xFFFFFFFFFFFFFFFFFFFFFFFFFFFFFFFFFFFFFFFF AND EQ ISZERO PUSH2 0x2508 JUMPI PUSH1 0x40 MLOAD PUSH32 0x8C379A000000000000000000000000000000000000000000000000000000000 DUP2 MSTORE PUSH1 0x4 ADD PUSH2 0x24FF SWAP1 PUSH2 0x40B0 JUMP JUMPDEST PUSH1 0x40 MLOAD DUP1 SWAP2 SUB SWAP1 REVERT JUMPDEST PUSH2 0x2511 DUP2 PUSH2 0x2A5A JUMP JUMPDEST POP JUMP JUMPDEST PUSH2 0x2525 PUSH2 0x251F PUSH2 0x2646 JUMP JUMPDEST DUP3 PUSH2 0x2715 JUMP JUMPDEST PUSH2 0x2564 JUMPI PUSH1 0x40 MLOAD PUSH32 0x8C379A000000000000000000000000000000000000000000000000000000000 DUP2 MSTORE PUSH1 0x4 ADD PUSH2 0x255B SWAP1 PUSH2 0x4390 JUMP JUMPDEST PUSH1 0x40 MLOAD DUP1 SWAP2 SUB SWAP1 REVERT JUMPDEST PUSH2 0x256D DUP2 PUSH2 0x2F86 JUMP JUMPDEST POP JUMP JUMPDEST PUSH1 0x0 PUSH32 0x1FFC9A700000000000000000000000000000000000000000000000000000000 PUSH28 0xFFFFFFFFFFFFFFFFFFFFFFFFFFFFFFFFFFFFFFFFFFFFFFFFFFFFFFFF NOT AND DUP3 PUSH28 0xFFFFFFFFFFFFFFFFFFFFFFFFFFFFFFFFFFFFFFFFFFFFFFFFFFFFFFFF NOT AND EQ SWAP1 POP SWAP2 SWAP1 POP JUMP JUMPDEST PUSH1 0x0 DUP1 PUSH20 0xFFFFFFFFFFFFFFFFFFFFFFFFFFFFFFFFFFFFFFFF AND PUSH1 0x2 PUSH1 0x0 DUP5 DUP2 MSTORE PUSH1 0x20 ADD SWAP1 DUP2 MSTORE PUSH1 0x20 ADD PUSH1 0x0 KECCAK256 PUSH1 0x0 SWAP1 SLOAD SWAP1 PUSH2 0x100 EXP SWAP1 DIV PUSH20 0xFFFFFFFFFFFFFFFFFFFFFFFFFFFFFFFFFFFFFFFF AND PUSH20 0xFFFFFFFFFFFFFFFFFFFFFFFFFFFFFFFFFFFFFFFF AND EQ ISZERO SWAP1 POP SWAP2 SWAP1 POP JUMP JUMPDEST PUSH1 0x0 CALLER SWAP1 POP SWAP1 JUMP JUMPDEST DUP2 PUSH1 0x4 PUSH1 0x0 DUP4 DUP2 MSTORE PUSH1 0x20 ADD SWAP1 DUP2 MSTORE PUSH1 0x20 ADD PUSH1 0x0 KECCAK256 PUSH1 0x0 PUSH2 0x100 EXP DUP2 SLOAD DUP2 PUSH20 0xFFFFFFFFFFFFFFFFFFFFFFFFFFFFFFFFFFFFFFFF MUL NOT AND SWAP1 DUP4 PUSH20 0xFFFFFFFFFFFFFFFFFFFFFFFFFFFFFFFFFFFFFFFF AND MUL OR SWAP1 SSTORE POP DUP1 DUP3 PUSH20 0xFFFFFFFFFFFFFFFFFFFFFFFFFFFFFFFFFFFFFFFF AND PUSH2 0x26C1 DUP4 PUSH2 0x15E6 JUMP JUMPDEST PUSH20 0xFFFFFFFFFFFFFFFFFFFFFFFFFFFFFFFFFFFFFFFF AND PUSH32 0x8C5BE1E5EBEC7D5BD14F71427D1E84F3DD0314C0F7B2291E5B200AC8C7C3B925 PUSH1 0x40 MLOAD PUSH1 0x40 MLOAD DUP1 SWAP2 SUB SWAP1 LOG4 POP POP JUMP JUMPDEST PUSH1 0x0 DUP2 PUSH1 0x0 ADD SLOAD SWAP1 POP SWAP2 SWAP1 POP JUMP JUMPDEST PUSH1 0x0 PUSH2 0x2720 DUP3 PUSH2 0x25DA JUMP JUMPDEST PUSH2 0x275F JUMPI PUSH1 0x40 MLOAD PUSH32 0x8C379A000000000000000000000000000000000000000000000000000000000 DUP2 MSTORE PUSH1 0x4 ADD PUSH2 0x2756 SWAP1 PUSH2 0x41D0 JUMP JUMPDEST PUSH1 0x40 MLOAD DUP1 SWAP2 SUB SWAP1 REVERT JUMPDEST PUSH1 0x0 PUSH2 0x276A DUP4 PUSH2 0x15E6 JUMP JUMPDEST SWAP1 POP DUP1 PUSH20 0xFFFFFFFFFFFFFFFFFFFFFFFFFFFFFFFFFFFFFFFF AND DUP5 PUSH20 0xFFFFFFFFFFFFFFFFFFFFFFFFFFFFFFFFFFFFFFFF AND EQ DUP1 PUSH2 0x27D9 JUMPI POP DUP4 PUSH20 0xFFFFFFFFFFFFFFFFFFFFFFFFFFFFFFFFFFFFFFFF AND PUSH2 0x27C1 DUP5 PUSH2 0xBC6 JUMP JUMPDEST PUSH20 0xFFFFFFFFFFFFFFFFFFFFFFFFFFFFFFFFFFFFFFFF AND EQ JUMPDEST DUP1 PUSH2 0x27EA JUMPI POP PUSH2 0x27E9 DUP2 DUP6 PUSH2 0x2151 JUMP JUMPDEST JUMPDEST SWAP2 POP POP SWAP3 SWAP2 POP POP JUMP JUMPDEST DUP3 PUSH20 0xFFFFFFFFFFFFFFFFFFFFFFFFFFFFFFFFFFFFFFFF AND PUSH2 0x2813 DUP3 PUSH2 0x15E6 JUMP JUMPDEST PUSH20 0xFFFFFFFFFFFFFFFFFFFFFFFFFFFFFFFFFFFFFFFF AND EQ PUSH2 0x2869 JUMPI PUSH1 0x40 MLOAD PUSH32 0x8C379A000000000000000000000000000000000000000000000000000000000 DUP2 MSTORE PUSH1 0x4 ADD PUSH2 0x2860 SWAP1 PUSH2 0x40D0 JUMP JUMPDEST PUSH1 0x40 MLOAD DUP1 SWAP2 SUB SWAP1 REVERT JUMPDEST PUSH1 0x0 PUSH20 0xFFFFFFFFFFFFFFFFFFFFFFFFFFFFFFFFFFFFFFFF AND DUP3 PUSH20 0xFFFFFFFFFFFFFFFFFFFFFFFFFFFFFFFFFFFFFFFF AND EQ ISZERO PUSH2 0x28D9 JUMPI PUSH1 0x40 MLOAD PUSH32 0x8C379A000000000000000000000000000000000000000000000000000000000 DUP2 MSTORE PUSH1 0x4 ADD PUSH2 0x28D0 SWAP1 PUSH2 0x4170 JUMP JUMPDEST PUSH1 0x40 MLOAD DUP1 SWAP2 SUB SWAP1 REVERT JUMPDEST PUSH2 0x28E4 DUP4 DUP4 DUP4 PUSH2 0x30A3 JUMP JUMPDEST PUSH2 0x28EF PUSH1 0x0 DUP3 PUSH2 0x264E JUMP JUMPDEST PUSH1 0x1 PUSH1 0x3 PUSH1 0x0 DUP6 PUSH20 0xFFFFFFFFFFFFFFFFFFFFFFFFFFFFFFFFFFFFFFFF AND PUSH20 0xFFFFFFFFFFFFFFFFFFFFFFFFFFFFFFFFFFFFFFFF AND DUP2 MSTORE PUSH1 0x20 ADD SWAP1 DUP2 MSTORE PUSH1 0x20 ADD PUSH1 0x0 KECCAK256 PUSH1 0x0 DUP3 DUP3 SLOAD PUSH2 0x293F SWAP2 SWAP1 PUSH2 0x4760 JUMP JUMPDEST SWAP3 POP POP DUP2 SWAP1 SSTORE POP PUSH1 0x1 PUSH1 0x3 PUSH1 0x0 DUP5 PUSH20 0xFFFFFFFFFFFFFFFFFFFFFFFFFFFFFFFFFFFFFFFF AND PUSH20 0xFFFFFFFFFFFFFFFFFFFFFFFFFFFFFFFFFFFFFFFF AND DUP2 MSTORE PUSH1 0x20 ADD SWAP1 DUP2 MSTORE PUSH1 0x20 ADD PUSH1 0x0 KECCAK256 PUSH1 0x0 DUP3 DUP3 SLOAD PUSH2 0x2996 SWAP2 SWAP1 PUSH2 0x450E JUMP JUMPDEST SWAP3 POP POP DUP2 SWAP1 SSTORE POP DUP2 PUSH1 0x2 PUSH1 0x0 DUP4 DUP2 MSTORE PUSH1 0x20 ADD SWAP1 DUP2 MSTORE PUSH1 0x20 ADD PUSH1 0x0 KECCAK256 PUSH1 0x0 PUSH2 0x100 EXP DUP2 SLOAD DUP2 PUSH20 0xFFFFFFFFFFFFFFFFFFFFFFFFFFFFFFFFFFFFFFFF MUL NOT AND SWAP1 DUP4 PUSH20 0xFFFFFFFFFFFFFFFFFFFFFFFFFFFFFFFFFFFFFFFF AND MUL OR SWAP1 SSTORE POP DUP1 DUP3 PUSH20 0xFFFFFFFFFFFFFFFFFFFFFFFFFFFFFFFFFFFFFFFF AND DUP5 PUSH20 0xFFFFFFFFFFFFFFFFFFFFFFFFFFFFFFFFFFFFFFFF AND PUSH32 0xDDF252AD1BE2C89B69C2B068FC378DAA952BA7F163C4A11628F55A4DF523B3EF PUSH1 0x40 MLOAD PUSH1 0x40 MLOAD DUP1 SWAP2 SUB SWAP1 LOG4 PUSH2 0x2A55 DUP4 DUP4 DUP4 PUSH2 0x30A8 JUMP JUMPDEST POP POP POP JUMP JUMPDEST PUSH1 0x0 PUSH1 0x6 PUSH1 0x0 SWAP1 SLOAD SWAP1 PUSH2 0x100 EXP SWAP1 DIV PUSH20 0xFFFFFFFFFFFFFFFFFFFFFFFFFFFFFFFFFFFFFFFF AND SWAP1 POP DUP2 PUSH1 0x6 PUSH1 0x0 PUSH2 0x100 EXP DUP2 SLOAD DUP2 PUSH20 0xFFFFFFFFFFFFFFFFFFFFFFFFFFFFFFFFFFFFFFFF MUL NOT AND SWAP1 DUP4 PUSH20 0xFFFFFFFFFFFFFFFFFFFFFFFFFFFFFFFFFFFFFFFF AND MUL OR SWAP1 SSTORE POP DUP2 PUSH20 0xFFFFFFFFFFFFFFFFFFFFFFFFFFFFFFFFFFFFFFFF AND DUP2 PUSH20 0xFFFFFFFFFFFFFFFFFFFFFFFFFFFFFFFFFFFFFFFF AND PUSH32 0x8BE0079C531659141344CD1FD0A4F28419497F9722A3DAAFE3B4186F6B6457E0 PUSH1 0x40 MLOAD PUSH1 0x40 MLOAD DUP1 SWAP2 SUB SWAP1 LOG3 POP POP JUMP JUMPDEST DUP2 PUSH20 0xFFFFFFFFFFFFFFFFFFFFFFFFFFFFFFFFFFFFFFFF AND DUP4 PUSH20 0xFFFFFFFFFFFFFFFFFFFFFFFFFFFFFFFFFFFFFFFF AND EQ ISZERO PUSH2 0x2B8F JUMPI PUSH1 0x40 MLOAD PUSH32 0x8C379A000000000000000000000000000000000000000000000000000000000 DUP2 MSTORE PUSH1 0x4 ADD PUSH2 0x2B86 SWAP1 PUSH2 0x4190 JUMP JUMPDEST PUSH1 0x40 MLOAD DUP1 SWAP2 SUB SWAP1 REVERT JUMPDEST DUP1 PUSH1 0x5 PUSH1 0x0 DUP6 PUSH20 0xFFFFFFFFFFFFFFFFFFFFFFFFFFFFFFFFFFFFFFFF AND PUSH20 0xFFFFFFFFFFFFFFFFFFFFFFFFFFFFFFFFFFFFFFFF AND DUP2 MSTORE PUSH1 0x20 ADD SWAP1 DUP2 MSTORE PUSH1 0x20 ADD PUSH1 0x0 KECCAK256 PUSH1 0x0 DUP5 PUSH20 0xFFFFFFFFFFFFFFFFFFFFFFFFFFFFFFFFFFFFFFFF AND PUSH20 0xFFFFFFFFFFFFFFFFFFFFFFFFFFFFFFFFFFFFFFFF AND DUP2 MSTORE PUSH1 0x20 ADD SWAP1 DUP2 MSTORE PUSH1 0x20 ADD PUSH1 0x0 KECCAK256 PUSH1 0x0 PUSH2 0x100 EXP DUP2 SLOAD DUP2 PUSH1 0xFF MUL NOT AND SWAP1 DUP4 ISZERO ISZERO MUL OR SWAP1 SSTORE POP DUP2 PUSH20 0xFFFFFFFFFFFFFFFFFFFFFFFFFFFFFFFFFFFFFFFF AND DUP4 PUSH20 0xFFFFFFFFFFFFFFFFFFFFFFFFFFFFFFFFFFFFFFFF AND PUSH32 0x17307EAB39AB6107E8899845AD3D59BD9653F200F220920489CA2B5937696C31 DUP4 PUSH1 0x40 MLOAD PUSH2 0x2C80 SWAP2 SWAP1 PUSH2 0x4033 JUMP JUMPDEST PUSH1 0x40 MLOAD DUP1 SWAP2 SUB SWAP1 LOG3 POP POP POP JUMP JUMPDEST PUSH1 0x0 JUMPDEST DUP2 DUP2 LT ISZERO PUSH2 0x2D32 JUMPI PUSH2 0x2CA2 PUSH1 0x8 PUSH2 0x30AD JUMP JUMPDEST PUSH1 0x12 PUSH1 0x0 DUP5 PUSH20 0xFFFFFFFFFFFFFFFFFFFFFFFFFFFFFFFFFFFFFFFF AND PUSH20 0xFFFFFFFFFFFFFFFFFFFFFFFFFFFFFFFFFFFFFFFF AND DUP2 MSTORE PUSH1 0x20 ADD SWAP1 DUP2 MSTORE PUSH1 0x20 ADD PUSH1 0x0 KECCAK256 PUSH1 0x0 DUP2 SLOAD DUP1 SWAP3 SWAP2 SWAP1 PUSH2 0x2CF2 SWAP1 PUSH2 0x48AD JUMP JUMPDEST SWAP2 SWAP1 POP SSTORE POP PUSH3 0x15180 TIMESTAMP PUSH2 0x2D06 SWAP2 SWAP1 PUSH2 0x450E JUMP JUMPDEST PUSH1 0x11 DUP2 SWAP1 SSTORE POP PUSH2 0x2D1F DUP4 PUSH2 0x2D1A PUSH1 0x8 PUSH2 0x2707 JUMP JUMPDEST PUSH2 0x30C3 JUMP JUMPDEST DUP1 DUP1 PUSH2 0x2D2A SWAP1 PUSH2 0x48AD JUMP JUMPDEST SWAP2 POP POP PUSH2 0x2C90 JUMP JUMPDEST POP POP POP JUMP JUMPDEST PUSH2 0x2D42 DUP5 DUP5 DUP5 PUSH2 0x27F3 JUMP JUMPDEST PUSH2 0x2D4E DUP5 DUP5 DUP5 DUP5 PUSH2 0x30E1 JUMP JUMPDEST PUSH2 0x2D8D JUMPI PUSH1 0x40 MLOAD PUSH32 0x8C379A000000000000000000000000000000000000000000000000000000000 DUP2 MSTORE PUSH1 0x4 ADD PUSH2 0x2D84 SWAP1 PUSH2 0x4090 JUMP JUMPDEST PUSH1 0x40 MLOAD DUP1 SWAP2 SUB SWAP1 REVERT JUMPDEST POP POP POP POP JUMP JUMPDEST PUSH1 0x60 PUSH1 0x9 DUP1 SLOAD PUSH2 0x2DA2 SWAP1 PUSH2 0x484A JUMP JUMPDEST DUP1 PUSH1 0x1F ADD PUSH1 0x20 DUP1 SWAP2 DIV MUL PUSH1 0x20 ADD PUSH1 0x40 MLOAD SWAP1 DUP2 ADD PUSH1 0x40 MSTORE DUP1 SWAP3 SWAP2 SWAP1 DUP2 DUP2 MSTORE PUSH1 0x20 ADD DUP3 DUP1 SLOAD PUSH2 0x2DCE SWAP1 PUSH2 0x484A JUMP JUMPDEST DUP1 ISZERO PUSH2 0x2E1B JUMPI DUP1 PUSH1 0x1F LT PUSH2 0x2DF0 JUMPI PUSH2 0x100 DUP1 DUP4 SLOAD DIV MUL DUP4 MSTORE SWAP2 PUSH1 0x20 ADD SWAP2 PUSH2 0x2E1B JUMP JUMPDEST DUP3 ADD SWAP2 SWAP1 PUSH1 0x0 MSTORE PUSH1 0x20 PUSH1 0x0 KECCAK256 SWAP1 JUMPDEST DUP2 SLOAD DUP2 MSTORE SWAP1 PUSH1 0x1 ADD SWAP1 PUSH1 0x20 ADD DUP1 DUP4 GT PUSH2 0x2DFE JUMPI DUP3 SWAP1 SUB PUSH1 0x1F AND DUP3 ADD SWAP2 JUMPDEST POP POP POP POP POP SWAP1 POP SWAP1 JUMP JUMPDEST PUSH1 0x60 PUSH1 0x0 DUP3 EQ ISZERO PUSH2 0x2E6D JUMPI PUSH1 0x40 MLOAD DUP1 PUSH1 0x40 ADD PUSH1 0x40 MSTORE DUP1 PUSH1 0x1 DUP2 MSTORE PUSH1 0x20 ADD PUSH32 0x3000000000000000000000000000000000000000000000000000000000000000 DUP2 MSTORE POP SWAP1 POP PUSH2 0x2F81 JUMP JUMPDEST PUSH1 0x0 DUP3 SWAP1 POP PUSH1 0x0 JUMPDEST PUSH1 0x0 DUP3 EQ PUSH2 0x2E9F JUMPI DUP1 DUP1 PUSH2 0x2E88 SWAP1 PUSH2 0x48AD JUMP JUMPDEST SWAP2 POP POP PUSH1 0xA DUP3 PUSH2 0x2E98 SWAP2 SWAP1 PUSH2 0x4564 JUMP JUMPDEST SWAP2 POP PUSH2 0x2E75 JUMP JUMPDEST PUSH1 0x0 DUP2 PUSH8 0xFFFFFFFFFFFFFFFF DUP2 GT ISZERO PUSH2 0x2EBB JUMPI PUSH2 0x2EBA PUSH2 0x49E3 JUMP JUMPDEST JUMPDEST PUSH1 0x40 MLOAD SWAP1 DUP1 DUP3 MSTORE DUP1 PUSH1 0x1F ADD PUSH1 0x1F NOT AND PUSH1 0x20 ADD DUP3 ADD PUSH1 0x40 MSTORE DUP1 ISZERO PUSH2 0x2EED JUMPI DUP2 PUSH1 0x20 ADD PUSH1 0x1 DUP3 MUL DUP1 CALLDATASIZE DUP4 CALLDATACOPY DUP1 DUP3 ADD SWAP2 POP POP SWAP1 POP JUMPDEST POP SWAP1 POP JUMPDEST PUSH1 0x0 DUP6 EQ PUSH2 0x2F7A JUMPI PUSH1 0x1 DUP3 PUSH2 0x2F06 SWAP2 SWAP1 PUSH2 0x4760 JUMP JUMPDEST SWAP2 POP PUSH1 0xA DUP6 PUSH2 0x2F15 SWAP2 SWAP1 PUSH2 0x48F6 JUMP JUMPDEST PUSH1 0x30 PUSH2 0x2F21 SWAP2 SWAP1 PUSH2 0x450E JUMP JUMPDEST PUSH1 0xF8 SHL DUP2 DUP4 DUP2 MLOAD DUP2 LT PUSH2 0x2F37 JUMPI PUSH2 0x2F36 PUSH2 0x49B4 JUMP JUMPDEST JUMPDEST PUSH1 0x20 ADD ADD SWAP1 PUSH31 0xFFFFFFFFFFFFFFFFFFFFFFFFFFFFFFFFFFFFFFFFFFFFFFFFFFFFFFFFFFFFFF NOT AND SWAP1 DUP2 PUSH1 0x0 BYTE SWAP1 MSTORE8 POP PUSH1 0xA DUP6 PUSH2 0x2F73 SWAP2 SWAP1 PUSH2 0x4564 JUMP JUMPDEST SWAP5 POP PUSH2 0x2EF1 JUMP JUMPDEST DUP1 SWAP4 POP POP POP POP JUMPDEST SWAP2 SWAP1 POP JUMP JUMPDEST PUSH1 0x0 PUSH2 0x2F91 DUP3 PUSH2 0x15E6 JUMP JUMPDEST SWAP1 POP PUSH2 0x2F9F DUP2 PUSH1 0x0 DUP5 PUSH2 0x30A3 JUMP JUMPDEST PUSH2 0x2FAA PUSH1 0x0 DUP4 PUSH2 0x264E JUMP JUMPDEST PUSH1 0x1 PUSH1 0x3 PUSH1 0x0 DUP4 PUSH20 0xFFFFFFFFFFFFFFFFFFFFFFFFFFFFFFFFFFFFFFFF AND PUSH20 0xFFFFFFFFFFFFFFFFFFFFFFFFFFFFFFFFFFFFFFFF AND DUP2 MSTORE PUSH1 0x20 ADD SWAP1 DUP2 MSTORE PUSH1 0x20 ADD PUSH1 0x0 KECCAK256 PUSH1 0x0 DUP3 DUP3 SLOAD PUSH2 0x2FFA SWAP2 SWAP1 PUSH2 0x4760 JUMP JUMPDEST SWAP3 POP POP DUP2 SWAP1 SSTORE POP PUSH1 0x2 PUSH1 0x0 DUP4 DUP2 MSTORE PUSH1 0x20 ADD SWAP1 DUP2 MSTORE PUSH1 0x20 ADD PUSH1 0x0 KECCAK256 PUSH1 0x0 PUSH2 0x100 EXP DUP2 SLOAD SWAP1 PUSH20 0xFFFFFFFFFFFFFFFFFFFFFFFFFFFFFFFFFFFFFFFF MUL NOT AND SWAP1 SSTORE DUP2 PUSH1 0x0 PUSH20 0xFFFFFFFFFFFFFFFFFFFFFFFFFFFFFFFFFFFFFFFF AND DUP3 PUSH20 0xFFFFFFFFFFFFFFFFFFFFFFFFFFFFFFFFFFFFFFFF AND PUSH32 0xDDF252AD1BE2C89B69C2B068FC378DAA952BA7F163C4A11628F55A4DF523B3EF PUSH1 0x40 MLOAD PUSH1 0x40 MLOAD DUP1 SWAP2 SUB SWAP1 LOG4 PUSH2 0x309F DUP2 PUSH1 0x0 DUP5 PUSH2 0x30A8 JUMP JUMPDEST POP POP JUMP JUMPDEST POP POP POP JUMP JUMPDEST POP POP POP JUMP JUMPDEST PUSH1 0x1 DUP2 PUSH1 0x0 ADD PUSH1 0x0 DUP3 DUP3 SLOAD ADD SWAP3 POP POP DUP2 SWAP1 SSTORE POP POP JUMP JUMPDEST PUSH2 0x30DD DUP3 DUP3 PUSH1 0x40 MLOAD DUP1 PUSH1 0x20 ADD PUSH1 0x40 MSTORE DUP1 PUSH1 0x0 DUP2 MSTORE POP PUSH2 0x3278 JUMP JUMPDEST POP POP JUMP JUMPDEST PUSH1 0x0 PUSH2 0x3102 DUP5 PUSH20 0xFFFFFFFFFFFFFFFFFFFFFFFFFFFFFFFFFFFFFFFF AND PUSH2 0x32D3 JUMP JUMPDEST ISZERO PUSH2 0x326B JUMPI DUP4 PUSH20 0xFFFFFFFFFFFFFFFFFFFFFFFFFFFFFFFFFFFFFFFF AND PUSH4 0x150B7A02 PUSH2 0x312B PUSH2 0x2646 JUMP JUMPDEST DUP8 DUP7 DUP7 PUSH1 0x40 MLOAD DUP6 PUSH4 0xFFFFFFFF AND PUSH1 0xE0 SHL DUP2 MSTORE PUSH1 0x4 ADD PUSH2 0x314D SWAP5 SWAP4 SWAP3 SWAP2 SWAP1 PUSH2 0x3FC5 JUMP JUMPDEST PUSH1 0x20 PUSH1 0x40 MLOAD DUP1 DUP4 SUB DUP2 PUSH1 0x0 DUP8 DUP1 EXTCODESIZE ISZERO DUP1 ISZERO PUSH2 0x3167 JUMPI PUSH1 0x0 DUP1 REVERT JUMPDEST POP GAS CALL SWAP3 POP POP POP DUP1 ISZERO PUSH2 0x3198 JUMPI POP PUSH1 0x40 MLOAD RETURNDATASIZE PUSH1 0x1F NOT PUSH1 0x1F DUP3 ADD AND DUP3 ADD DUP1 PUSH1 0x40 MSTORE POP DUP2 ADD SWAP1 PUSH2 0x3195 SWAP2 SWAP1 PUSH2 0x38D9 JUMP JUMPDEST PUSH1 0x1 JUMPDEST PUSH2 0x321B JUMPI RETURNDATASIZE DUP1 PUSH1 0x0 DUP2 EQ PUSH2 0x31C8 JUMPI PUSH1 0x40 MLOAD SWAP2 POP PUSH1 0x1F NOT PUSH1 0x3F RETURNDATASIZE ADD AND DUP3 ADD PUSH1 0x40 MSTORE RETURNDATASIZE DUP3 MSTORE RETURNDATASIZE PUSH1 0x0 PUSH1 0x20 DUP5 ADD RETURNDATACOPY PUSH2 0x31CD JUMP JUMPDEST PUSH1 0x60 SWAP2 POP JUMPDEST POP PUSH1 0x0 DUP2 MLOAD EQ ISZERO PUSH2 0x3213 JUMPI PUSH1 0x40 MLOAD PUSH32 0x8C379A000000000000000000000000000000000000000000000000000000000 DUP2 MSTORE PUSH1 0x4 ADD PUSH2 0x320A SWAP1 PUSH2 0x4090 JUMP JUMPDEST PUSH1 0x40 MLOAD DUP1 SWAP2 SUB SWAP1 REVERT JUMPDEST DUP1 MLOAD DUP2 PUSH1 0x20 ADD REVERT JUMPDEST PUSH4 0x150B7A02 PUSH1 0xE0 SHL PUSH28 0xFFFFFFFFFFFFFFFFFFFFFFFFFFFFFFFFFFFFFFFFFFFFFFFFFFFFFFFF NOT AND DUP2 PUSH28 0xFFFFFFFFFFFFFFFFFFFFFFFFFFFFFFFFFFFFFFFFFFFFFFFFFFFFFFFF NOT AND EQ SWAP2 POP POP PUSH2 0x3270 JUMP JUMPDEST PUSH1 0x1 SWAP1 POP JUMPDEST SWAP5 SWAP4 POP POP POP POP JUMP JUMPDEST PUSH2 0x3282 DUP4 DUP4 PUSH2 0x32F6 JUMP JUMPDEST PUSH2 0x328F PUSH1 0x0 DUP5 DUP5 DUP5 PUSH2 0x30E1 JUMP JUMPDEST PUSH2 0x32CE JUMPI PUSH1 0x40 MLOAD PUSH32 0x8C379A000000000000000000000000000000000000000000000000000000000 DUP2 MSTORE PUSH1 0x4 ADD PUSH2 0x32C5 SWAP1 PUSH2 0x4090 JUMP JUMPDEST PUSH1 0x40 MLOAD DUP1 SWAP2 SUB SWAP1 REVERT JUMPDEST POP POP POP JUMP JUMPDEST PUSH1 0x0 DUP1 DUP3 PUSH20 0xFFFFFFFFFFFFFFFFFFFFFFFFFFFFFFFFFFFFFFFF AND EXTCODESIZE GT SWAP1 POP SWAP2 SWAP1 POP JUMP JUMPDEST PUSH1 0x0 PUSH20 0xFFFFFFFFFFFFFFFFFFFFFFFFFFFFFFFFFFFFFFFF AND DUP3 PUSH20 0xFFFFFFFFFFFFFFFFFFFFFFFFFFFFFFFFFFFFFFFF AND EQ ISZERO PUSH2 0x3366 JUMPI PUSH1 0x40 MLOAD PUSH32 0x8C379A000000000000000000000000000000000000000000000000000000000 DUP2 MSTORE PUSH1 0x4 ADD PUSH2 0x335D SWAP1 PUSH2 0x4290 JUMP JUMPDEST PUSH1 0x40 MLOAD DUP1 SWAP2 SUB SWAP1 REVERT JUMPDEST PUSH2 0x336F DUP2 PUSH2 0x25DA JUMP JUMPDEST ISZERO PUSH2 0x33AF JUMPI PUSH1 0x40 MLOAD PUSH32 0x8C379A000000000000000000000000000000000000000000000000000000000 DUP2 MSTORE PUSH1 0x4 ADD PUSH2 0x33A6 SWAP1 PUSH2 0x4110 JUMP JUMPDEST PUSH1 0x40 MLOAD DUP1 SWAP2 SUB SWAP1 REVERT JUMPDEST PUSH2 0x33BB PUSH1 0x0 DUP4 DUP4 PUSH2 0x30A3 JUMP JUMPDEST PUSH1 0x1 PUSH1 0x3 PUSH1 0x0 DUP5 PUSH20 0xFFFFFFFFFFFFFFFFFFFFFFFFFFFFFFFFFFFFFFFF AND PUSH20 0xFFFFFFFFFFFFFFFFFFFFFFFFFFFFFFFFFFFFFFFF AND DUP2 MSTORE PUSH1 0x20 ADD SWAP1 DUP2 MSTORE PUSH1 0x20 ADD PUSH1 0x0 KECCAK256 PUSH1 0x0 DUP3 DUP3 SLOAD PUSH2 0x340B SWAP2 SWAP1 PUSH2 0x450E JUMP JUMPDEST SWAP3 POP POP DUP2 SWAP1 SSTORE POP DUP2 PUSH1 0x2 PUSH1 0x0 DUP4 DUP2 MSTORE PUSH1 0x20 ADD SWAP1 DUP2 MSTORE PUSH1 0x20 ADD PUSH1 0x0 KECCAK256 PUSH1 0x0 PUSH2 0x100 EXP DUP2 SLOAD DUP2 PUSH20 0xFFFFFFFFFFFFFFFFFFFFFFFFFFFFFFFFFFFFFFFF MUL NOT AND SWAP1 DUP4 PUSH20 0xFFFFFFFFFFFFFFFFFFFFFFFFFFFFFFFFFFFFFFFF AND MUL OR SWAP1 SSTORE POP DUP1 DUP3 PUSH20 0xFFFFFFFFFFFFFFFFFFFFFFFFFFFFFFFFFFFFFFFF AND PUSH1 0x0 PUSH20 0xFFFFFFFFFFFFFFFFFFFFFFFFFFFFFFFFFFFFFFFF AND PUSH32 0xDDF252AD1BE2C89B69C2B068FC378DAA952BA7F163C4A11628F55A4DF523B3EF PUSH1 0x40 MLOAD PUSH1 0x40 MLOAD DUP1 SWAP2 SUB SWAP1 LOG4 PUSH2 0x34CC PUSH1 0x0 DUP4 DUP4 PUSH2 0x30A8 JUMP JUMPDEST POP POP JUMP JUMPDEST DUP3 DUP1 SLOAD PUSH2 0x34DC SWAP1 PUSH2 0x484A JUMP JUMPDEST SWAP1 PUSH1 0x0 MSTORE PUSH1 0x20 PUSH1 0x0 KECCAK256 SWAP1 PUSH1 0x1F ADD PUSH1 0x20 SWAP1 DIV DUP2 ADD SWAP3 DUP3 PUSH2 0x34FE JUMPI PUSH1 0x0 DUP6 SSTORE PUSH2 0x3545 JUMP JUMPDEST DUP3 PUSH1 0x1F LT PUSH2 0x3517 JUMPI DUP1 MLOAD PUSH1 0xFF NOT AND DUP4 DUP1 ADD OR DUP6 SSTORE PUSH2 0x3545 JUMP JUMPDEST DUP3 DUP1 ADD PUSH1 0x1 ADD DUP6 SSTORE DUP3 ISZERO PUSH2 0x3545 JUMPI SWAP2 DUP3 ADD JUMPDEST DUP3 DUP2 GT ISZERO PUSH2 0x3544 JUMPI DUP3 MLOAD DUP3 SSTORE SWAP2 PUSH1 0x20 ADD SWAP2 SWAP1 PUSH1 0x1 ADD SWAP1 PUSH2 0x3529 JUMP JUMPDEST JUMPDEST POP SWAP1 POP PUSH2 0x3552 SWAP2 SWAP1 PUSH2 0x3556 JUMP JUMPDEST POP SWAP1 JUMP JUMPDEST JUMPDEST DUP1 DUP3 GT ISZERO PUSH2 0x356F JUMPI PUSH1 0x0 DUP2 PUSH1 0x0 SWAP1 SSTORE POP PUSH1 0x1 ADD PUSH2 0x3557 JUMP JUMPDEST POP SWAP1 JUMP JUMPDEST PUSH1 0x0 PUSH2 0x3586 PUSH2 0x3581 DUP5 PUSH2 0x4410 JUMP JUMPDEST PUSH2 0x43EB JUMP JUMPDEST SWAP1 POP DUP3 DUP2 MSTORE PUSH1 0x20 DUP2 ADD DUP5 DUP5 DUP5 ADD GT ISZERO PUSH2 0x35A2 JUMPI PUSH2 0x35A1 PUSH2 0x4A17 JUMP JUMPDEST JUMPDEST PUSH2 0x35AD DUP5 DUP3 DUP6 PUSH2 0x4808 JUMP JUMPDEST POP SWAP4 SWAP3 POP POP POP JUMP JUMPDEST PUSH1 0x0 PUSH2 0x35C8 PUSH2 0x35C3 DUP5 PUSH2 0x4441 JUMP JUMPDEST PUSH2 0x43EB JUMP JUMPDEST SWAP1 POP DUP3 DUP2 MSTORE PUSH1 0x20 DUP2 ADD DUP5 DUP5 DUP5 ADD GT ISZERO PUSH2 0x35E4 JUMPI PUSH2 0x35E3 PUSH2 0x4A17 JUMP JUMPDEST JUMPDEST PUSH2 0x35EF DUP5 DUP3 DUP6 PUSH2 0x4808 JUMP JUMPDEST POP SWAP4 SWAP3 POP POP POP JUMP JUMPDEST PUSH1 0x0 DUP2 CALLDATALOAD SWAP1 POP PUSH2 0x3606 DUP2 PUSH2 0x5146 JUMP JUMPDEST SWAP3 SWAP2 POP POP JUMP JUMPDEST PUSH1 0x0 DUP2 CALLDATALOAD SWAP1 POP PUSH2 0x361B DUP2 PUSH2 0x515D JUMP JUMPDEST SWAP3 SWAP2 POP POP JUMP JUMPDEST PUSH1 0x0 DUP2 CALLDATALOAD SWAP1 POP PUSH2 0x3630 DUP2 PUSH2 0x5174 JUMP JUMPDEST SWAP3 SWAP2 POP POP JUMP JUMPDEST PUSH1 0x0 DUP2 MLOAD SWAP1 POP PUSH2 0x3645 DUP2 PUSH2 0x5174 JUMP JUMPDEST SWAP3 SWAP2 POP POP JUMP JUMPDEST PUSH1 0x0 DUP3 PUSH1 0x1F DUP4 ADD SLT PUSH2 0x3660 JUMPI PUSH2 0x365F PUSH2 0x4A12 JUMP JUMPDEST JUMPDEST DUP2 CALLDATALOAD PUSH2 0x3670 DUP5 DUP3 PUSH1 0x20 DUP7 ADD PUSH2 0x3573 JUMP JUMPDEST SWAP2 POP POP SWAP3 SWAP2 POP POP JUMP JUMPDEST PUSH1 0x0 DUP3 PUSH1 0x1F DUP4 ADD SLT PUSH2 0x368E JUMPI PUSH2 0x368D PUSH2 0x4A12 JUMP JUMPDEST JUMPDEST DUP2 CALLDATALOAD PUSH2 0x369E DUP5 DUP3 PUSH1 0x20 DUP7 ADD PUSH2 0x35B5 JUMP JUMPDEST SWAP2 POP POP SWAP3 SWAP2 POP POP JUMP JUMPDEST PUSH1 0x0 DUP2 CALLDATALOAD SWAP1 POP PUSH2 0x36B6 DUP2 PUSH2 0x518B JUMP JUMPDEST SWAP3 SWAP2 POP POP JUMP JUMPDEST PUSH1 0x0 PUSH1 0x20 DUP3 DUP5 SUB SLT ISZERO PUSH2 0x36D2 JUMPI PUSH2 0x36D1 PUSH2 0x4A21 JUMP JUMPDEST JUMPDEST PUSH1 0x0 PUSH2 0x36E0 DUP5 DUP3 DUP6 ADD PUSH2 0x35F7 JUMP JUMPDEST SWAP2 POP POP SWAP3 SWAP2 POP POP JUMP JUMPDEST PUSH1 0x0 DUP1 PUSH1 0x40 DUP4 DUP6 SUB SLT ISZERO PUSH2 0x3700 JUMPI PUSH2 0x36FF PUSH2 0x4A21 JUMP JUMPDEST JUMPDEST PUSH1 0x0 PUSH2 0x370E DUP6 DUP3 DUP7 ADD PUSH2 0x35F7 JUMP JUMPDEST SWAP3 POP POP PUSH1 0x20 PUSH2 0x371F DUP6 DUP3 DUP7 ADD PUSH2 0x35F7 JUMP JUMPDEST SWAP2 POP POP SWAP3 POP SWAP3 SWAP1 POP JUMP JUMPDEST PUSH1 0x0 DUP1 PUSH1 0x0 PUSH1 0x60 DUP5 DUP7 SUB SLT ISZERO PUSH2 0x3742 JUMPI PUSH2 0x3741 PUSH2 0x4A21 JUMP JUMPDEST JUMPDEST PUSH1 0x0 PUSH2 0x3750 DUP7 DUP3 DUP8 ADD PUSH2 0x35F7 JUMP JUMPDEST SWAP4 POP POP PUSH1 0x20 PUSH2 0x3761 DUP7 DUP3 DUP8 ADD PUSH2 0x35F7 JUMP JUMPDEST SWAP3 POP POP PUSH1 0x40 PUSH2 0x3772 DUP7 DUP3 DUP8 ADD PUSH2 0x36A7 JUMP JUMPDEST SWAP2 POP POP SWAP3 POP SWAP3 POP SWAP3 JUMP JUMPDEST PUSH1 0x0 DUP1 PUSH1 0x0 DUP1 PUSH1 0x80 DUP6 DUP8 SUB SLT ISZERO PUSH2 0x3796 JUMPI PUSH2 0x3795 PUSH2 0x4A21 JUMP JUMPDEST JUMPDEST PUSH1 0x0 PUSH2 0x37A4 DUP8 DUP3 DUP9 ADD PUSH2 0x35F7 JUMP JUMPDEST SWAP5 POP POP PUSH1 0x20 PUSH2 0x37B5 DUP8 DUP3 DUP9 ADD PUSH2 0x35F7 JUMP JUMPDEST SWAP4 POP POP PUSH1 0x40 PUSH2 0x37C6 DUP8 DUP3 DUP9 ADD PUSH2 0x36A7 JUMP JUMPDEST SWAP3 POP POP PUSH1 0x60 DUP6 ADD CALLDATALOAD PUSH8 0xFFFFFFFFFFFFFFFF DUP2 GT ISZERO PUSH2 0x37E7 JUMPI PUSH2 0x37E6 PUSH2 0x4A1C JUMP JUMPDEST JUMPDEST PUSH2 0x37F3 DUP8 DUP3 DUP9 ADD PUSH2 0x364B JUMP JUMPDEST SWAP2 POP POP SWAP3 SWAP6 SWAP2 SWAP5 POP SWAP3 POP JUMP JUMPDEST PUSH1 0x0 DUP1 PUSH1 0x40 DUP4 DUP6 SUB SLT ISZERO PUSH2 0x3816 JUMPI PUSH2 0x3815 PUSH2 0x4A21 JUMP JUMPDEST JUMPDEST PUSH1 0x0 PUSH2 0x3824 DUP6 DUP3 DUP7 ADD PUSH2 0x35F7 JUMP JUMPDEST SWAP3 POP POP PUSH1 0x20 PUSH2 0x3835 DUP6 DUP3 DUP7 ADD PUSH2 0x360C JUMP JUMPDEST SWAP2 POP POP SWAP3 POP SWAP3 SWAP1 POP JUMP JUMPDEST PUSH1 0x0 DUP1 PUSH1 0x40 DUP4 DUP6 SUB SLT ISZERO PUSH2 0x3856 JUMPI PUSH2 0x3855 PUSH2 0x4A21 JUMP JUMPDEST JUMPDEST PUSH1 0x0 PUSH2 0x3864 DUP6 DUP3 DUP7 ADD PUSH2 0x35F7 JUMP JUMPDEST SWAP3 POP POP PUSH1 0x20 PUSH2 0x3875 DUP6 DUP3 DUP7 ADD PUSH2 0x36A7 JUMP JUMPDEST SWAP2 POP POP SWAP3 POP SWAP3 SWAP1 POP JUMP JUMPDEST PUSH1 0x0 PUSH1 0x20 DUP3 DUP5 SUB SLT ISZERO PUSH2 0x3895 JUMPI PUSH2 0x3894 PUSH2 0x4A21 JUMP JUMPDEST JUMPDEST PUSH1 0x0 PUSH2 0x38A3 DUP5 DUP3 DUP6 ADD PUSH2 0x360C JUMP JUMPDEST SWAP2 POP POP SWAP3 SWAP2 POP POP JUMP JUMPDEST PUSH1 0x0 PUSH1 0x20 DUP3 DUP5 SUB SLT ISZERO PUSH2 0x38C2 JUMPI PUSH2 0x38C1 PUSH2 0x4A21 JUMP JUMPDEST JUMPDEST PUSH1 0x0 PUSH2 0x38D0 DUP5 DUP3 DUP6 ADD PUSH2 0x3621 JUMP JUMPDEST SWAP2 POP POP SWAP3 SWAP2 POP POP JUMP JUMPDEST PUSH1 0x0 PUSH1 0x20 DUP3 DUP5 SUB SLT ISZERO PUSH2 0x38EF JUMPI PUSH2 0x38EE PUSH2 0x4A21 JUMP JUMPDEST JUMPDEST PUSH1 0x0 PUSH2 0x38FD DUP5 DUP3 DUP6 ADD PUSH2 0x3636 JUMP JUMPDEST SWAP2 POP POP SWAP3 SWAP2 POP POP JUMP JUMPDEST PUSH1 0x0 PUSH1 0x20 DUP3 DUP5 SUB SLT ISZERO PUSH2 0x391C JUMPI PUSH2 0x391B PUSH2 0x4A21 JUMP JUMPDEST JUMPDEST PUSH1 0x0 DUP3 ADD CALLDATALOAD PUSH8 0xFFFFFFFFFFFFFFFF DUP2 GT ISZERO PUSH2 0x393A JUMPI PUSH2 0x3939 PUSH2 0x4A1C JUMP JUMPDEST JUMPDEST PUSH2 0x3946 DUP5 DUP3 DUP6 ADD PUSH2 0x3679 JUMP JUMPDEST SWAP2 POP POP SWAP3 SWAP2 POP POP JUMP JUMPDEST PUSH1 0x0 PUSH1 0x20 DUP3 DUP5 SUB SLT ISZERO PUSH2 0x3965 JUMPI PUSH2 0x3964 PUSH2 0x4A21 JUMP JUMPDEST JUMPDEST PUSH1 0x0 PUSH2 0x3973 DUP5 DUP3 DUP6 ADD PUSH2 0x36A7 JUMP JUMPDEST SWAP2 POP POP SWAP3 SWAP2 POP POP JUMP JUMPDEST PUSH1 0x0 DUP1 PUSH1 0x40 DUP4 DUP6 SUB SLT ISZERO PUSH2 0x3993 JUMPI PUSH2 0x3992 PUSH2 0x4A21 JUMP JUMPDEST JUMPDEST PUSH1 0x0 PUSH2 0x39A1 DUP6 DUP3 DUP7 ADD PUSH2 0x36A7 JUMP JUMPDEST SWAP3 POP POP PUSH1 0x20 PUSH2 0x39B2 DUP6 DUP3 DUP7 ADD PUSH2 0x35F7 JUMP JUMPDEST SWAP2 POP POP SWAP3 POP SWAP3 SWAP1 POP JUMP JUMPDEST PUSH1 0x0 PUSH2 0x39C8 DUP4 DUP4 PUSH2 0x3F46 JUMP JUMPDEST PUSH1 0x20 DUP4 ADD SWAP1 POP SWAP3 SWAP2 POP POP JUMP JUMPDEST PUSH2 0x39DD DUP2 PUSH2 0x4794 JUMP JUMPDEST DUP3 MSTORE POP POP JUMP JUMPDEST PUSH1 0x0 PUSH2 0x39EE DUP3 PUSH2 0x4497 JUMP JUMPDEST PUSH2 0x39F8 DUP2 DUP6 PUSH2 0x44C5 JUMP JUMPDEST SWAP4 POP PUSH2 0x3A03 DUP4 PUSH2 0x4472 JUMP JUMPDEST DUP1 PUSH1 0x0 JUMPDEST DUP4 DUP2 LT ISZERO PUSH2 0x3A34 JUMPI DUP2 MLOAD PUSH2 0x3A1B DUP9 DUP3 PUSH2 0x39BC JUMP JUMPDEST SWAP8 POP PUSH2 0x3A26 DUP4 PUSH2 0x44B8 JUMP JUMPDEST SWAP3 POP POP PUSH1 0x1 DUP2 ADD SWAP1 POP PUSH2 0x3A07 JUMP JUMPDEST POP DUP6 SWAP4 POP POP POP POP SWAP3 SWAP2 POP POP JUMP JUMPDEST PUSH2 0x3A4A DUP2 PUSH2 0x47A6 JUMP JUMPDEST DUP3 MSTORE POP POP JUMP JUMPDEST PUSH1 0x0 PUSH2 0x3A5B DUP3 PUSH2 0x44A2 JUMP JUMPDEST PUSH2 0x3A65 DUP2 DUP6 PUSH2 0x44D6 JUMP JUMPDEST SWAP4 POP PUSH2 0x3A75 DUP2 DUP6 PUSH1 0x20 DUP7 ADD PUSH2 0x4817 JUMP JUMPDEST PUSH2 0x3A7E DUP2 PUSH2 0x4A26 JUMP JUMPDEST DUP5 ADD SWAP2 POP POP SWAP3 SWAP2 POP POP JUMP JUMPDEST PUSH1 0x0 PUSH2 0x3A94 DUP3 PUSH2 0x44AD JUMP JUMPDEST PUSH2 0x3A9E DUP2 DUP6 PUSH2 0x44F2 JUMP JUMPDEST SWAP4 POP PUSH2 0x3AAE DUP2 DUP6 PUSH1 0x20 DUP7 ADD PUSH2 0x4817 JUMP JUMPDEST PUSH2 0x3AB7 DUP2 PUSH2 0x4A26 JUMP JUMPDEST DUP5 ADD SWAP2 POP POP SWAP3 SWAP2 POP POP JUMP JUMPDEST PUSH1 0x0 PUSH2 0x3ACD DUP3 PUSH2 0x44AD JUMP JUMPDEST PUSH2 0x3AD7 DUP2 DUP6 PUSH2 0x4503 JUMP JUMPDEST SWAP4 POP PUSH2 0x3AE7 DUP2 DUP6 PUSH1 0x20 DUP7 ADD PUSH2 0x4817 JUMP JUMPDEST DUP1 DUP5 ADD SWAP2 POP POP SWAP3 SWAP2 POP POP JUMP JUMPDEST PUSH1 0x0 DUP2 SLOAD PUSH2 0x3B00 DUP2 PUSH2 0x484A JUMP JUMPDEST PUSH2 0x3B0A DUP2 DUP7 PUSH2 0x4503 JUMP JUMPDEST SWAP5 POP PUSH1 0x1 DUP3 AND PUSH1 0x0 DUP2 EQ PUSH2 0x3B25 JUMPI PUSH1 0x1 DUP2 EQ PUSH2 0x3B36 JUMPI PUSH2 0x3B69 JUMP JUMPDEST PUSH1 0xFF NOT DUP4 AND DUP7 MSTORE DUP2 DUP7 ADD SWAP4 POP PUSH2 0x3B69 JUMP JUMPDEST PUSH2 0x3B3F DUP6 PUSH2 0x4482 JUMP JUMPDEST PUSH1 0x0 JUMPDEST DUP4 DUP2 LT ISZERO PUSH2 0x3B61 JUMPI DUP2 SLOAD DUP2 DUP10 ADD MSTORE PUSH1 0x1 DUP3 ADD SWAP2 POP PUSH1 0x20 DUP2 ADD SWAP1 POP PUSH2 0x3B42 JUMP JUMPDEST DUP4 DUP9 ADD SWAP6 POP POP POP JUMPDEST POP POP POP SWAP3 SWAP2 POP POP JUMP JUMPDEST PUSH1 0x0 PUSH2 0x3B7F PUSH1 0x35 DUP4 PUSH2 0x44F2 JUMP JUMPDEST SWAP2 POP PUSH2 0x3B8A DUP3 PUSH2 0x4A44 JUMP JUMPDEST PUSH1 0x40 DUP3 ADD SWAP1 POP SWAP2 SWAP1 POP JUMP JUMPDEST PUSH1 0x0 PUSH2 0x3BA2 PUSH1 0x32 DUP4 PUSH2 0x44F2 JUMP JUMPDEST SWAP2 POP PUSH2 0x3BAD DUP3 PUSH2 0x4A93 JUMP JUMPDEST PUSH1 0x40 DUP3 ADD SWAP1 POP SWAP2 SWAP1 POP JUMP JUMPDEST PUSH1 0x0 PUSH2 0x3BC5 PUSH1 0x26 DUP4 PUSH2 0x44F2 JUMP JUMPDEST SWAP2 POP PUSH2 0x3BD0 DUP3 PUSH2 0x4AE2 JUMP JUMPDEST PUSH1 0x40 DUP3 ADD SWAP1 POP SWAP2 SWAP1 POP JUMP JUMPDEST PUSH1 0x0 PUSH2 0x3BE8 PUSH1 0x25 DUP4 PUSH2 0x44F2 JUMP JUMPDEST SWAP2 POP PUSH2 0x3BF3 DUP3 PUSH2 0x4B31 JUMP JUMPDEST PUSH1 0x40 DUP3 ADD SWAP1 POP SWAP2 SWAP1 POP JUMP JUMPDEST PUSH1 0x0 PUSH2 0x3C0B PUSH1 0x18 DUP4 PUSH2 0x44F2 JUMP JUMPDEST SWAP2 POP PUSH2 0x3C16 DUP3 PUSH2 0x4B80 JUMP JUMPDEST PUSH1 0x20 DUP3 ADD SWAP1 POP SWAP2 SWAP1 POP JUMP JUMPDEST PUSH1 0x0 PUSH2 0x3C2E PUSH1 0x1C DUP4 PUSH2 0x44F2 JUMP JUMPDEST SWAP2 POP PUSH2 0x3C39 DUP3 PUSH2 0x4BA9 JUMP JUMPDEST PUSH1 0x20 DUP3 ADD SWAP1 POP SWAP2 SWAP1 POP JUMP JUMPDEST PUSH1 0x0 PUSH2 0x3C51 PUSH1 0x14 DUP4 PUSH2 0x44F2 JUMP JUMPDEST SWAP2 POP PUSH2 0x3C5C DUP3 PUSH2 0x4BD2 JUMP JUMPDEST PUSH1 0x20 DUP3 ADD SWAP1 POP SWAP2 SWAP1 POP JUMP JUMPDEST PUSH1 0x0 PUSH2 0x3C74 PUSH1 0x23 DUP4 PUSH2 0x44F2 JUMP JUMPDEST SWAP2 POP PUSH2 0x3C7F DUP3 PUSH2 0x4BFB JUMP JUMPDEST PUSH1 0x40 DUP3 ADD SWAP1 POP SWAP2 SWAP1 POP JUMP JUMPDEST PUSH1 0x0 PUSH2 0x3C97 PUSH1 0x24 DUP4 PUSH2 0x44F2 JUMP JUMPDEST SWAP2 POP PUSH2 0x3CA2 DUP3 PUSH2 0x4C4A JUMP JUMPDEST PUSH1 0x40 DUP3 ADD SWAP1 POP SWAP2 SWAP1 POP JUMP JUMPDEST PUSH1 0x0 PUSH2 0x3CBA PUSH1 0x19 DUP4 PUSH2 0x44F2 JUMP JUMPDEST SWAP2 POP PUSH2 0x3CC5 DUP3 PUSH2 0x4C99 JUMP JUMPDEST PUSH1 0x20 DUP3 ADD SWAP1 POP SWAP2 SWAP1 POP JUMP JUMPDEST PUSH1 0x0 PUSH2 0x3CDD PUSH1 0x2E DUP4 PUSH2 0x44F2 JUMP JUMPDEST SWAP2 POP PUSH2 0x3CE8 DUP3 PUSH2 0x4CC2 JUMP JUMPDEST PUSH1 0x40 DUP3 ADD SWAP1 POP SWAP2 SWAP1 POP JUMP JUMPDEST PUSH1 0x0 PUSH2 0x3D00 PUSH1 0x2C DUP4 PUSH2 0x44F2 JUMP JUMPDEST SWAP2 POP PUSH2 0x3D0B DUP3 PUSH2 0x4D11 JUMP JUMPDEST PUSH1 0x40 DUP3 ADD SWAP1 POP SWAP2 SWAP1 POP JUMP JUMPDEST PUSH1 0x0 PUSH2 0x3D23 PUSH1 0x22 DUP4 PUSH2 0x44F2 JUMP JUMPDEST SWAP2 POP PUSH2 0x3D2E DUP3 PUSH2 0x4D60 JUMP JUMPDEST PUSH1 0x40 DUP3 ADD SWAP1 POP SWAP2 SWAP1 POP JUMP JUMPDEST PUSH1 0x0 PUSH2 0x3D46 PUSH1 0x38 DUP4 PUSH2 0x44F2 JUMP JUMPDEST SWAP2 POP PUSH2 0x3D51 DUP3 PUSH2 0x4DAF JUMP JUMPDEST PUSH1 0x40 DUP3 ADD SWAP1 POP SWAP2 SWAP1 POP JUMP JUMPDEST PUSH1 0x0 PUSH2 0x3D69 PUSH1 0x2A DUP4 PUSH2 0x44F2 JUMP JUMPDEST SWAP2 POP PUSH2 0x3D74 DUP3 PUSH2 0x4DFE JUMP JUMPDEST PUSH1 0x40 DUP3 ADD SWAP1 POP SWAP2 SWAP1 POP JUMP JUMPDEST PUSH1 0x0 PUSH2 0x3D8C PUSH1 0x29 DUP4 PUSH2 0x44F2 JUMP JUMPDEST SWAP2 POP PUSH2 0x3D97 DUP3 PUSH2 0x4E4D JUMP JUMPDEST PUSH1 0x40 DUP3 ADD SWAP1 POP SWAP2 SWAP1 POP JUMP JUMPDEST PUSH1 0x0 PUSH2 0x3DAF PUSH1 0x25 DUP4 PUSH2 0x44F2 JUMP JUMPDEST SWAP2 POP PUSH2 0x3DBA DUP3 PUSH2 0x4E9C JUMP JUMPDEST PUSH1 0x40 DUP3 ADD SWAP1 POP SWAP2 SWAP1 POP JUMP JUMPDEST PUSH1 0x0 PUSH2 0x3DD2 PUSH1 0x20 DUP4 PUSH2 0x44F2 JUMP JUMPDEST SWAP2 POP PUSH2 0x3DDD DUP3 PUSH2 0x4EEB JUMP JUMPDEST PUSH1 0x20 DUP3 ADD SWAP1 POP SWAP2 SWAP1 POP JUMP JUMPDEST PUSH1 0x0 PUSH2 0x3DF5 PUSH1 0x2C DUP4 PUSH2 0x44F2 JUMP JUMPDEST SWAP2 POP PUSH2 0x3E00 DUP3 PUSH2 0x4F14 JUMP JUMPDEST PUSH1 0x40 DUP3 ADD SWAP1 POP SWAP2 SWAP1 POP JUMP JUMPDEST PUSH1 0x0 PUSH2 0x3E18 PUSH1 0x20 DUP4 PUSH2 0x44F2 JUMP JUMPDEST SWAP2 POP PUSH2 0x3E23 DUP3 PUSH2 0x4F63 JUMP JUMPDEST PUSH1 0x20 DUP3 ADD SWAP1 POP SWAP2 SWAP1 POP JUMP JUMPDEST PUSH1 0x0 PUSH2 0x3E3B PUSH1 0x17 DUP4 PUSH2 0x44F2 JUMP JUMPDEST SWAP2 POP PUSH2 0x3E46 DUP3 PUSH2 0x4F8C JUMP JUMPDEST PUSH1 0x20 DUP3 ADD SWAP1 POP SWAP2 SWAP1 POP JUMP JUMPDEST PUSH1 0x0 PUSH2 0x3E5E PUSH1 0x2F DUP4 PUSH2 0x44F2 JUMP JUMPDEST SWAP2 POP PUSH2 0x3E69 DUP3 PUSH2 0x4FB5 JUMP JUMPDEST PUSH1 0x40 DUP3 ADD SWAP1 POP SWAP2 SWAP1 POP JUMP JUMPDEST PUSH1 0x0 PUSH2 0x3E81 PUSH1 0x21 DUP4 PUSH2 0x44F2 JUMP JUMPDEST SWAP2 POP PUSH2 0x3E8C DUP3 PUSH2 0x5004 JUMP JUMPDEST PUSH1 0x40 DUP3 ADD SWAP1 POP SWAP2 SWAP1 POP JUMP JUMPDEST PUSH1 0x0 PUSH2 0x3EA4 PUSH1 0x0 DUP4 PUSH2 0x44E7 JUMP JUMPDEST SWAP2 POP PUSH2 0x3EAF DUP3 PUSH2 0x5053 JUMP JUMPDEST PUSH1 0x0 DUP3 ADD SWAP1 POP SWAP2 SWAP1 POP JUMP JUMPDEST PUSH1 0x0 PUSH2 0x3EC7 PUSH1 0x31 DUP4 PUSH2 0x44F2 JUMP JUMPDEST SWAP2 POP PUSH2 0x3ED2 DUP3 PUSH2 0x5056 JUMP JUMPDEST PUSH1 0x40 DUP3 ADD SWAP1 POP SWAP2 SWAP1 POP JUMP JUMPDEST PUSH1 0x0 PUSH2 0x3EEA PUSH1 0x1F DUP4 PUSH2 0x44F2 JUMP JUMPDEST SWAP2 POP PUSH2 0x3EF5 DUP3 PUSH2 0x50A5 JUMP JUMPDEST PUSH1 0x20 DUP3 ADD SWAP1 POP SWAP2 SWAP1 POP JUMP JUMPDEST PUSH1 0x0 PUSH2 0x3F0D PUSH1 0x30 DUP4 PUSH2 0x44F2 JUMP JUMPDEST SWAP2 POP PUSH2 0x3F18 DUP3 PUSH2 0x50CE JUMP JUMPDEST PUSH1 0x40 DUP3 ADD SWAP1 POP SWAP2 SWAP1 POP JUMP JUMPDEST PUSH1 0x0 PUSH2 0x3F30 PUSH1 0x1F DUP4 PUSH2 0x44F2 JUMP JUMPDEST SWAP2 POP PUSH2 0x3F3B DUP3 PUSH2 0x511D JUMP JUMPDEST PUSH1 0x20 DUP3 ADD SWAP1 POP SWAP2 SWAP1 POP JUMP JUMPDEST PUSH2 0x3F4F DUP2 PUSH2 0x47FE JUMP JUMPDEST DUP3 MSTORE POP POP JUMP JUMPDEST PUSH2 0x3F5E DUP2 PUSH2 0x47FE JUMP JUMPDEST DUP3 MSTORE POP POP JUMP JUMPDEST PUSH1 0x0 PUSH2 0x3F70 DUP3 DUP7 PUSH2 0x3AC2 JUMP JUMPDEST SWAP2 POP PUSH2 0x3F7C DUP3 DUP6 PUSH2 0x3AC2 JUMP JUMPDEST SWAP2 POP PUSH2 0x3F88 DUP3 DUP5 PUSH2 0x3AF3 JUMP JUMPDEST SWAP2 POP DUP2 SWAP1 POP SWAP5 SWAP4 POP POP POP POP JUMP JUMPDEST PUSH1 0x0 PUSH2 0x3FA0 DUP3 PUSH2 0x3E97 JUMP JUMPDEST SWAP2 POP DUP2 SWAP1 POP SWAP2 SWAP1 POP JUMP JUMPDEST PUSH1 0x0 PUSH1 0x20 DUP3 ADD SWAP1 POP PUSH2 0x3FBF PUSH1 0x0 DUP4 ADD DUP5 PUSH2 0x39D4 JUMP JUMPDEST SWAP3 SWAP2 POP POP JUMP JUMPDEST PUSH1 0x0 PUSH1 0x80 DUP3 ADD SWAP1 POP PUSH2 0x3FDA PUSH1 0x0 DUP4 ADD DUP8 PUSH2 0x39D4 JUMP JUMPDEST PUSH2 0x3FE7 PUSH1 0x20 DUP4 ADD DUP7 PUSH2 0x39D4 JUMP JUMPDEST PUSH2 0x3FF4 PUSH1 0x40 DUP4 ADD DUP6 PUSH2 0x3F55 JUMP JUMPDEST DUP2 DUP2 SUB PUSH1 0x60 DUP4 ADD MSTORE PUSH2 0x4006 DUP2 DUP5 PUSH2 0x3A50 JUMP JUMPDEST SWAP1 POP SWAP6 SWAP5 POP POP POP POP POP JUMP JUMPDEST PUSH1 0x0 PUSH1 0x20 DUP3 ADD SWAP1 POP DUP2 DUP2 SUB PUSH1 0x0 DUP4 ADD MSTORE PUSH2 0x402B DUP2 DUP5 PUSH2 0x39E3 JUMP JUMPDEST SWAP1 POP SWAP3 SWAP2 POP POP JUMP JUMPDEST PUSH1 0x0 PUSH1 0x20 DUP3 ADD SWAP1 POP PUSH2 0x4048 PUSH1 0x0 DUP4 ADD DUP5 PUSH2 0x3A41 JUMP JUMPDEST SWAP3 SWAP2 POP POP JUMP JUMPDEST PUSH1 0x0 PUSH1 0x20 DUP3 ADD SWAP1 POP DUP2 DUP2 SUB PUSH1 0x0 DUP4 ADD MSTORE PUSH2 0x4068 DUP2 DUP5 PUSH2 0x3A89 JUMP JUMPDEST SWAP1 POP SWAP3 SWAP2 POP POP JUMP JUMPDEST PUSH1 0x0 PUSH1 0x20 DUP3 ADD SWAP1 POP DUP2 DUP2 SUB PUSH1 0x0 DUP4 ADD MSTORE PUSH2 0x4089 DUP2 PUSH2 0x3B72 JUMP JUMPDEST SWAP1 POP SWAP2 SWAP1 POP JUMP JUMPDEST PUSH1 0x0 PUSH1 0x20 DUP3 ADD SWAP1 POP DUP2 DUP2 SUB PUSH1 0x0 DUP4 ADD MSTORE PUSH2 0x40A9 DUP2 PUSH2 0x3B95 JUMP JUMPDEST SWAP1 POP SWAP2 SWAP1 POP JUMP JUMPDEST PUSH1 0x0 PUSH1 0x20 DUP3 ADD SWAP1 POP DUP2 DUP2 SUB PUSH1 0x0 DUP4 ADD MSTORE PUSH2 0x40C9 DUP2 PUSH2 0x3BB8 JUMP JUMPDEST SWAP1 POP SWAP2 SWAP1 POP JUMP JUMPDEST PUSH1 0x0 PUSH1 0x20 DUP3 ADD SWAP1 POP DUP2 DUP2 SUB PUSH1 0x0 DUP4 ADD MSTORE PUSH2 0x40E9 DUP2 PUSH2 0x3BDB JUMP JUMPDEST SWAP1 POP SWAP2 SWAP1 POP JUMP JUMPDEST PUSH1 0x0 PUSH1 0x20 DUP3 ADD SWAP1 POP DUP2 DUP2 SUB PUSH1 0x0 DUP4 ADD MSTORE PUSH2 0x4109 DUP2 PUSH2 0x3BFE JUMP JUMPDEST SWAP1 POP SWAP2 SWAP1 POP JUMP JUMPDEST PUSH1 0x0 PUSH1 0x20 DUP3 ADD SWAP1 POP DUP2 DUP2 SUB PUSH1 0x0 DUP4 ADD MSTORE PUSH2 0x4129 DUP2 PUSH2 0x3C21 JUMP JUMPDEST SWAP1 POP SWAP2 SWAP1 POP JUMP JUMPDEST PUSH1 0x0 PUSH1 0x20 DUP3 ADD SWAP1 POP DUP2 DUP2 SUB PUSH1 0x0 DUP4 ADD MSTORE PUSH2 0x4149 DUP2 PUSH2 0x3C44 JUMP JUMPDEST SWAP1 POP SWAP2 SWAP1 POP JUMP JUMPDEST PUSH1 0x0 PUSH1 0x20 DUP3 ADD SWAP1 POP DUP2 DUP2 SUB PUSH1 0x0 DUP4 ADD MSTORE PUSH2 0x4169 DUP2 PUSH2 0x3C67 JUMP JUMPDEST SWAP1 POP SWAP2 SWAP1 POP JUMP JUMPDEST PUSH1 0x0 PUSH1 0x20 DUP3 ADD SWAP1 POP DUP2 DUP2 SUB PUSH1 0x0 DUP4 ADD MSTORE PUSH2 0x4189 DUP2 PUSH2 0x3C8A JUMP JUMPDEST SWAP1 POP SWAP2 SWAP1 POP JUMP JUMPDEST PUSH1 0x0 PUSH1 0x20 DUP3 ADD SWAP1 POP DUP2 DUP2 SUB PUSH1 0x0 DUP4 ADD MSTORE PUSH2 0x41A9 DUP2 PUSH2 0x3CAD JUMP JUMPDEST SWAP1 POP SWAP2 SWAP1 POP JUMP JUMPDEST PUSH1 0x0 PUSH1 0x20 DUP3 ADD SWAP1 POP DUP2 DUP2 SUB PUSH1 0x0 DUP4 ADD MSTORE PUSH2 0x41C9 DUP2 PUSH2 0x3CD0 JUMP JUMPDEST SWAP1 POP SWAP2 SWAP1 POP JUMP JUMPDEST PUSH1 0x0 PUSH1 0x20 DUP3 ADD SWAP1 POP DUP2 DUP2 SUB PUSH1 0x0 DUP4 ADD MSTORE PUSH2 0x41E9 DUP2 PUSH2 0x3CF3 JUMP JUMPDEST SWAP1 POP SWAP2 SWAP1 POP JUMP JUMPDEST PUSH1 0x0 PUSH1 0x20 DUP3 ADD SWAP1 POP DUP2 DUP2 SUB PUSH1 0x0 DUP4 ADD MSTORE PUSH2 0x4209 DUP2 PUSH2 0x3D16 JUMP JUMPDEST SWAP1 POP SWAP2 SWAP1 POP JUMP JUMPDEST PUSH1 0x0 PUSH1 0x20 DUP3 ADD SWAP1 POP DUP2 DUP2 SUB PUSH1 0x0 DUP4 ADD MSTORE PUSH2 0x4229 DUP2 PUSH2 0x3D39 JUMP JUMPDEST SWAP1 POP SWAP2 SWAP1 POP JUMP JUMPDEST PUSH1 0x0 PUSH1 0x20 DUP3 ADD SWAP1 POP DUP2 DUP2 SUB PUSH1 0x0 DUP4 ADD MSTORE PUSH2 0x4249 DUP2 PUSH2 0x3D5C JUMP JUMPDEST SWAP1 POP SWAP2 SWAP1 POP JUMP JUMPDEST PUSH1 0x0 PUSH1 0x20 DUP3 ADD SWAP1 POP DUP2 DUP2 SUB PUSH1 0x0 DUP4 ADD MSTORE PUSH2 0x4269 DUP2 PUSH2 0x3D7F JUMP JUMPDEST SWAP1 POP SWAP2 SWAP1 POP JUMP JUMPDEST PUSH1 0x0 PUSH1 0x20 DUP3 ADD SWAP1 POP DUP2 DUP2 SUB PUSH1 0x0 DUP4 ADD MSTORE PUSH2 0x4289 DUP2 PUSH2 0x3DA2 JUMP JUMPDEST SWAP1 POP SWAP2 SWAP1 POP JUMP JUMPDEST PUSH1 0x0 PUSH1 0x20 DUP3 ADD SWAP1 POP DUP2 DUP2 SUB PUSH1 0x0 DUP4 ADD MSTORE PUSH2 0x42A9 DUP2 PUSH2 0x3DC5 JUMP JUMPDEST SWAP1 POP SWAP2 SWAP1 POP JUMP JUMPDEST PUSH1 0x0 PUSH1 0x20 DUP3 ADD SWAP1 POP DUP2 DUP2 SUB PUSH1 0x0 DUP4 ADD MSTORE PUSH2 0x42C9 DUP2 PUSH2 0x3DE8 JUMP JUMPDEST SWAP1 POP SWAP2 SWAP1 POP JUMP JUMPDEST PUSH1 0x0 PUSH1 0x20 DUP3 ADD SWAP1 POP DUP2 DUP2 SUB PUSH1 0x0 DUP4 ADD MSTORE PUSH2 0x42E9 DUP2 PUSH2 0x3E0B JUMP JUMPDEST SWAP1 POP SWAP2 SWAP1 POP JUMP JUMPDEST PUSH1 0x0 PUSH1 0x20 DUP3 ADD SWAP1 POP DUP2 DUP2 SUB PUSH1 0x0 DUP4 ADD MSTORE PUSH2 0x4309 DUP2 PUSH2 0x3E2E JUMP JUMPDEST SWAP1 POP SWAP2 SWAP1 POP JUMP JUMPDEST PUSH1 0x0 PUSH1 0x20 DUP3 ADD SWAP1 POP DUP2 DUP2 SUB PUSH1 0x0 DUP4 ADD MSTORE PUSH2 0x4329 DUP2 PUSH2 0x3E51 JUMP JUMPDEST SWAP1 POP SWAP2 SWAP1 POP JUMP JUMPDEST PUSH1 0x0 PUSH1 0x20 DUP3 ADD SWAP1 POP DUP2 DUP2 SUB PUSH1 0x0 DUP4 ADD MSTORE PUSH2 0x4349 DUP2 PUSH2 0x3E74 JUMP JUMPDEST SWAP1 POP SWAP2 SWAP1 POP JUMP JUMPDEST PUSH1 0x0 PUSH1 0x20 DUP3 ADD SWAP1 POP DUP2 DUP2 SUB PUSH1 0x0 DUP4 ADD MSTORE PUSH2 0x4369 DUP2 PUSH2 0x3EBA JUMP JUMPDEST SWAP1 POP SWAP2 SWAP1 POP JUMP JUMPDEST PUSH1 0x0 PUSH1 0x20 DUP3 ADD SWAP1 POP DUP2 DUP2 SUB PUSH1 0x0 DUP4 ADD MSTORE PUSH2 0x4389 DUP2 PUSH2 0x3EDD JUMP JUMPDEST SWAP1 POP SWAP2 SWAP1 POP JUMP JUMPDEST PUSH1 0x0 PUSH1 0x20 DUP3 ADD SWAP1 POP DUP2 DUP2 SUB PUSH1 0x0 DUP4 ADD MSTORE PUSH2 0x43A9 DUP2 PUSH2 0x3F00 JUMP JUMPDEST SWAP1 POP SWAP2 SWAP1 POP JUMP JUMPDEST PUSH1 0x0 PUSH1 0x20 DUP3 ADD SWAP1 POP DUP2 DUP2 SUB PUSH1 0x0 DUP4 ADD MSTORE PUSH2 0x43C9 DUP2 PUSH2 0x3F23 JUMP JUMPDEST SWAP1 POP SWAP2 SWAP1 POP JUMP JUMPDEST PUSH1 0x0 PUSH1 0x20 DUP3 ADD SWAP1 POP PUSH2 0x43E5 PUSH1 0x0 DUP4 ADD DUP5 PUSH2 0x3F55 JUMP JUMPDEST SWAP3 SWAP2 POP POP JUMP JUMPDEST PUSH1 0x0 PUSH2 0x43F5 PUSH2 0x4406 JUMP JUMPDEST SWAP1 POP PUSH2 0x4401 DUP3 DUP3 PUSH2 0x487C JUMP JUMPDEST SWAP2 SWAP1 POP JUMP JUMPDEST PUSH1 0x0 PUSH1 0x40 MLOAD SWAP1 POP SWAP1 JUMP JUMPDEST PUSH1 0x0 PUSH8 0xFFFFFFFFFFFFFFFF DUP3 GT ISZERO PUSH2 0x442B JUMPI PUSH2 0x442A PUSH2 0x49E3 JUMP JUMPDEST JUMPDEST PUSH2 0x4434 DUP3 PUSH2 0x4A26 JUMP JUMPDEST SWAP1 POP PUSH1 0x20 DUP2 ADD SWAP1 POP SWAP2 SWAP1 POP JUMP JUMPDEST PUSH1 0x0 PUSH8 0xFFFFFFFFFFFFFFFF DUP3 GT ISZERO PUSH2 0x445C JUMPI PUSH2 0x445B PUSH2 0x49E3 JUMP JUMPDEST JUMPDEST PUSH2 0x4465 DUP3 PUSH2 0x4A26 JUMP JUMPDEST SWAP1 POP PUSH1 0x20 DUP2 ADD SWAP1 POP SWAP2 SWAP1 POP JUMP JUMPDEST PUSH1 0x0 DUP2 SWAP1 POP PUSH1 0x20 DUP3 ADD SWAP1 POP SWAP2 SWAP1 POP JUMP JUMPDEST PUSH1 0x0 DUP2 SWAP1 POP DUP2 PUSH1 0x0 MSTORE PUSH1 0x20 PUSH1 0x0 KECCAK256 SWAP1 POP SWAP2 SWAP1 POP JUMP JUMPDEST PUSH1 0x0 DUP2 MLOAD SWAP1 POP SWAP2 SWAP1 POP JUMP JUMPDEST PUSH1 0x0 DUP2 MLOAD SWAP1 POP SWAP2 SWAP1 POP JUMP JUMPDEST PUSH1 0x0 DUP2 MLOAD SWAP1 POP SWAP2 SWAP1 POP JUMP JUMPDEST PUSH1 0x0 PUSH1 0x20 DUP3 ADD SWAP1 POP SWAP2 SWAP1 POP JUMP JUMPDEST PUSH1 0x0 DUP3 DUP3 MSTORE PUSH1 0x20 DUP3 ADD SWAP1 POP SWAP3 SWAP2 POP POP JUMP JUMPDEST PUSH1 0x0 DUP3 DUP3 MSTORE PUSH1 0x20 DUP3 ADD SWAP1 POP SWAP3 SWAP2 POP POP JUMP JUMPDEST PUSH1 0x0 DUP2 SWAP1 POP SWAP3 SWAP2 POP POP JUMP JUMPDEST PUSH1 0x0 DUP3 DUP3 MSTORE PUSH1 0x20 DUP3 ADD SWAP1 POP SWAP3 SWAP2 POP POP JUMP JUMPDEST PUSH1 0x0 DUP2 SWAP1 POP SWAP3 SWAP2 POP POP JUMP JUMPDEST PUSH1 0x0 PUSH2 0x4519 DUP3 PUSH2 0x47FE JUMP JUMPDEST SWAP2 POP PUSH2 0x4524 DUP4 PUSH2 0x47FE JUMP JUMPDEST SWAP3 POP DUP3 PUSH32 0xFFFFFFFFFFFFFFFFFFFFFFFFFFFFFFFFFFFFFFFFFFFFFFFFFFFFFFFFFFFFFFFF SUB DUP3 GT ISZERO PUSH2 0x4559 JUMPI PUSH2 0x4558 PUSH2 0x4927 JUMP JUMPDEST JUMPDEST DUP3 DUP3 ADD SWAP1 POP SWAP3 SWAP2 POP POP JUMP JUMPDEST PUSH1 0x0 PUSH2 0x456F DUP3 PUSH2 0x47FE JUMP JUMPDEST SWAP2 POP PUSH2 0x457A DUP4 PUSH2 0x47FE JUMP JUMPDEST SWAP3 POP DUP3 PUSH2 0x458A JUMPI PUSH2 0x4589 PUSH2 0x4956 JUMP JUMPDEST JUMPDEST DUP3 DUP3 DIV SWAP1 POP SWAP3 SWAP2 POP POP JUMP JUMPDEST PUSH1 0x0 DUP1 DUP3 SWAP2 POP DUP4 SWAP1 POP JUMPDEST PUSH1 0x1 DUP6 GT ISZERO PUSH2 0x45DF JUMPI DUP1 DUP7 DIV DUP2 GT ISZERO PUSH2 0x45BB JUMPI PUSH2 0x45BA PUSH2 0x4927 JUMP JUMPDEST JUMPDEST PUSH1 0x1 DUP6 AND ISZERO PUSH2 0x45CA JUMPI DUP1 DUP3 MUL SWAP2 POP JUMPDEST DUP1 DUP2 MUL SWAP1 POP PUSH2 0x45D8 DUP6 PUSH2 0x4A37 JUMP JUMPDEST SWAP5 POP PUSH2 0x459F JUMP JUMPDEST SWAP5 POP SWAP5 SWAP3 POP POP POP JUMP JUMPDEST PUSH1 0x0 PUSH2 0x45F3 DUP3 PUSH2 0x47FE JUMP JUMPDEST SWAP2 POP PUSH2 0x45FE DUP4 PUSH2 0x47FE JUMP JUMPDEST SWAP3 POP PUSH2 0x462B PUSH32 0xFFFFFFFFFFFFFFFFFFFFFFFFFFFFFFFFFFFFFFFFFFFFFFFFFFFFFFFFFFFFFFFF DUP5 DUP5 PUSH2 0x4633 JUMP JUMPDEST SWAP1 POP SWAP3 SWAP2 POP POP JUMP JUMPDEST PUSH1 0x0 DUP3 PUSH2 0x4643 JUMPI PUSH1 0x1 SWAP1 POP PUSH2 0x46FF JUMP JUMPDEST DUP2 PUSH2 0x4651 JUMPI PUSH1 0x0 SWAP1 POP PUSH2 0x46FF JUMP JUMPDEST DUP2 PUSH1 0x1 DUP2 EQ PUSH2 0x4667 JUMPI PUSH1 0x2 DUP2 EQ PUSH2 0x4671 JUMPI PUSH2 0x46A0 JUMP JUMPDEST PUSH1 0x1 SWAP2 POP POP PUSH2 0x46FF JUMP JUMPDEST PUSH1 0xFF DUP5 GT ISZERO PUSH2 0x4683 JUMPI PUSH2 0x4682 PUSH2 0x4927 JUMP JUMPDEST JUMPDEST DUP4 PUSH1 0x2 EXP SWAP2 POP DUP5 DUP3 GT ISZERO PUSH2 0x469A JUMPI PUSH2 0x4699 PUSH2 0x4927 JUMP JUMPDEST JUMPDEST POP PUSH2 0x46FF JUMP JUMPDEST POP PUSH1 0x20 DUP4 LT PUSH2 0x133 DUP4 LT AND PUSH1 0x4E DUP5 LT PUSH1 0xB DUP5 LT AND OR ISZERO PUSH2 0x46D5 JUMPI DUP3 DUP3 EXP SWAP1 POP DUP4 DUP2 GT ISZERO PUSH2 0x46D0 JUMPI PUSH2 0x46CF PUSH2 0x4927 JUMP JUMPDEST JUMPDEST PUSH2 0x46FF JUMP JUMPDEST PUSH2 0x46E2 DUP5 DUP5 DUP5 PUSH1 0x1 PUSH2 0x4595 JUMP JUMPDEST SWAP3 POP SWAP1 POP DUP2 DUP5 DIV DUP2 GT ISZERO PUSH2 0x46F9 JUMPI PUSH2 0x46F8 PUSH2 0x4927 JUMP JUMPDEST JUMPDEST DUP2 DUP2 MUL SWAP1 POP JUMPDEST SWAP4 SWAP3 POP POP POP JUMP JUMPDEST PUSH1 0x0 PUSH2 0x4711 DUP3 PUSH2 0x47FE JUMP JUMPDEST SWAP2 POP PUSH2 0x471C DUP4 PUSH2 0x47FE JUMP JUMPDEST SWAP3 POP DUP2 PUSH32 0xFFFFFFFFFFFFFFFFFFFFFFFFFFFFFFFFFFFFFFFFFFFFFFFFFFFFFFFFFFFFFFFF DIV DUP4 GT DUP3 ISZERO ISZERO AND ISZERO PUSH2 0x4755 JUMPI PUSH2 0x4754 PUSH2 0x4927 JUMP JUMPDEST JUMPDEST DUP3 DUP3 MUL SWAP1 POP SWAP3 SWAP2 POP POP JUMP JUMPDEST PUSH1 0x0 PUSH2 0x476B DUP3 PUSH2 0x47FE JUMP JUMPDEST SWAP2 POP PUSH2 0x4776 DUP4 PUSH2 0x47FE JUMP JUMPDEST SWAP3 POP DUP3 DUP3 LT ISZERO PUSH2 0x4789 JUMPI PUSH2 0x4788 PUSH2 0x4927 JUMP JUMPDEST JUMPDEST DUP3 DUP3 SUB SWAP1 POP SWAP3 SWAP2 POP POP JUMP JUMPDEST PUSH1 0x0 PUSH2 0x479F DUP3 PUSH2 0x47DE JUMP JUMPDEST SWAP1 POP SWAP2 SWAP1 POP JUMP JUMPDEST PUSH1 0x0 DUP2 ISZERO ISZERO SWAP1 POP SWAP2 SWAP1 POP JUMP JUMPDEST PUSH1 0x0 PUSH32 0xFFFFFFFF00000000000000000000000000000000000000000000000000000000 DUP3 AND SWAP1 POP SWAP2 SWAP1 POP JUMP JUMPDEST PUSH1 0x0 PUSH20 0xFFFFFFFFFFFFFFFFFFFFFFFFFFFFFFFFFFFFFFFF DUP3 AND SWAP1 POP SWAP2 SWAP1 POP JUMP JUMPDEST PUSH1 0x0 DUP2 SWAP1 POP SWAP2 SWAP1 POP JUMP JUMPDEST DUP3 DUP2 DUP4 CALLDATACOPY PUSH1 0x0 DUP4 DUP4 ADD MSTORE POP POP POP JUMP JUMPDEST PUSH1 0x0 JUMPDEST DUP4 DUP2 LT ISZERO PUSH2 0x4835 JUMPI DUP1 DUP3 ADD MLOAD DUP2 DUP5 ADD MSTORE PUSH1 0x20 DUP2 ADD SWAP1 POP PUSH2 0x481A JUMP JUMPDEST DUP4 DUP2 GT ISZERO PUSH2 0x4844 JUMPI PUSH1 0x0 DUP5 DUP5 ADD MSTORE JUMPDEST POP POP POP POP JUMP JUMPDEST PUSH1 0x0 PUSH1 0x2 DUP3 DIV SWAP1 POP PUSH1 0x1 DUP3 AND DUP1 PUSH2 0x4862 JUMPI PUSH1 0x7F DUP3 AND SWAP2 POP JUMPDEST PUSH1 0x20 DUP3 LT DUP2 EQ ISZERO PUSH2 0x4876 JUMPI PUSH2 0x4875 PUSH2 0x4985 JUMP JUMPDEST JUMPDEST POP SWAP2 SWAP1 POP JUMP JUMPDEST PUSH2 0x4885 DUP3 PUSH2 0x4A26 JUMP JUMPDEST DUP2 ADD DUP2 DUP2 LT PUSH8 0xFFFFFFFFFFFFFFFF DUP3 GT OR ISZERO PUSH2 0x48A4 JUMPI PUSH2 0x48A3 PUSH2 0x49E3 JUMP JUMPDEST JUMPDEST DUP1 PUSH1 0x40 MSTORE POP POP POP JUMP JUMPDEST PUSH1 0x0 PUSH2 0x48B8 DUP3 PUSH2 0x47FE JUMP JUMPDEST SWAP2 POP PUSH32 0xFFFFFFFFFFFFFFFFFFFFFFFFFFFFFFFFFFFFFFFFFFFFFFFFFFFFFFFFFFFFFFFF DUP3 EQ ISZERO PUSH2 0x48EB JUMPI PUSH2 0x48EA PUSH2 0x4927 JUMP JUMPDEST JUMPDEST PUSH1 0x1 DUP3 ADD SWAP1 POP SWAP2 SWAP1 POP JUMP JUMPDEST PUSH1 0x0 PUSH2 0x4901 DUP3 PUSH2 0x47FE JUMP JUMPDEST SWAP2 POP PUSH2 0x490C DUP4 PUSH2 0x47FE JUMP JUMPDEST SWAP3 POP DUP3 PUSH2 0x491C JUMPI PUSH2 0x491B PUSH2 0x4956 JUMP JUMPDEST JUMPDEST DUP3 DUP3 MOD SWAP1 POP SWAP3 SWAP2 POP POP JUMP JUMPDEST PUSH32 0x4E487B7100000000000000000000000000000000000000000000000000000000 PUSH1 0x0 MSTORE PUSH1 0x11 PUSH1 0x4 MSTORE PUSH1 0x24 PUSH1 0x0 REVERT JUMPDEST PUSH32 0x4E487B7100000000000000000000000000000000000000000000000000000000 PUSH1 0x0 MSTORE PUSH1 0x12 PUSH1 0x4 MSTORE PUSH1 0x24 PUSH1 0x0 REVERT JUMPDEST PUSH32 0x4E487B7100000000000000000000000000000000000000000000000000000000 PUSH1 0x0 MSTORE PUSH1 0x22 PUSH1 0x4 MSTORE PUSH1 0x24 PUSH1 0x0 REVERT JUMPDEST PUSH32 0x4E487B7100000000000000000000000000000000000000000000000000000000 PUSH1 0x0 MSTORE PUSH1 0x32 PUSH1 0x4 MSTORE PUSH1 0x24 PUSH1 0x0 REVERT JUMPDEST PUSH32 0x4E487B7100000000000000000000000000000000000000000000000000000000 PUSH1 0x0 MSTORE PUSH1 0x41 PUSH1 0x4 MSTORE PUSH1 0x24 PUSH1 0x0 REVERT JUMPDEST PUSH1 0x0 DUP1 REVERT JUMPDEST PUSH1 0x0 DUP1 REVERT JUMPDEST PUSH1 0x0 DUP1 REVERT JUMPDEST PUSH1 0x0 DUP1 REVERT JUMPDEST PUSH1 0x0 PUSH1 0x1F NOT PUSH1 0x1F DUP4 ADD AND SWAP1 POP SWAP2 SWAP1 POP JUMP JUMPDEST PUSH1 0x0 DUP2 PUSH1 0x1 SHR SWAP1 POP SWAP2 SWAP1 POP JUMP JUMPDEST PUSH32 0x5468652067616D65206973206F6E676F696E672C207765206861766520746865 PUSH1 0x0 DUP3 ADD MSTORE PUSH32 0x207761697420666F72207468652077696E6E6572210000000000000000000000 PUSH1 0x20 DUP3 ADD MSTORE POP JUMP JUMPDEST PUSH32 0x4552433732313A207472616E7366657220746F206E6F6E204552433732315265 PUSH1 0x0 DUP3 ADD MSTORE PUSH32 0x63656976657220696D706C656D656E7465720000000000000000000000000000 PUSH1 0x20 DUP3 ADD MSTORE POP JUMP JUMPDEST PUSH32 0x4F776E61626C653A206E6577206F776E657220697320746865207A65726F2061 PUSH1 0x0 DUP3 ADD MSTORE PUSH32 0x6464726573730000000000000000000000000000000000000000000000000000 PUSH1 0x20 DUP3 ADD MSTORE POP JUMP JUMPDEST PUSH32 0x4552433732313A207472616E736665722066726F6D20696E636F727265637420 PUSH1 0x0 DUP3 ADD MSTORE PUSH32 0x6F776E6572000000000000000000000000000000000000000000000000000000 PUSH1 0x20 DUP3 ADD MSTORE POP JUMP JUMPDEST PUSH32 0x6D61782050657065206C696D69742065786365656465642E0000000000000000 PUSH1 0x0 DUP3 ADD MSTORE POP JUMP JUMPDEST PUSH32 0x4552433732313A20746F6B656E20616C7265616479206D696E74656400000000 PUSH1 0x0 DUP3 ADD MSTORE POP JUMP JUMPDEST PUSH32 0x496E76616C6964206D696E7420616D6F756E7421000000000000000000000000 PUSH1 0x0 DUP3 ADD MSTORE POP JUMP JUMPDEST PUSH32 0x596F75207265616368206D6178696D756D205065706520706572206164647265 PUSH1 0x0 DUP3 ADD MSTORE PUSH32 0x7373210000000000000000000000000000000000000000000000000000000000 PUSH1 0x20 DUP3 ADD MSTORE POP JUMP JUMPDEST PUSH32 0x4552433732313A207472616E7366657220746F20746865207A65726F20616464 PUSH1 0x0 DUP3 ADD MSTORE PUSH32 0x7265737300000000000000000000000000000000000000000000000000000000 PUSH1 0x20 DUP3 ADD MSTORE POP JUMP JUMPDEST PUSH32 0x4552433732313A20617070726F766520746F2063616C6C657200000000000000 PUSH1 0x0 DUP3 ADD MSTORE POP JUMP JUMPDEST PUSH32 0x5468652067616D6520697320656E6465642C20776520616C7265616479206861 PUSH1 0x0 DUP3 ADD MSTORE PUSH32 0x7665207468652077696E6E657221000000000000000000000000000000000000 PUSH1 0x20 DUP3 ADD MSTORE POP JUMP JUMPDEST PUSH32 0x4552433732313A206F70657261746F7220717565727920666F72206E6F6E6578 PUSH1 0x0 DUP3 ADD MSTORE PUSH32 0x697374656E7420746F6B656E0000000000000000000000000000000000000000 PUSH1 0x20 DUP3 ADD MSTORE POP JUMP JUMPDEST PUSH32 0x596F7520726561636820746865206C696D6974206F66206D617820737570706C PUSH1 0x0 DUP3 ADD MSTORE PUSH32 0x792E000000000000000000000000000000000000000000000000000000000000 PUSH1 0x20 DUP3 ADD MSTORE POP JUMP JUMPDEST PUSH32 0x4552433732313A20617070726F76652063616C6C6572206973206E6F74206F77 PUSH1 0x0 DUP3 ADD MSTORE PUSH32 0x6E6572206E6F7220617070726F76656420666F7220616C6C0000000000000000 PUSH1 0x20 DUP3 ADD MSTORE POP JUMP JUMPDEST PUSH32 0x4552433732313A2062616C616E636520717565727920666F7220746865207A65 PUSH1 0x0 DUP3 ADD MSTORE PUSH32 0x726F206164647265737300000000000000000000000000000000000000000000 PUSH1 0x20 DUP3 ADD MSTORE POP JUMP JUMPDEST PUSH32 0x4552433732313A206F776E657220717565727920666F72206E6F6E6578697374 PUSH1 0x0 DUP3 ADD MSTORE PUSH32 0x656E7420746F6B656E0000000000000000000000000000000000000000000000 PUSH1 0x20 DUP3 ADD MSTORE POP JUMP JUMPDEST PUSH32 0x50756D70206D617820737570706C79203A20696E73756666696369656E742066 PUSH1 0x0 DUP3 ADD MSTORE PUSH32 0x756E64732E000000000000000000000000000000000000000000000000000000 PUSH1 0x20 DUP3 ADD MSTORE POP JUMP JUMPDEST PUSH32 0x4552433732313A206D696E7420746F20746865207A65726F2061646472657373 PUSH1 0x0 DUP3 ADD MSTORE POP JUMP JUMPDEST PUSH32 0x4552433732313A20617070726F76656420717565727920666F72206E6F6E6578 PUSH1 0x0 DUP3 ADD MSTORE PUSH32 0x697374656E7420746F6B656E0000000000000000000000000000000000000000 PUSH1 0x20 DUP3 ADD MSTORE POP JUMP JUMPDEST PUSH32 0x4F776E61626C653A2063616C6C6572206973206E6F7420746865206F776E6572 PUSH1 0x0 DUP3 ADD MSTORE POP JUMP JUMPDEST PUSH32 0x54686520636F6E74726163742069732070617573656421000000000000000000 PUSH1 0x0 DUP3 ADD MSTORE POP JUMP JUMPDEST PUSH32 0x4552433732314D657461646174613A2055524920717565727920666F72206E6F PUSH1 0x0 DUP3 ADD MSTORE PUSH32 0x6E6578697374656E7420746F6B656E0000000000000000000000000000000000 PUSH1 0x20 DUP3 ADD MSTORE POP JUMP JUMPDEST PUSH32 0x4552433732313A20617070726F76616C20746F2063757272656E74206F776E65 PUSH1 0x0 DUP3 ADD MSTORE PUSH32 0x7200000000000000000000000000000000000000000000000000000000000000 PUSH1 0x20 DUP3 ADD MSTORE POP JUMP JUMPDEST POP JUMP JUMPDEST PUSH32 0x4552433732313A207472616E736665722063616C6C6572206973206E6F74206F PUSH1 0x0 DUP3 ADD MSTORE PUSH32 0x776E6572206E6F7220617070726F766564000000000000000000000000000000 PUSH1 0x20 DUP3 ADD MSTORE POP JUMP JUMPDEST PUSH32 0x5265656E7472616E637947756172643A207265656E7472616E742063616C6C00 PUSH1 0x0 DUP3 ADD MSTORE POP JUMP JUMPDEST PUSH32 0x4552433732314275726E61626C653A2063616C6C6572206973206E6F74206F77 PUSH1 0x0 DUP3 ADD MSTORE PUSH32 0x6E6572206E6F7220617070726F76656400000000000000000000000000000000 PUSH1 0x20 DUP3 ADD MSTORE POP JUMP JUMPDEST PUSH32 0x4D696E742050657065203A20696E73756666696369656E742066756E64732E00 PUSH1 0x0 DUP3 ADD MSTORE POP JUMP JUMPDEST PUSH2 0x514F DUP2 PUSH2 0x4794 JUMP JUMPDEST DUP2 EQ PUSH2 0x515A JUMPI PUSH1 0x0 DUP1 REVERT JUMPDEST POP JUMP JUMPDEST PUSH2 0x5166 DUP2 PUSH2 0x47A6 JUMP JUMPDEST DUP2 EQ PUSH2 0x5171 JUMPI PUSH1 0x0 DUP1 REVERT JUMPDEST POP JUMP JUMPDEST PUSH2 0x517D DUP2 PUSH2 0x47B2 JUMP JUMPDEST DUP2 EQ PUSH2 0x5188 JUMPI PUSH1 0x0 DUP1 REVERT JUMPDEST POP JUMP JUMPDEST PUSH2 0x5194 DUP2 PUSH2 0x47FE JUMP JUMPDEST DUP2 EQ PUSH2 0x519F JUMPI PUSH1 0x0 DUP1 REVERT JUMPDEST POP JUMP INVALID LOG2 PUSH5 0x6970667358 0x22 SLT KECCAK256 0xF6 TIMESTAMP CALLCODE SWAP1 DELEGATECALL 0xC2 SHR 0xCE REVERT 0xAE 0xC2 0xA9 0xB1 SWAP6 0xE CALLER PUSH7 0x155CD81E924884 0xBE 0xF9 SWAP4 0xB8 SELFDESTRUCT 0xA8 PC EXP PUSH5 0x736F6C6343 STOP ADDMOD SMOD STOP CALLER PUSH10 0x7066733A2F2F516D5355 COINBASE CALLDATACOPY ORIGIN PUSH14 0x47627A33634B5A79433158356476 ORIGIN COINBASE MSTORE8 CODECOPY PUSH24 0x6A57474464623431483851795077655873724E2F68696464 PUSH6 0x6E2E6A736F6E "
		},
		"gasEstimates": {
			"creation": {
				"codeDepositCost": "4190400",
				"executionCost": "infinite",
				"totalCost": "infinite"
			},
			"external": {
				"addressMintedBalance(address)": "2948",
				"approve(address,uint256)": "infinite",
				"balanceOf(address)": "3012",
				"burnPepe(uint256)": "infinite",
				"cost()": "2475",
				"currentMaxSupply()": "2564",
				"getApproved(uint256)": "5251",
				"getCurrentPrice(uint256)": "infinite",
				"getWinner()": "infinite",
				"hiddenMetadataUri()": "infinite",
				"isApprovedForAll(address,address)": "infinite",
				"maxMintAmountPerTx()": "2563",
				"maxNFTPerAccount()": "2584",
				"maxSupply()": "2562",
				"mintForAddress(uint256,address)": "infinite",
				"mintPepe(uint256)": "infinite",
				"name()": "infinite",
				"owner()": "2590",
				"ownerOf(uint256)": "3088",
				"paused()": "2538",
				"pumpMaxSupply()": "infinite",
				"renounceOwnership()": "30529",
				"resetMaxSupply()": "28861",
				"revealed()": "2677",
				"safeTransferFrom(address,address,uint256)": "infinite",
				"safeTransferFrom(address,address,uint256,bytes)": "infinite",
				"setApprovalForAll(address,bool)": "infinite",
				"setCost(uint256)": "24872",
				"setHiddenMetadataUri(string)": "infinite",
				"setMaxMintAmountPerTx(uint256)": "24893",
				"setMaxNFTPerAccount(uint256)": "24872",
				"setPaused(bool)": "27009",
				"setRevealed(bool)": "27013",
				"setUriPrefix(string)": "infinite",
				"setUriSuffix(string)": "infinite",
				"supportsInterface(bytes4)": "820",
				"symbol()": "infinite",
				"timeLimit()": "2474",
				"tokenURI(uint256)": "infinite",
				"totalSupply()": "2598",
				"transferFrom(address,address,uint256)": "infinite",
				"transferOwnership(address)": "30855",
				"uriPrefix()": "infinite",
				"uriSuffix()": "infinite",
				"walletOfOwner(address)": "infinite",
				"withdraw()": "infinite"
			},
			"internal": {
				"_baseURI()": "infinite",
				"_mintLoop(address,uint256)": "infinite"
			}
		},
		"methodIdentifiers": {
			"addressMintedBalance(address)": "18cae269",
			"approve(address,uint256)": "095ea7b3",
			"balanceOf(address)": "70a08231",
			"burnPepe(uint256)": "f75669e6",
			"cost()": "13faede6",
			"currentMaxSupply()": "104aeef8",
			"getApproved(uint256)": "081812fc",
			"getCurrentPrice(uint256)": "c55d0f56",
			"getWinner()": "8e7ea5b2",
			"hiddenMetadataUri()": "a45ba8e7",
			"isApprovedForAll(address,address)": "e985e9c5",
			"maxMintAmountPerTx()": "94354fd0",
			"maxNFTPerAccount()": "daef8419",
			"maxSupply()": "d5abeb01",
			"mintForAddress(uint256,address)": "efbd73f4",
			"mintPepe(uint256)": "b011561d",
			"name()": "06fdde03",
			"owner()": "8da5cb5b",
			"ownerOf(uint256)": "6352211e",
			"paused()": "5c975abb",
			"pumpMaxSupply()": "f057e6ba",
			"renounceOwnership()": "715018a6",
			"resetMaxSupply()": "c5c5fe76",
			"revealed()": "51830227",
			"safeTransferFrom(address,address,uint256)": "42842e0e",
			"safeTransferFrom(address,address,uint256,bytes)": "b88d4fde",
			"setApprovalForAll(address,bool)": "a22cb465",
			"setCost(uint256)": "44a0d68a",
			"setHiddenMetadataUri(string)": "4fdd43cb",
			"setMaxMintAmountPerTx(uint256)": "b071401b",
			"setMaxNFTPerAccount(uint256)": "934527c4",
			"setPaused(bool)": "16c38b3c",
			"setRevealed(bool)": "e0a80853",
			"setUriPrefix(string)": "7ec4a659",
			"setUriSuffix(string)": "16ba10e0",
			"supportsInterface(bytes4)": "01ffc9a7",
			"symbol()": "95d89b41",
			"timeLimit()": "c08d1fe5",
			"tokenURI(uint256)": "c87b56dd",
			"totalSupply()": "18160ddd",
			"transferFrom(address,address,uint256)": "23b872dd",
			"transferOwnership(address)": "f2fde38b",
			"uriPrefix()": "62b99ad4",
			"uriSuffix()": "5503a0e8",
			"walletOfOwner(address)": "438b6300",
			"withdraw()": "3ccfd60b"
		}
	},
	"abi": [
		{
			"inputs": [],
			"stateMutability": "nonpayable",
			"type": "constructor"
		},
		{
			"anonymous": false,
			"inputs": [
				{
					"indexed": true,
					"internalType": "address",
					"name": "owner",
					"type": "address"
				},
				{
					"indexed": true,
					"internalType": "address",
					"name": "approved",
					"type": "address"
				},
				{
					"indexed": true,
					"internalType": "uint256",
					"name": "tokenId",
					"type": "uint256"
				}
			],
			"name": "Approval",
			"type": "event"
		},
		{
			"anonymous": false,
			"inputs": [
				{
					"indexed": true,
					"internalType": "address",
					"name": "owner",
					"type": "address"
				},
				{
					"indexed": true,
					"internalType": "address",
					"name": "operator",
					"type": "address"
				},
				{
					"indexed": false,
					"internalType": "bool",
					"name": "approved",
					"type": "bool"
				}
			],
			"name": "ApprovalForAll",
			"type": "event"
		},
		{
			"anonymous": false,
			"inputs": [
				{
					"indexed": true,
					"internalType": "address",
					"name": "previousOwner",
					"type": "address"
				},
				{
					"indexed": true,
					"internalType": "address",
					"name": "newOwner",
					"type": "address"
				}
			],
			"name": "OwnershipTransferred",
			"type": "event"
		},
		{
			"anonymous": false,
			"inputs": [
				{
					"indexed": true,
					"internalType": "address",
					"name": "from",
					"type": "address"
				},
				{
					"indexed": true,
					"internalType": "address",
					"name": "to",
					"type": "address"
				},
				{
					"indexed": true,
					"internalType": "uint256",
					"name": "tokenId",
					"type": "uint256"
				}
			],
			"name": "Transfer",
			"type": "event"
		},
		{
			"inputs": [
				{
					"internalType": "address",
					"name": "",
					"type": "address"
				}
			],
			"name": "addressMintedBalance",
			"outputs": [
				{
					"internalType": "uint256",
					"name": "",
					"type": "uint256"
				}
			],
			"stateMutability": "view",
			"type": "function"
		},
		{
			"inputs": [
				{
					"internalType": "address",
					"name": "to",
					"type": "address"
				},
				{
					"internalType": "uint256",
					"name": "tokenId",
					"type": "uint256"
				}
			],
			"name": "approve",
			"outputs": [],
			"stateMutability": "nonpayable",
			"type": "function"
		},
		{
			"inputs": [
				{
					"internalType": "address",
					"name": "owner",
					"type": "address"
				}
			],
			"name": "balanceOf",
			"outputs": [
				{
					"internalType": "uint256",
					"name": "",
					"type": "uint256"
				}
			],
			"stateMutability": "view",
			"type": "function"
		},
		{
			"inputs": [
				{
					"internalType": "uint256",
					"name": "tokenId",
					"type": "uint256"
				}
			],
			"name": "burnPepe",
			"outputs": [],
			"stateMutability": "nonpayable",
			"type": "function"
		},
		{
			"inputs": [],
			"name": "cost",
			"outputs": [
				{
					"internalType": "uint256",
					"name": "",
					"type": "uint256"
				}
			],
			"stateMutability": "view",
			"type": "function"
		},
		{
			"inputs": [],
			"name": "currentMaxSupply",
			"outputs": [
				{
					"internalType": "uint256",
					"name": "",
					"type": "uint256"
				}
			],
			"stateMutability": "view",
			"type": "function"
		},
		{
			"inputs": [
				{
					"internalType": "uint256",
					"name": "tokenId",
					"type": "uint256"
				}
			],
			"name": "getApproved",
			"outputs": [
				{
					"internalType": "address",
					"name": "",
					"type": "address"
				}
			],
			"stateMutability": "view",
			"type": "function"
		},
		{
			"inputs": [
				{
					"internalType": "uint256",
					"name": "_mintAmount",
					"type": "uint256"
				}
			],
			"name": "getCurrentPrice",
			"outputs": [
				{
					"internalType": "uint256",
					"name": "",
					"type": "uint256"
				}
			],
			"stateMutability": "view",
			"type": "function"
		},
		{
			"inputs": [],
			"name": "getWinner",
			"outputs": [
				{
					"internalType": "address",
					"name": "",
					"type": "address"
				}
			],
			"stateMutability": "view",
			"type": "function"
		},
		{
			"inputs": [],
			"name": "hiddenMetadataUri",
			"outputs": [
				{
					"internalType": "string",
					"name": "",
					"type": "string"
				}
			],
			"stateMutability": "view",
			"type": "function"
		},
		{
			"inputs": [
				{
					"internalType": "address",
					"name": "owner",
					"type": "address"
				},
				{
					"internalType": "address",
					"name": "operator",
					"type": "address"
				}
			],
			"name": "isApprovedForAll",
			"outputs": [
				{
					"internalType": "bool",
					"name": "",
					"type": "bool"
				}
			],
			"stateMutability": "view",
			"type": "function"
		},
		{
			"inputs": [],
			"name": "maxMintAmountPerTx",
			"outputs": [
				{
					"internalType": "uint256",
					"name": "",
					"type": "uint256"
				}
			],
			"stateMutability": "view",
			"type": "function"
		},
		{
			"inputs": [],
			"name": "maxNFTPerAccount",
			"outputs": [
				{
					"internalType": "uint256",
					"name": "",
					"type": "uint256"
				}
			],
			"stateMutability": "view",
			"type": "function"
		},
		{
			"inputs": [],
			"name": "maxSupply",
			"outputs": [
				{
					"internalType": "uint256",
					"name": "",
					"type": "uint256"
				}
			],
			"stateMutability": "view",
			"type": "function"
		},
		{
			"inputs": [
				{
					"internalType": "uint256",
					"name": "_mintAmount",
					"type": "uint256"
				},
				{
					"internalType": "address",
					"name": "_receiver",
					"type": "address"
				}
			],
			"name": "mintForAddress",
			"outputs": [],
			"stateMutability": "nonpayable",
			"type": "function"
		},
		{
			"inputs": [
				{
					"internalType": "uint256",
					"name": "_mintAmount",
					"type": "uint256"
				}
			],
			"name": "mintPepe",
			"outputs": [],
			"stateMutability": "payable",
			"type": "function"
		},
		{
			"inputs": [],
			"name": "name",
			"outputs": [
				{
					"internalType": "string",
					"name": "",
					"type": "string"
				}
			],
			"stateMutability": "view",
			"type": "function"
		},
		{
			"inputs": [],
			"name": "owner",
			"outputs": [
				{
					"internalType": "address",
					"name": "",
					"type": "address"
				}
			],
			"stateMutability": "view",
			"type": "function"
		},
		{
			"inputs": [
				{
					"internalType": "uint256",
					"name": "tokenId",
					"type": "uint256"
				}
			],
			"name": "ownerOf",
			"outputs": [
				{
					"internalType": "address",
					"name": "",
					"type": "address"
				}
			],
			"stateMutability": "view",
			"type": "function"
		},
		{
			"inputs": [],
			"name": "paused",
			"outputs": [
				{
					"internalType": "bool",
					"name": "",
					"type": "bool"
				}
			],
			"stateMutability": "view",
			"type": "function"
		},
		{
			"inputs": [],
			"name": "pumpMaxSupply",
			"outputs": [],
			"stateMutability": "payable",
			"type": "function"
		},
		{
			"inputs": [],
			"name": "renounceOwnership",
			"outputs": [],
			"stateMutability": "nonpayable",
			"type": "function"
		},
		{
			"inputs": [],
			"name": "resetMaxSupply",
			"outputs": [],
			"stateMutability": "nonpayable",
			"type": "function"
		},
		{
			"inputs": [],
			"name": "revealed",
			"outputs": [
				{
					"internalType": "bool",
					"name": "",
					"type": "bool"
				}
			],
			"stateMutability": "view",
			"type": "function"
		},
		{
			"inputs": [
				{
					"internalType": "address",
					"name": "from",
					"type": "address"
				},
				{
					"internalType": "address",
					"name": "to",
					"type": "address"
				},
				{
					"internalType": "uint256",
					"name": "tokenId",
					"type": "uint256"
				}
			],
			"name": "safeTransferFrom",
			"outputs": [],
			"stateMutability": "nonpayable",
			"type": "function"
		},
		{
			"inputs": [
				{
					"internalType": "address",
					"name": "from",
					"type": "address"
				},
				{
					"internalType": "address",
					"name": "to",
					"type": "address"
				},
				{
					"internalType": "uint256",
					"name": "tokenId",
					"type": "uint256"
				},
				{
					"internalType": "bytes",
					"name": "_data",
					"type": "bytes"
				}
			],
			"name": "safeTransferFrom",
			"outputs": [],
			"stateMutability": "nonpayable",
			"type": "function"
		},
		{
			"inputs": [
				{
					"internalType": "address",
					"name": "operator",
					"type": "address"
				},
				{
					"internalType": "bool",
					"name": "approved",
					"type": "bool"
				}
			],
			"name": "setApprovalForAll",
			"outputs": [],
			"stateMutability": "nonpayable",
			"type": "function"
		},
		{
			"inputs": [
				{
					"internalType": "uint256",
					"name": "_cost",
					"type": "uint256"
				}
			],
			"name": "setCost",
			"outputs": [],
			"stateMutability": "nonpayable",
			"type": "function"
		},
		{
			"inputs": [
				{
					"internalType": "string",
					"name": "_hiddenMetadataUri",
					"type": "string"
				}
			],
			"name": "setHiddenMetadataUri",
			"outputs": [],
			"stateMutability": "nonpayable",
			"type": "function"
		},
		{
			"inputs": [
				{
					"internalType": "uint256",
					"name": "_maxMintAmountPerTx",
					"type": "uint256"
				}
			],
			"name": "setMaxMintAmountPerTx",
			"outputs": [],
			"stateMutability": "nonpayable",
			"type": "function"
		},
		{
			"inputs": [
				{
					"internalType": "uint256",
					"name": "_maxNFT",
					"type": "uint256"
				}
			],
			"name": "setMaxNFTPerAccount",
			"outputs": [],
			"stateMutability": "nonpayable",
			"type": "function"
		},
		{
			"inputs": [
				{
					"internalType": "bool",
					"name": "_state",
					"type": "bool"
				}
			],
			"name": "setPaused",
			"outputs": [],
			"stateMutability": "nonpayable",
			"type": "function"
		},
		{
			"inputs": [
				{
					"internalType": "bool",
					"name": "_state",
					"type": "bool"
				}
			],
			"name": "setRevealed",
			"outputs": [],
			"stateMutability": "nonpayable",
			"type": "function"
		},
		{
			"inputs": [
				{
					"internalType": "string",
					"name": "_uriPrefix",
					"type": "string"
				}
			],
			"name": "setUriPrefix",
			"outputs": [],
			"stateMutability": "nonpayable",
			"type": "function"
		},
		{
			"inputs": [
				{
					"internalType": "string",
					"name": "_uriSuffix",
					"type": "string"
				}
			],
			"name": "setUriSuffix",
			"outputs": [],
			"stateMutability": "nonpayable",
			"type": "function"
		},
		{
			"inputs": [
				{
					"internalType": "bytes4",
					"name": "interfaceId",
					"type": "bytes4"
				}
			],
			"name": "supportsInterface",
			"outputs": [
				{
					"internalType": "bool",
					"name": "",
					"type": "bool"
				}
			],
			"stateMutability": "view",
			"type": "function"
		},
		{
			"inputs": [],
			"name": "symbol",
			"outputs": [
				{
					"internalType": "string",
					"name": "",
					"type": "string"
				}
			],
			"stateMutability": "view",
			"type": "function"
		},
		{
			"inputs": [],
			"name": "timeLimit",
			"outputs": [
				{
					"internalType": "uint256",
					"name": "",
					"type": "uint256"
				}
			],
			"stateMutability": "view",
			"type": "function"
		},
		{
			"inputs": [
				{
					"internalType": "uint256",
					"name": "_tokenId",
					"type": "uint256"
				}
			],
			"name": "tokenURI",
			"outputs": [
				{
					"internalType": "string",
					"name": "",
					"type": "string"
				}
			],
			"stateMutability": "view",
			"type": "function"
		},
		{
			"inputs": [],
			"name": "totalSupply",
			"outputs": [
				{
					"internalType": "uint256",
					"name": "",
					"type": "uint256"
				}
			],
			"stateMutability": "view",
			"type": "function"
		},
		{
			"inputs": [
				{
					"internalType": "address",
					"name": "from",
					"type": "address"
				},
				{
					"internalType": "address",
					"name": "to",
					"type": "address"
				},
				{
					"internalType": "uint256",
					"name": "tokenId",
					"type": "uint256"
				}
			],
			"name": "transferFrom",
			"outputs": [],
			"stateMutability": "nonpayable",
			"type": "function"
		},
		{
			"inputs": [
				{
					"internalType": "address",
					"name": "newOwner",
					"type": "address"
				}
			],
			"name": "transferOwnership",
			"outputs": [],
			"stateMutability": "nonpayable",
			"type": "function"
		},
		{
			"inputs": [],
			"name": "uriPrefix",
			"outputs": [
				{
					"internalType": "string",
					"name": "",
					"type": "string"
				}
			],
			"stateMutability": "view",
			"type": "function"
		},
		{
			"inputs": [],
			"name": "uriSuffix",
			"outputs": [
				{
					"internalType": "string",
					"name": "",
					"type": "string"
				}
			],
			"stateMutability": "view",
			"type": "function"
		},
		{
			"inputs": [
				{
					"internalType": "address",
					"name": "_owner",
					"type": "address"
				}
			],
			"name": "walletOfOwner",
			"outputs": [
				{
					"internalType": "uint256[]",
					"name": "",
					"type": "uint256[]"
				}
			],
			"stateMutability": "view",
			"type": "function"
		},
		{
			"inputs": [],
			"name": "withdraw",
			"outputs": [],
			"stateMutability": "nonpayable",
			"type": "function"
		}
	]
}